{
  "_format": "hh-sol-artifact-1",
  "contractName": "Erc20Scuba",
  "sourceName": "contracts/Erc20Scuba.sol",
  "abi": [
    {
      "inputs": [],
      "stateMutability": "nonpayable",
      "type": "constructor"
    },
    {
      "anonymous": false,
      "inputs": [
        {
          "indexed": true,
          "internalType": "address",
          "name": "owner",
          "type": "address"
        },
        {
          "indexed": true,
          "internalType": "address",
          "name": "spender",
          "type": "address"
        },
        {
          "indexed": false,
          "internalType": "uint256",
          "name": "value",
          "type": "uint256"
        }
      ],
      "name": "Approval",
      "type": "event"
    },
    {
      "anonymous": false,
      "inputs": [
        {
          "indexed": true,
          "internalType": "address",
          "name": "previousOwner",
          "type": "address"
        },
        {
          "indexed": true,
          "internalType": "address",
          "name": "newOwner",
          "type": "address"
        }
      ],
      "name": "OwnershipTransferred",
      "type": "event"
    },
    {
      "anonymous": false,
      "inputs": [
        {
          "indexed": true,
          "internalType": "address",
          "name": "from",
          "type": "address"
        },
        {
          "indexed": true,
          "internalType": "address",
          "name": "to",
          "type": "address"
        },
        {
          "indexed": false,
          "internalType": "uint256",
          "name": "value",
          "type": "uint256"
        }
      ],
      "name": "Transfer",
      "type": "event"
    },
    {
      "inputs": [
        {
          "internalType": "address",
          "name": "owner",
          "type": "address"
        },
        {
          "internalType": "address",
          "name": "spender",
          "type": "address"
        }
      ],
      "name": "allowance",
      "outputs": [
        {
          "internalType": "uint256",
          "name": "",
          "type": "uint256"
        }
      ],
      "stateMutability": "view",
      "type": "function"
    },
    {
      "inputs": [
        {
          "internalType": "address",
          "name": "spender",
          "type": "address"
        },
        {
          "internalType": "uint256",
          "name": "amount",
          "type": "uint256"
        }
      ],
      "name": "approve",
      "outputs": [
        {
          "internalType": "bool",
          "name": "",
          "type": "bool"
        }
      ],
      "stateMutability": "nonpayable",
      "type": "function"
    },
    {
      "inputs": [
        {
          "internalType": "address",
          "name": "account",
          "type": "address"
        }
      ],
      "name": "balanceOf",
      "outputs": [
        {
          "internalType": "uint256",
          "name": "",
          "type": "uint256"
        }
      ],
      "stateMutability": "view",
      "type": "function"
    },
    {
      "inputs": [
        {
          "internalType": "address",
          "name": "newDiver",
          "type": "address"
        }
      ],
      "name": "changeMasterchef",
      "outputs": [],
      "stateMutability": "nonpayable",
      "type": "function"
    },
    {
      "inputs": [],
      "name": "decimals",
      "outputs": [
        {
          "internalType": "uint8",
          "name": "",
          "type": "uint8"
        }
      ],
      "stateMutability": "view",
      "type": "function"
    },
    {
      "inputs": [
        {
          "internalType": "address",
          "name": "spender",
          "type": "address"
        },
        {
          "internalType": "uint256",
          "name": "subtractedValue",
          "type": "uint256"
        }
      ],
      "name": "decreaseAllowance",
      "outputs": [
        {
          "internalType": "bool",
          "name": "",
          "type": "bool"
        }
      ],
      "stateMutability": "nonpayable",
      "type": "function"
    },
    {
      "inputs": [
        {
          "internalType": "address",
          "name": "_to",
          "type": "address"
        },
        {
          "internalType": "uint256",
          "name": "_amount",
          "type": "uint256"
        }
      ],
      "name": "emissionMint",
      "outputs": [
        {
          "internalType": "uint256",
          "name": "amount",
          "type": "uint256"
        }
      ],
      "stateMutability": "nonpayable",
      "type": "function"
    },
    {
      "inputs": [
        {
          "internalType": "address",
          "name": "spender",
          "type": "address"
        },
        {
          "internalType": "uint256",
          "name": "addedValue",
          "type": "uint256"
        }
      ],
      "name": "increaseAllowance",
      "outputs": [
        {
          "internalType": "bool",
          "name": "",
          "type": "bool"
        }
      ],
      "stateMutability": "nonpayable",
      "type": "function"
    },
    {
      "inputs": [],
      "name": "masterdiver",
      "outputs": [
        {
          "internalType": "address",
          "name": "",
          "type": "address"
        }
      ],
      "stateMutability": "view",
      "type": "function"
    },
    {
      "inputs": [],
      "name": "name",
      "outputs": [
        {
          "internalType": "string",
          "name": "",
          "type": "string"
        }
      ],
      "stateMutability": "view",
      "type": "function"
    },
    {
      "inputs": [],
      "name": "owner",
      "outputs": [
        {
          "internalType": "address",
          "name": "",
          "type": "address"
        }
      ],
      "stateMutability": "view",
      "type": "function"
    },
    {
      "inputs": [],
      "name": "renounceOwnership",
      "outputs": [],
      "stateMutability": "nonpayable",
      "type": "function"
    },
    {
      "inputs": [],
      "name": "startDate",
      "outputs": [
        {
          "internalType": "uint256",
          "name": "",
          "type": "uint256"
        }
      ],
      "stateMutability": "view",
      "type": "function"
    },
    {
      "inputs": [],
      "name": "symbol",
      "outputs": [
        {
          "internalType": "string",
          "name": "",
          "type": "string"
        }
      ],
      "stateMutability": "view",
      "type": "function"
    },
    {
      "inputs": [],
      "name": "totalSupply",
      "outputs": [
        {
          "internalType": "uint256",
          "name": "",
          "type": "uint256"
        }
      ],
      "stateMutability": "view",
      "type": "function"
    },
    {
      "inputs": [
        {
          "internalType": "address",
          "name": "recipient",
          "type": "address"
        },
        {
          "internalType": "uint256",
          "name": "amount",
          "type": "uint256"
        }
      ],
      "name": "transfer",
      "outputs": [
        {
          "internalType": "bool",
          "name": "",
          "type": "bool"
        }
      ],
      "stateMutability": "nonpayable",
      "type": "function"
    },
    {
      "inputs": [
        {
          "internalType": "address",
          "name": "sender",
          "type": "address"
        },
        {
          "internalType": "address",
          "name": "recipient",
          "type": "address"
        },
        {
          "internalType": "uint256",
          "name": "amount",
          "type": "uint256"
        }
      ],
      "name": "transferFrom",
      "outputs": [
        {
          "internalType": "bool",
          "name": "",
          "type": "bool"
        }
      ],
      "stateMutability": "nonpayable",
      "type": "function"
    },
    {
      "inputs": [
        {
          "internalType": "address",
          "name": "newOwner",
          "type": "address"
        }
      ],
      "name": "transferOwnership",
      "outputs": [],
      "stateMutability": "nonpayable",
      "type": "function"
    }
  ],
  "bytecode": "0x60806040523480156200001157600080fd5b50604080518082018252600d81526c53637562612046696e616e636560981b602080830191825283518085019094526005845264534355424160d81b9084015281519192916200006491600391620002c6565b5080516200007a906004906020840190620002c6565b50505062000097620000916200011960201b60201c565b6200011d565b620000d46040518060400160405280600f81526020016e36b4b73a103a37903a32b131ba32b960891b8152506200016f60201b620007141760201c565b620000fd731fc444e3e4c60e864bfbaa25953b42fa73695cf868056bc75e2d63100000620001bd565b600680546001600160a01b031916331790554260075562000424565b3390565b600580546001600160a01b038381166001600160a01b0319831681179093556040519116919082907f8be0079c531659141344cd1fd0a4f28419497f9722a3daafe3b4186f6b6457e090600090a35050565b620001ba816040516024016200018691906200036c565b60408051601f198184030181529190526020810180516001600160e01b0390811663104c13eb60e21b17909152620002a516565b50565b6001600160a01b038216620002185760405162461bcd60e51b815260206004820152601f60248201527f45524332303a206d696e7420746f20746865207a65726f206164647265737300604482015260640160405180910390fd5b80600260008282546200022c9190620003c2565b90915550506001600160a01b038216600090815260208190526040812080548392906200025b908490620003c2565b90915550506040518181526001600160a01b038316906000907fddf252ad1be2c89b69c2b068fc378daa952ba7f163c4a11628f55a4df523b3ef9060200160405180910390a35050565b80516a636f6e736f6c652e6c6f67602083016000808483855afa5050505050565b828054620002d490620003e7565b90600052602060002090601f016020900481019282620002f8576000855562000343565b82601f106200031357805160ff191683800117855562000343565b8280016001018555821562000343579182015b828111156200034357825182559160200191906001019062000326565b506200035192915062000355565b5090565b5b8082111562000351576000815560010162000356565b6000602080835283518082850152825b818110156200039a578581018301518582016040015282016200037c565b81811115620003ac5783604083870101525b50601f01601f1916929092016040019392505050565b60008219821115620003e257634e487b7160e01b81526011600452602481fd5b500190565b600181811c90821680620003fc57607f821691505b602082108114156200041e57634e487b7160e01b600052602260045260246000fd5b50919050565b610eb880620004346000396000f3fe608060405234801561001057600080fd5b50600436106101165760003560e01c8063715018a6116100a2578063a9059cbb11610071578063a9059cbb14610236578063acdb527614610249578063b6a92f9c1461025c578063dd62ed3e1461026f578063f2fde38b146102a857600080fd5b8063715018a6146101ee5780638da5cb5b146101f657806395d89b411461021b578063a457c2d71461022357600080fd5b806318160ddd116100e957806318160ddd1461018857806323b872dd14610190578063313ce567146101a357806339509351146101b257806370a08231146101c557600080fd5b806306fdde031461011b578063095ea7b3146101395780630b97bc861461015c578063168f804914610173575b600080fd5b6101236102bb565b6040516101309190610c6f565b60405180910390f35b61014c610147366004610c46565b61034d565b6040519015158152602001610130565b61016560075481565b604051908152602001610130565b610186610181366004610bb8565b610364565b005b600254610165565b61014c61019e366004610c0b565b6103e0565b60405160128152602001610130565b61014c6101c0366004610c46565b61048a565b6101656101d3366004610bb8565b6001600160a01b031660009081526020819052604090205490565b6101866104c6565b6005546001600160a01b03165b6040516001600160a01b039091168152602001610130565b6101236104fc565b61014c610231366004610c46565b61050b565b61014c610244366004610c46565b6105a4565b600654610203906001600160a01b031681565b61016561026a366004610c46565b6105b1565b61016561027d366004610bd9565b6001600160a01b03918216600090815260016020908152604080832093909416825291909152205490565b6101866102b6366004610bb8565b61067c565b6060600380546102ca90610e31565b80601f01602080910402602001604051908101604052809291908181526020018280546102f690610e31565b80156103435780601f1061031857610100808354040283529160200191610343565b820191906000526020600020905b81548152906001019060200180831161032657829003601f168201915b5050505050905090565b600061035a338484610757565b5060015b92915050565b6006546001600160a01b031633146103b95760405162461bcd60e51b8152602060048201526013602482015272554e415554484f52495a45445f4348414e474560681b60448201526064015b60405180910390fd5b600680546001600160a01b0319166001600160a01b0383161790556103dd8161067c565b50565b60006103ed84848461087b565b6001600160a01b0384166000908152600160209081526040808320338452909152902054828110156104725760405162461bcd60e51b815260206004820152602860248201527f45524332303a207472616e7366657220616d6f756e74206578636565647320616044820152676c6c6f77616e636560c01b60648201526084016103b0565b61047f8533858403610757565b506001949350505050565b3360008181526001602090815260408083206001600160a01b0387168452909152812054909161035a9185906104c1908690610cf7565b610757565b6005546001600160a01b031633146104f05760405162461bcd60e51b81526004016103b090610cc2565b6104fa6000610a4a565b565b6060600480546102ca90610e31565b3360009081526001602090815260408083206001600160a01b03861684529091528120548281101561058d5760405162461bcd60e51b815260206004820152602560248201527f45524332303a2064656372656173656420616c6c6f77616e63652062656c6f77604482015264207a65726f60d81b60648201526084016103b0565b61059a3385858403610757565b5060019392505050565b600061035a33848461087b565b6005546000906001600160a01b031633146105de5760405162461bcd60e51b81526004016103b090610cc2565b60075442116106245760405162461bcd60e51b815260206004820152601260248201527143414e4e4f545f5245564552545f54494d4560701b60448201526064016103b0565b600061016d620151806007544261063b9190610e1a565b6106459190610d0f565b61064f9190610d0f565b9050600061065e826002610d72565b6106689085610d0f565b90506106748582610a9c565b949350505050565b6005546001600160a01b031633146106a65760405162461bcd60e51b81526004016103b090610cc2565b6001600160a01b03811661070b5760405162461bcd60e51b815260206004820152602660248201527f4f776e61626c653a206e6577206f776e657220697320746865207a65726f206160448201526564647265737360d01b60648201526084016103b0565b6103dd81610a4a565b6103dd816040516024016107289190610c6f565b60408051601f198184030181529190526020810180516001600160e01b031663104c13eb60e21b179052610b7b565b6001600160a01b0383166107b95760405162461bcd60e51b8152602060048201526024808201527f45524332303a20617070726f76652066726f6d20746865207a65726f206164646044820152637265737360e01b60648201526084016103b0565b6001600160a01b03821661081a5760405162461bcd60e51b815260206004820152602260248201527f45524332303a20617070726f766520746f20746865207a65726f206164647265604482015261737360f01b60648201526084016103b0565b6001600160a01b0383811660008181526001602090815260408083209487168084529482529182902085905590518481527f8c5be1e5ebec7d5bd14f71427d1e84f3dd0314c0f7b2291e5b200ac8c7c3b925910160405180910390a3505050565b6001600160a01b0383166108df5760405162461bcd60e51b815260206004820152602560248201527f45524332303a207472616e736665722066726f6d20746865207a65726f206164604482015264647265737360d81b60648201526084016103b0565b6001600160a01b0382166109415760405162461bcd60e51b815260206004820152602360248201527f45524332303a207472616e7366657220746f20746865207a65726f206164647260448201526265737360e81b60648201526084016103b0565b6001600160a01b038316600090815260208190526040902054818110156109b95760405162461bcd60e51b815260206004820152602660248201527f45524332303a207472616e7366657220616d6f756e7420657863656564732062604482015265616c616e636560d01b60648201526084016103b0565b6001600160a01b038085166000908152602081905260408082208585039055918516815290812080548492906109f0908490610cf7565b92505081905550826001600160a01b0316846001600160a01b03167fddf252ad1be2c89b69c2b068fc378daa952ba7f163c4a11628f55a4df523b3ef84604051610a3c91815260200190565b60405180910390a350505050565b600580546001600160a01b038381166001600160a01b0319831681179093556040519116919082907f8be0079c531659141344cd1fd0a4f28419497f9722a3daafe3b4186f6b6457e090600090a35050565b6001600160a01b038216610af25760405162461bcd60e51b815260206004820152601f60248201527f45524332303a206d696e7420746f20746865207a65726f20616464726573730060448201526064016103b0565b8060026000828254610b049190610cf7565b90915550506001600160a01b03821660009081526020819052604081208054839290610b31908490610cf7565b90915550506040518181526001600160a01b038316906000907fddf252ad1be2c89b69c2b068fc378daa952ba7f163c4a11628f55a4df523b3ef9060200160405180910390a35050565b80516a636f6e736f6c652e6c6f67602083016000808483855afa5050505050565b80356001600160a01b0381168114610bb357600080fd5b919050565b600060208284031215610bc9578081fd5b610bd282610b9c565b9392505050565b60008060408385031215610beb578081fd5b610bf483610b9c565b9150610c0260208401610b9c565b90509250929050565b600080600060608486031215610c1f578081fd5b610c2884610b9c565b9250610c3660208501610b9c565b9150604084013590509250925092565b60008060408385031215610c58578182fd5b610c6183610b9c565b946020939093013593505050565b6000602080835283518082850152825b81811015610c9b57858101830151858201604001528201610c7f565b81811115610cac5783604083870101525b50601f01601f1916929092016040019392505050565b6020808252818101527f4f776e61626c653a2063616c6c6572206973206e6f7420746865206f776e6572604082015260600190565b60008219821115610d0a57610d0a610e6c565b500190565b600082610d2a57634e487b7160e01b81526012600452602481fd5b500490565b600181815b80851115610d6a578160001904821115610d5057610d50610e6c565b80851615610d5d57918102915b93841c9390800290610d34565b509250929050565b6000610bd28383600082610d885750600161035e565b81610d955750600061035e565b8160018114610dab5760028114610db557610dd1565b600191505061035e565b60ff841115610dc657610dc6610e6c565b50506001821b61035e565b5060208310610133831016604e8410600b8410161715610df4575081810a61035e565b610dfe8383610d2f565b8060001904821115610e1257610e12610e6c565b029392505050565b600082821015610e2c57610e2c610e6c565b500390565b600181811c90821680610e4557607f821691505b60208210811415610e6657634e487b7160e01b600052602260045260246000fd5b50919050565b634e487b7160e01b600052601160045260246000fdfea2646970667358221220f41100eafb745e22da47e7c6757fb6c79650644f20a386aeed5dad102393789e64736f6c63430008040033",
  "linkReferences": {},
  "deployedLinkReferences": {}
}