{
  "_format": "hh-sol-artifact-1",
  "contractName": "Router",
  "sourceName": "contracts/Router.sol",
  "abi": [
    {
      "anonymous": false,
      "inputs": [
        {
          "indexed": true,
          "internalType": "address",
          "name": "previousOwner",
          "type": "address"
        },
        {
          "indexed": true,
          "internalType": "address",
          "name": "newOwner",
          "type": "address"
        }
      ],
      "name": "OwnershipTransferred",
      "type": "event"
    },
    {
      "inputs": [
        {
          "internalType": "address",
          "name": "swapPair",
          "type": "address"
        },
        {
          "internalType": "address",
          "name": "swapRouter",
          "type": "address"
        },
        {
          "internalType": "string",
          "name": "amm",
          "type": "string"
        }
      ],
      "name": "createPool",
      "outputs": [
        {
          "internalType": "address",
          "name": "poolAddress",
          "type": "address"
        }
      ],
      "stateMutability": "nonpayable",
      "type": "function"
    },
    {
      "inputs": [],
      "name": "currentPoolVersion",
      "outputs": [
        {
          "internalType": "uint256",
          "name": "",
          "type": "uint256"
        }
      ],
      "stateMutability": "view",
      "type": "function"
    },
    {
      "inputs": [],
      "name": "factoryAddress",
      "outputs": [
        {
          "internalType": "address",
          "name": "",
          "type": "address"
        }
      ],
      "stateMutability": "view",
      "type": "function"
    },
    {
      "inputs": [],
      "name": "getPoolCount",
      "outputs": [
        {
          "internalType": "uint256",
          "name": "poolCount",
          "type": "uint256"
        }
      ],
      "stateMutability": "view",
      "type": "function"
    },
    {
      "inputs": [],
      "name": "isReleased",
      "outputs": [
        {
          "internalType": "bool",
          "name": "",
          "type": "bool"
        }
      ],
      "stateMutability": "view",
      "type": "function"
    },
    {
      "inputs": [],
      "name": "owner",
      "outputs": [
        {
          "internalType": "address",
          "name": "",
          "type": "address"
        }
      ],
      "stateMutability": "view",
      "type": "function"
    },
    {
      "inputs": [
        {
          "internalType": "address",
          "name": "",
          "type": "address"
        }
      ],
      "name": "pairToPool",
      "outputs": [
        {
          "internalType": "address",
          "name": "",
          "type": "address"
        }
      ],
      "stateMutability": "view",
      "type": "function"
    },
    {
      "inputs": [
        {
          "internalType": "uint256",
          "name": "",
          "type": "uint256"
        }
      ],
      "name": "poolList",
      "outputs": [
        {
          "internalType": "address",
          "name": "",
          "type": "address"
        }
      ],
      "stateMutability": "view",
      "type": "function"
    },
    {
      "inputs": [
        {
          "internalType": "address",
          "name": "",
          "type": "address"
        }
      ],
      "name": "poolVersion",
      "outputs": [
        {
          "internalType": "uint256",
          "name": "",
          "type": "uint256"
        }
      ],
      "stateMutability": "view",
      "type": "function"
    },
    {
      "inputs": [],
      "name": "release",
      "outputs": [],
      "stateMutability": "nonpayable",
      "type": "function"
    },
    {
      "inputs": [],
      "name": "renounceOwnership",
      "outputs": [],
      "stateMutability": "nonpayable",
      "type": "function"
    },
    {
      "inputs": [
        {
          "internalType": "address",
          "name": "newOwner",
          "type": "address"
        }
      ],
      "name": "transferOwnership",
      "outputs": [],
      "stateMutability": "nonpayable",
      "type": "function"
    },
    {
      "inputs": [
        {
          "internalType": "address",
          "name": "newFactoryAddress",
          "type": "address"
        },
        {
          "internalType": "uint256",
          "name": "poolVersion_",
          "type": "uint256"
        }
      ],
      "name": "updateFactory",
      "outputs": [],
      "stateMutability": "nonpayable",
      "type": "function"
    }
  ],
  "bytecode": "0x608060405260016002556003805460ff1916905534801561001f57600080fd5b506100293361002e565b61007e565b600080546001600160a01b038381166001600160a01b0319831681178455604051919092169283917f8be0079c531659141344cd1fd0a4f28419497f9722a3daafe3b4186f6b6457e09190a35050565b610b2c8061008d6000396000f3fe608060405234801561001057600080fd5b50600436106100cf5760003560e01c80638da5cb5b1161008c578063f1935fac11610066578063f1935fac146101ac578063f2fde38b146101bf578063fa2a8997146101d2578063feaece0d146101ef57600080fd5b80638da5cb5b146101805780638eec5d7014610191578063966dae0e1461019957600080fd5b80632a48235b146100d45780633206dcd1146101045780634865080d1461012d5780635556ee5514610142578063715018a61461017057806386d1a69f14610178575b600080fd5b6100e76100e236600461094f565b6101f8565b6040516001600160a01b0390911681526020015b60405180910390f35b6100e7610112366004610814565b6005602052600090815260409020546001600160a01b031681565b61014061013b366004610924565b610222565b005b610162610150366004610814565b60066020526000908152604090205481565b6040519081526020016100fb565b61014061029c565b6101406102d2565b6000546001600160a01b03166100e7565b600454610162565b6001546100e7906001600160a01b031681565b6100e76101ba366004610853565b61030b565b6101406101cd366004610814565b6105ef565b6003546101df9060ff1681565b60405190151581526020016100fb565b61016260025481565b6004818154811061020857600080fd5b6000918252602090912001546001600160a01b0316905081565b6000546001600160a01b031633146102555760405162461bcd60e51b815260040161024c90610a74565b60405180910390fd5b610276604051806060016040528060228152602001610ad56022913961068a565b600180546001600160a01b0319166001600160a01b039390931692909217909155600255565b6000546001600160a01b031633146102c65760405162461bcd60e51b815260040161024c90610a74565b6102d060006106cd565b565b6000546001600160a01b031633146102fc5760405162461bcd60e51b815260040161024c90610a74565b6003805460ff19166001179055565b60408051808201825260208082527f70616972546f506f6f6c3a202573202c20706f6f6c56657273696f6e3a202573818301526001600160a01b038087166000908152600583528481205460069093529384205461036d93929091169061071d565b6001600160a01b038481166000908152600560205260409020541615806103ad57506002546001600160a01b038516600090815260066020526040902054105b6103f15760405162461bcd60e51b81526020600482015260156024820152744d41524b45545f414c52454144595f45584953545360581b604482015260640161024c565b610417604051806040016040528060058152602001646f6b20676f60d81b81525061068a565b600154604051633c64d7eb60e21b81526000916001600160a01b03169063f1935fac9061044c908890889088906004016109b2565b602060405180830381600087803b15801561046657600080fd5b505af115801561047a573d6000803e3d6000fd5b505050506040513d601f19601f8201168201806040525081019061049e9190610837565b90506104d56040518060400160405280601381526020017263726561746564206e657720706f6f6c20257360681b81525082610769565b600480546001810182556000919091527f8a35acfbc15ff81a39ae7d344fd709f28e8600b4aa8c65c6b64bfe7fe36bd19b0180546001600160a01b0319166001600160a01b03831617905560408051808201909152600a8152696e6577506f6f6c20257360b01b602082015261054b9082610769565b8060056000876001600160a01b03166001600160a01b0316815260200190815260200160002060006101000a8154816001600160a01b0302191690836001600160a01b031602179055506105cb604051806040016040528060128152602001716e6577506f6f6c2076657273696f6e20257360701b8152506002546107b2565b6002546001600160a01b038216600090815260066020526040902055949350505050565b6000546001600160a01b031633146106195760405162461bcd60e51b815260040161024c90610a74565b6001600160a01b03811661067e5760405162461bcd60e51b815260206004820152602660248201527f4f776e61626c653a206e6577206f776e657220697320746865207a65726f206160448201526564647265737360d01b606482015260840161024c565b610687816106cd565b50565b6106878160405160240161069e91906109e7565b60408051601f198184030181529190526020810180516001600160e01b031663104c13eb60e21b1790526107f3565b600080546001600160a01b038381166001600160a01b0319831681178455604051919092169283917f8be0079c531659141344cd1fd0a4f28419497f9722a3daafe3b4186f6b6457e09190a35050565b61076483838360405160240161073593929190610a24565b60408051601f198184030181529190526020810180516001600160e01b03166307c8121760e01b1790526107f3565b505050565b6107ae828260405160240161077f9291906109fa565b60408051601f198184030181529190526020810180516001600160e01b031663319af33360e01b1790526107f3565b5050565b6107ae82826040516024016107c8929190610a52565b60408051601f198184030181529190526020810180516001600160e01b03166309710a9d60e41b1790525b80516a636f6e736f6c652e6c6f67602083016000808483855afa5050505050565b600060208284031215610825578081fd5b813561083081610abf565b9392505050565b600060208284031215610848578081fd5b815161083081610abf565b600080600060608486031215610867578182fd5b833561087281610abf565b9250602084013561088281610abf565b9150604084013567ffffffffffffffff8082111561089e578283fd5b818601915086601f8301126108b1578283fd5b8135818111156108c3576108c3610aa9565b604051601f8201601f19908116603f011681019083821181831017156108eb576108eb610aa9565b81604052828152896020848701011115610903578586fd5b82602086016020830137856020848301015280955050505050509250925092565b60008060408385031215610936578182fd5b823561094181610abf565b946020939093013593505050565b600060208284031215610960578081fd5b5035919050565b60008151808452815b8181101561098c57602081850181015186830182015201610970565b8181111561099d5782602083870101525b50601f01601f19169290920160200192915050565b6001600160a01b038481168252831660208201526060604082018190526000906109de90830184610967565b95945050505050565b6020815260006108306020830184610967565b604081526000610a0d6040830185610967565b905060018060a01b03831660208301529392505050565b606081526000610a376060830186610967565b6001600160a01b039490941660208301525060400152919050565b604081526000610a656040830185610967565b90508260208301529392505050565b6020808252818101527f4f776e61626c653a2063616c6c6572206973206e6f7420746865206f776e6572604082015260600190565b634e487b7160e01b600052604160045260246000fd5b6001600160a01b038116811461068757600080fdfe666163746f727941646472657373203d206e6577466163746f727941646472657373a2646970667358221220df278006c3914f9cfef85eb4ec368a22fe16f4fd203200d99aa39290795e8d3164736f6c63430008040033",
  "linkReferences": {},
  "deployedLinkReferences": {}
}