{
  "_format": "hh-sol-artifact-1",
  "contractName": "MasterChef",
  "sourceName": "contracts/MasterChef.sol",
  "abi": [
    {
      "inputs": [
        {
          "internalType": "contract GovernanceToken",
          "name": "_Zodiak",
          "type": "address"
        },
        {
          "internalType": "address",
          "name": "_founderAddress",
          "type": "address"
        },
        {
          "internalType": "address",
          "name": "_treasuryAddress",
          "type": "address"
        },
        {
          "internalType": "address",
          "name": "_stakingAddress",
          "type": "address"
        }
      ],
      "stateMutability": "nonpayable",
      "type": "constructor"
    },
    {
      "anonymous": false,
      "inputs": [
        {
          "indexed": true,
          "internalType": "address",
          "name": "user",
          "type": "address"
        },
        {
          "indexed": true,
          "internalType": "uint256",
          "name": "pid",
          "type": "uint256"
        },
        {
          "indexed": false,
          "internalType": "uint256",
          "name": "amount",
          "type": "uint256"
        }
      ],
      "name": "Deposit",
      "type": "event"
    },
    {
      "anonymous": false,
      "inputs": [
        {
          "indexed": true,
          "internalType": "address",
          "name": "user",
          "type": "address"
        },
        {
          "indexed": true,
          "internalType": "uint256",
          "name": "pid",
          "type": "uint256"
        },
        {
          "indexed": false,
          "internalType": "uint256",
          "name": "amount",
          "type": "uint256"
        }
      ],
      "name": "EmergencyWithdraw",
      "type": "event"
    },
    {
      "anonymous": false,
      "inputs": [
        {
          "indexed": true,
          "internalType": "address",
          "name": "previousOwner",
          "type": "address"
        },
        {
          "indexed": true,
          "internalType": "address",
          "name": "newOwner",
          "type": "address"
        }
      ],
      "name": "OwnershipTransferred",
      "type": "event"
    },
    {
      "anonymous": false,
      "inputs": [
        {
          "indexed": true,
          "internalType": "address",
          "name": "user",
          "type": "address"
        },
        {
          "indexed": true,
          "internalType": "address",
          "name": "newAddress",
          "type": "address"
        }
      ],
      "name": "SetTreasuryAddress",
      "type": "event"
    },
    {
      "anonymous": false,
      "inputs": [
        {
          "indexed": true,
          "internalType": "address",
          "name": "user",
          "type": "address"
        },
        {
          "indexed": true,
          "internalType": "uint256",
          "name": "pid",
          "type": "uint256"
        },
        {
          "indexed": false,
          "internalType": "uint256",
          "name": "amount",
          "type": "uint256"
        }
      ],
      "name": "Withdraw",
      "type": "event"
    },
    {
      "inputs": [],
      "name": "Zodiak",
      "outputs": [
        {
          "internalType": "contract GovernanceToken",
          "name": "",
          "type": "address"
        }
      ],
      "stateMutability": "view",
      "type": "function"
    },
    {
      "inputs": [],
      "name": "ZodiakPerSecond",
      "outputs": [
        {
          "internalType": "uint256",
          "name": "",
          "type": "uint256"
        }
      ],
      "stateMutability": "view",
      "type": "function"
    },
    {
      "inputs": [
        {
          "internalType": "uint256",
          "name": "_allocPoint",
          "type": "uint256"
        },
        {
          "internalType": "contract ERC20",
          "name": "_lpToken",
          "type": "address"
        },
        {
          "internalType": "bool",
          "name": "_withUpdate",
          "type": "bool"
        }
      ],
      "name": "add",
      "outputs": [],
      "stateMutability": "nonpayable",
      "type": "function"
    },
    {
      "inputs": [
        {
          "internalType": "uint256",
          "name": "_pid",
          "type": "uint256"
        },
        {
          "internalType": "uint256",
          "name": "_amount",
          "type": "uint256"
        }
      ],
      "name": "deposit",
      "outputs": [],
      "stateMutability": "nonpayable",
      "type": "function"
    },
    {
      "inputs": [
        {
          "internalType": "address",
          "name": "_founderAddress",
          "type": "address"
        }
      ],
      "name": "dev",
      "outputs": [],
      "stateMutability": "nonpayable",
      "type": "function"
    },
    {
      "inputs": [],
      "name": "devaddr",
      "outputs": [
        {
          "internalType": "address",
          "name": "",
          "type": "address"
        }
      ],
      "stateMutability": "view",
      "type": "function"
    },
    {
      "inputs": [
        {
          "internalType": "uint256",
          "name": "_pid",
          "type": "uint256"
        }
      ],
      "name": "emergencyWithdraw",
      "outputs": [],
      "stateMutability": "nonpayable",
      "type": "function"
    },
    {
      "inputs": [],
      "name": "founderAddress",
      "outputs": [
        {
          "internalType": "address",
          "name": "",
          "type": "address"
        }
      ],
      "stateMutability": "view",
      "type": "function"
    },
    {
      "inputs": [],
      "name": "massUpdatePools",
      "outputs": [],
      "stateMutability": "nonpayable",
      "type": "function"
    },
    {
      "inputs": [],
      "name": "owner",
      "outputs": [
        {
          "internalType": "address",
          "name": "",
          "type": "address"
        }
      ],
      "stateMutability": "view",
      "type": "function"
    },
    {
      "inputs": [
        {
          "internalType": "uint256",
          "name": "_pid",
          "type": "uint256"
        },
        {
          "internalType": "address",
          "name": "_user",
          "type": "address"
        }
      ],
      "name": "pendingRewards",
      "outputs": [
        {
          "internalType": "uint256",
          "name": "",
          "type": "uint256"
        }
      ],
      "stateMutability": "view",
      "type": "function"
    },
    {
      "inputs": [
        {
          "internalType": "contract ERC20",
          "name": "",
          "type": "address"
        }
      ],
      "name": "poolExistence",
      "outputs": [
        {
          "internalType": "bool",
          "name": "",
          "type": "bool"
        }
      ],
      "stateMutability": "view",
      "type": "function"
    },
    {
      "inputs": [
        {
          "internalType": "contract ERC20",
          "name": "",
          "type": "address"
        }
      ],
      "name": "poolId",
      "outputs": [
        {
          "internalType": "uint256",
          "name": "",
          "type": "uint256"
        }
      ],
      "stateMutability": "view",
      "type": "function"
    },
    {
      "inputs": [
        {
          "internalType": "uint256",
          "name": "",
          "type": "uint256"
        }
      ],
      "name": "poolInfo",
      "outputs": [
        {
          "internalType": "contract ERC20",
          "name": "lpToken",
          "type": "address"
        },
        {
          "internalType": "uint256",
          "name": "allocPoint",
          "type": "uint256"
        },
        {
          "internalType": "uint256",
          "name": "lastRewardDate",
          "type": "uint256"
        },
        {
          "internalType": "uint256",
          "name": "accZodiakPerShare",
          "type": "uint256"
        }
      ],
      "stateMutability": "view",
      "type": "function"
    },
    {
      "inputs": [],
      "name": "poolLength",
      "outputs": [
        {
          "internalType": "uint256",
          "name": "",
          "type": "uint256"
        }
      ],
      "stateMutability": "view",
      "type": "function"
    },
    {
      "inputs": [],
      "name": "renounceOwnership",
      "outputs": [],
      "stateMutability": "nonpayable",
      "type": "function"
    },
    {
      "inputs": [
        {
          "internalType": "uint256",
          "name": "_pid",
          "type": "uint256"
        },
        {
          "internalType": "uint256",
          "name": "_allocPoint",
          "type": "uint256"
        },
        {
          "internalType": "bool",
          "name": "_withUpdate",
          "type": "bool"
        }
      ],
      "name": "set",
      "outputs": [],
      "stateMutability": "nonpayable",
      "type": "function"
    },
    {
      "inputs": [
        {
          "internalType": "uint256",
          "name": "_startDate",
          "type": "uint256"
        }
      ],
      "name": "setStartDate",
      "outputs": [],
      "stateMutability": "nonpayable",
      "type": "function"
    },
    {
      "inputs": [
        {
          "internalType": "address",
          "name": "_treasuryAddress",
          "type": "address"
        }
      ],
      "name": "setTreasuryAddress",
      "outputs": [],
      "stateMutability": "nonpayable",
      "type": "function"
    },
    {
      "inputs": [],
      "name": "stakingAddress",
      "outputs": [
        {
          "internalType": "address",
          "name": "",
          "type": "address"
        }
      ],
      "stateMutability": "view",
      "type": "function"
    },
    {
      "inputs": [],
      "name": "startDate",
      "outputs": [
        {
          "internalType": "uint256",
          "name": "",
          "type": "uint256"
        }
      ],
      "stateMutability": "view",
      "type": "function"
    },
    {
      "inputs": [],
      "name": "totalAllocPoint",
      "outputs": [
        {
          "internalType": "uint256",
          "name": "",
          "type": "uint256"
        }
      ],
      "stateMutability": "view",
      "type": "function"
    },
    {
      "inputs": [
        {
          "internalType": "address",
          "name": "newOwner",
          "type": "address"
        }
      ],
      "name": "transferOwnership",
      "outputs": [],
      "stateMutability": "nonpayable",
      "type": "function"
    },
    {
      "inputs": [],
      "name": "treasuryAddress",
      "outputs": [
        {
          "internalType": "address",
          "name": "",
          "type": "address"
        }
      ],
      "stateMutability": "view",
      "type": "function"
    },
    {
      "inputs": [
        {
          "internalType": "uint256",
          "name": "_pid",
          "type": "uint256"
        }
      ],
      "name": "updatePool",
      "outputs": [],
      "stateMutability": "nonpayable",
      "type": "function"
    },
    {
      "inputs": [
        {
          "internalType": "uint256",
          "name": "",
          "type": "uint256"
        },
        {
          "internalType": "address",
          "name": "",
          "type": "address"
        }
      ],
      "name": "userInfo",
      "outputs": [
        {
          "internalType": "uint256",
          "name": "amount",
          "type": "uint256"
        },
        {
          "internalType": "uint256",
          "name": "rewardDebt",
          "type": "uint256"
        }
      ],
      "stateMutability": "view",
      "type": "function"
    },
    {
      "inputs": [
        {
          "internalType": "uint256",
          "name": "_pid",
          "type": "uint256"
        },
        {
          "internalType": "uint256",
          "name": "_amount",
          "type": "uint256"
        }
      ],
      "name": "withdraw",
      "outputs": [],
      "stateMutability": "nonpayable",
      "type": "function"
    }
  ],
  "bytecode": "0x608060405264e8d4a5100060025561016d620151806200002c6302faf080670de0b6b3a7640000620002be565b6200003891906200029d565b6200004491906200029d565b6005556000600b553480156200005957600080fd5b5060405162001d5838038062001d588339810160408190526200007c91620001e0565b620000873362000121565b60018081905550620000cd60405180604001604052806011815260200170645f5f666f756e6465724164647265737360781b8152506200017160201b620014b31760201c565b600380546001600160a01b039586166001600160a01b031991821617909155600780549486169482169490941790935560068054928516928416929092179091556008805491909316911617905562000300565b600080546001600160a01b038381166001600160a01b0319831681178455604051919092169283917f8be0079c531659141344cd1fd0a4f28419497f9722a3daafe3b4186f6b6457e09190a35050565b620001bc8160405160240162000188919062000247565b60408051601f198184030181529190526020810180516001600160e01b0390811663104c13eb60e21b17909152620001bf16565b50565b80516a636f6e736f6c652e6c6f67602083016000808483855afa5050505050565b60008060008060808587031215620001f6578384fd5b84516200020381620002ea565b60208601519094506200021681620002ea565b60408601519093506200022981620002ea565b60608601519092506200023c81620002ea565b939692955090935050565b6000602080835283518082850152825b81811015620002755785810183015185820160400152820162000257565b81811115620002875783604083870101525b50601f01601f1916929092016040019392505050565b600082620002b957634e487b7160e01b81526012600452602481fd5b500490565b6000816000190483118215151615620002e557634e487b7160e01b81526011600452602481fd5b500290565b6001600160a01b0381168114620001bc57600080fd5b611a4880620003106000396000f3fe608060405234801561001057600080fd5b50600436106101a95760003560e01c8063715018a6116100f9578063cbd258b511610097578063d7b4be2411610071578063d7b4be24146103c9578063e2bbb158146103dc578063f2fde38b146103ef578063ff51a2721461040257600080fd5b8063cbd258b514610370578063d18df53c146103a3578063d49e77cd146103b657600080fd5b80638da5cb5b116100d35780638da5cb5b146102fc57806393f1a40b1461030d578063c0bc17fe14610354578063c5f956af1461035d57600080fd5b8063715018a6146102ce57806382d95df5146102d65780638d88a90e146102e957600080fd5b806346bb283311610166578063630b5ba111610140578063630b5ba11461028d57806364482f79146102955780636605bfda146102a857806366062f36146102bb57600080fd5b806346bb28331461023c57806351eb05a6146102675780635312ea8e1461027a57600080fd5b8063081e3eda146101ae5780630b97bc86146101c55780631526fe27146101ce57806317caf6f11461020b5780631eaaa04514610214578063441a3e7014610229575b600080fd5b6009545b6040519081526020015b60405180910390f35b6101b2600c5481565b6101e16101dc3660046117a3565b610422565b604080516001600160a01b03909516855260208501939093529183015260608201526080016101bc565b6101b2600b5481565b610227610222366004611802565b610466565b005b610227610237366004611843565b61066f565b60075461024f906001600160a01b031681565b6040516001600160a01b0390911681526020016101bc565b6102276102753660046117a3565b610877565b6102276102883660046117a3565b610c6b565b610227610db8565b6102276102a3366004611864565b610de3565b6102276102b6366004611764565b610ea8565b60035461024f906001600160a01b031681565b610227610f4e565b6102276102e43660046117a3565b610f84565b6102276102f7366004611764565b611063565b6000546001600160a01b031661024f565b61033f61031b3660046117d3565b600a6020908152600092835260408084209091529082529020805460019091015482565b604080519283526020830191909152016101bc565b6101b260055481565b60065461024f906001600160a01b031681565b61039361037e366004611764565b600e6020526000908152604090205460ff1681565b60405190151581526020016101bc565b6101b26103b13660046117d3565b6110cb565b60045461024f906001600160a01b031681565b60085461024f906001600160a01b031681565b6102276103ea366004611843565b611255565b6102276103fd366004611764565b611418565b6101b2610410366004611764565b600d6020526000908152604090205481565b6009818154811061043257600080fd5b600091825260209091206004909102018054600182015460028301546003909301546001600160a01b039092169350919084565b6000546001600160a01b031633146104995760405162461bcd60e51b8152600401610490906118e4565b60405180910390fd5b6001600160a01b0382166000908152600e6020526040902054829060ff16156105045760405162461bcd60e51b815260206004820152601a60248201527f6e6f6e4475706c6963617465643a206475706c6963617465642d0000000000006044820152606401610490565b811561051257610512610db8565b6000600c54421161052557600c54610527565b425b905084600b546105379190611950565b600b556001600160a01b038481166000818152600e602090815260408083208054600160ff19909116811790915581516080810183529485529184018a8152908401868152606085018481526009805480860182559581905295517f6e1540171b6c0c960b71a7020d9f60077f6af931a8bbf590da0223dacf75c7af600490960295860180546001600160a01b031916919098161790965590517f6e1540171b6c0c960b71a7020d9f60077f6af931a8bbf590da0223dacf75c7b0840155517f6e1540171b6c0c960b71a7020d9f60077f6af931a8bbf590da0223dacf75c7b183015592517f6e1540171b6c0c960b71a7020d9f60077f6af931a8bbf590da0223dacf75c7b2909101555461064c91906119a7565b6001600160a01b039094166000908152600d602052604090209390935550505050565b600260015414156106925760405162461bcd60e51b815260040161049090611919565b60026001819055506000600983815481106106bd57634e487b7160e01b600052603260045260246000fd5b60009182526020808320868452600a82526040808520338652909252922080546004909202909201925083111561072b5760405162461bcd60e51b81526020600482015260126024820152711dda5d1a191c985dce881b9bdd0819dbdbd960721b6044820152606401610490565b61073484610877565b60008160010154600254846003015484600001546107529190611988565b61075c9190611968565b61076691906119a7565b905080156107785761077833826114f6565b831561081257815461078b9085906119a7565b8255825460405163a9059cbb60e01b8152336004820152602481018690526001600160a01b039091169063a9059cbb90604401602060405180830381600087803b1580156107d857600080fd5b505af11580156107ec573d6000803e3d6000fd5b505050506040513d601f19601f820116820180604052508101906108109190611787565b505b600254600384015483546108269190611988565b6108309190611968565b6001830155604051848152859033907ff279e6a1f5e320cca91135676d9cb6e44ca8a08c0b88342bcdb1144f6511b5689060200160405180910390a3505060018055505050565b60006009828154811061089a57634e487b7160e01b600052603260045260246000fd5b90600052602060002090600402019050806002015442116108b9575050565b80546040516370a0823160e01b81523060048201526000916001600160a01b0316906370a082319060240160206040518083038186803b1580156108fc57600080fd5b505afa158015610910573d6000803e3d6000fd5b505050506040513d601f19601f8201168201806040525081019061093491906117bb565b905080158061094557506001820154155b1561095557504260029091015550565b600082600201544261096791906119a7565b90506000600b548460010154600554846109819190611988565b61098b9190611988565b6109959190611968565b6003546006549192506001600160a01b039081169163b6a92f9c91166109bc601485611968565b6040516001600160e01b031960e085901b1681526001600160a01b0390921660048301526024820152604401602060405180830381600087803b158015610a0257600080fd5b505af1158015610a16573d6000803e3d6000fd5b505050506040513d601f19601f82011682018060405250810190610a3a91906117bb565b506003546007546001600160a01b039182169163b6a92f9c9116610a5f601485611968565b6040516001600160e01b031960e085901b1681526001600160a01b0390921660048301526024820152604401602060405180830381600087803b158015610aa557600080fd5b505af1158015610ab9573d6000803e3d6000fd5b505050506040513d601f19601f82011682018060405250810190610add91906117bb565b506003546008546001600160a01b039182169163b6a92f9c9116610b02600a85611968565b6040516001600160e01b031960e085901b1681526001600160a01b0390921660048301526024820152604401602060405180830381600087803b158015610b4857600080fd5b505af1158015610b5c573d6000803e3d6000fd5b505050506040513d601f19601f82011682018060405250810190610b8091906117bb565b506003546000906001600160a01b031663b6a92f9c30600a610ba3866008611988565b610bad9190611968565b6040516001600160e01b031960e085901b1681526001600160a01b0390921660048301526024820152604401602060405180830381600087803b158015610bf357600080fd5b505af1158015610c07573d6000803e3d6000fd5b505050506040513d601f19601f82011682018060405250810190610c2b91906117bb565b90508360025482610c3c9190611988565b610c469190611968565b8560030154610c559190611950565b6003860155505042600290930192909255505050565b60026001541415610c8e5760405162461bcd60e51b815260040161049090611919565b6002600181905550600060098281548110610cb957634e487b7160e01b600052603260045260246000fd5b60009182526020808320858452600a825260408085203380875293528085208054868255600182019690965560049485029092018054915163a9059cbb60e01b8152948501939093526024840185905291945092916001600160a01b039091169063a9059cbb90604401602060405180830381600087803b158015610d3d57600080fd5b505af1158015610d51573d6000803e3d6000fd5b505050506040513d601f19601f82011682018060405250810190610d759190611787565b50604051818152849033907fbb757047c2b5f3974fe26b7c10f732e7bce710b0952a71082702781e62ae0595906020015b60405180910390a35050600180555050565b60095460005b81811015610ddf57610dcf81610877565b610dd8816119be565b9050610dbe565b5050565b6000546001600160a01b03163314610e0d5760405162461bcd60e51b8152600401610490906118e4565b8015610e1b57610e1b610db8565b8160098481548110610e3d57634e487b7160e01b600052603260045260246000fd5b906000526020600020906004020160010154600b54610e5c91906119a7565b610e669190611950565b600b819055508160098481548110610e8e57634e487b7160e01b600052603260045260246000fd5b906000526020600020906004020160010181905550505050565b6006546001600160a01b03163314610f025760405162461bcd60e51b815260206004820152601d60248201527f7365745472656173757279416464726573733a20464f5242494444454e0000006044820152606401610490565b600680546001600160a01b0319166001600160a01b03831690811790915560405133907f61885cdba916be748ff3e3f6f15e4206153b8ea3b7acabade9d04b4063a8351090600090a350565b6000546001600160a01b03163314610f785760405162461bcd60e51b8152600401610490906118e4565b610f8260006116f3565b565b6000546001600160a01b03163314610fae5760405162461bcd60e51b8152600401610490906118e4565b600c5415610ff15760405162461bcd60e51b815260206004820152601060248201526f616c726561647920737461727465642160801b6044820152606401610490565b610ffc4260c8611950565b811161105e5760405162461bcd60e51b815260206004820152602b60248201527f737461727420626c6f636b2068617320746f206265206675727468657220696e60448201526a207468652066757475726560a81b6064820152608401610490565b600c55565b6007546001600160a01b031633146110a95760405162461bcd60e51b81526020600482015260096024820152686465763a207775743f60b81b6044820152606401610490565b600780546001600160a01b0319166001600160a01b0392909216919091179055565b600080600984815481106110ef57634e487b7160e01b600052603260045260246000fd5b60009182526020808320878452600a825260408085206001600160a01b038981168752935280852060049485029092016003810154815492516370a0823160e01b8152309681019690965290965091949193919216906370a082319060240160206040518083038186803b15801561116657600080fd5b505afa15801561117a573d6000803e3d6000fd5b505050506040513d601f19601f8201168201806040525081019061119e91906117bb565b90508360020154421180156111b257508015155b156112215760008460020154426111c991906119a7565b90506000600b548660010154600554846111e39190611988565b6111ed9190611988565b6111f79190611968565b905082600254826112089190611988565b6112129190611968565b61121c9085611950565b935050505b60018301546002548454611236908590611988565b6112409190611968565b61124a91906119a7565b979650505050505050565b600260015414156112785760405162461bcd60e51b815260040161049090611919565b60026001819055506000600983815481106112a357634e487b7160e01b600052603260045260246000fd5b60009182526020808320868452600a825260408085203386529092529220600490910290910191506112d484610877565b8054156113215760008160010154600254846003015484600001546112f99190611988565b6113039190611968565b61130d91906119a7565b9050801561131f5761131f33826114f6565b505b82156113c15781546040516323b872dd60e01b8152336004820152306024820152604481018590526001600160a01b03909116906323b872dd90606401602060405180830381600087803b15801561137857600080fd5b505af115801561138c573d6000803e3d6000fd5b505050506040513d601f19601f820116820180604052508101906113b09190611787565b5080546113be908490611950565b81555b600254600383015482546113d59190611988565b6113df9190611968565b6001820155604051838152849033907f90890809c654f11d6e72a28fa60149770a0d11ec6c92319d6ceb2bb0a4ea1a1590602001610da6565b6000546001600160a01b031633146114425760405162461bcd60e51b8152600401610490906118e4565b6001600160a01b0381166114a75760405162461bcd60e51b815260206004820152602660248201527f4f776e61626c653a206e6577206f776e657220697320746865207a65726f206160448201526564647265737360d01b6064820152608401610490565b6114b0816116f3565b50565b6114b0816040516024016114c79190611891565b60408051601f198184030181529190526020810180516001600160e01b031663104c13eb60e21b179052611743565b6003546040516370a0823160e01b81523060048201526000916001600160a01b0316906370a082319060240160206040518083038186803b15801561153a57600080fd5b505afa15801561154e573d6000803e3d6000fd5b505050506040513d601f19601f8201168201806040525081019061157291906117bb565b905060008183111561160b5760035460405163a9059cbb60e01b81526001600160a01b038681166004830152602482018590529091169063a9059cbb90604401602060405180830381600087803b1580156115cc57600080fd5b505af11580156115e0573d6000803e3d6000fd5b505050506040513d601f19601f820116820180604052508101906116049190611787565b9050611694565b60035460405163a9059cbb60e01b81526001600160a01b038681166004830152602482018690529091169063a9059cbb90604401602060405180830381600087803b15801561165957600080fd5b505af115801561166d573d6000803e3d6000fd5b505050506040513d601f19601f820116820180604052508101906116919190611787565b90505b806116ed5760405162461bcd60e51b815260206004820152602360248201527f736166655a6f6469616b5472616e736665723a207472616e73666572206661696044820152621b195960ea1b6064820152608401610490565b50505050565b600080546001600160a01b038381166001600160a01b0319831681178455604051919092169283917f8be0079c531659141344cd1fd0a4f28419497f9722a3daafe3b4186f6b6457e09190a35050565b80516a636f6e736f6c652e6c6f67602083016000808483855afa5050505050565b600060208284031215611775578081fd5b8135611780816119ef565b9392505050565b600060208284031215611798578081fd5b815161178081611a04565b6000602082840312156117b4578081fd5b5035919050565b6000602082840312156117cc578081fd5b5051919050565b600080604083850312156117e5578081fd5b8235915060208301356117f7816119ef565b809150509250929050565b600080600060608486031215611816578081fd5b833592506020840135611828816119ef565b9150604084013561183881611a04565b809150509250925092565b60008060408385031215611855578182fd5b50508035926020909101359150565b600080600060608486031215611878578283fd5b8335925060208401359150604084013561183881611a04565b6000602080835283518082850152825b818110156118bd578581018301518582016040015282016118a1565b818111156118ce5783604083870101525b50601f01601f1916929092016040019392505050565b6020808252818101527f4f776e61626c653a2063616c6c6572206973206e6f7420746865206f776e6572604082015260600190565b6020808252601f908201527f5265656e7472616e637947756172643a207265656e7472616e742063616c6c00604082015260600190565b60008219821115611963576119636119d9565b500190565b60008261198357634e487b7160e01b81526012600452602481fd5b500490565b60008160001904831182151516156119a2576119a26119d9565b500290565b6000828210156119b9576119b96119d9565b500390565b60006000198214156119d2576119d26119d9565b5060010190565b634e487b7160e01b600052601160045260246000fd5b6001600160a01b03811681146114b057600080fd5b80151581146114b057600080fdfea26469706673582212204ec2db9af7169662962e2e52290749710fdcb4863fa46ef38b1b0a8374eba5ea64736f6c63430008040033",
  "linkReferences": {},
  "deployedLinkReferences": {}
}