{
  "_format": "hh-sol-artifact-1",
  "contractName": "GovernanceToken",
  "sourceName": "contracts/GovernanceToken.sol",
  "abi": [
    {
      "inputs": [],
      "stateMutability": "nonpayable",
      "type": "constructor"
    },
    {
      "anonymous": false,
      "inputs": [
        {
          "indexed": true,
          "internalType": "address",
          "name": "owner",
          "type": "address"
        },
        {
          "indexed": true,
          "internalType": "address",
          "name": "spender",
          "type": "address"
        },
        {
          "indexed": false,
          "internalType": "uint256",
          "name": "value",
          "type": "uint256"
        }
      ],
      "name": "Approval",
      "type": "event"
    },
    {
      "anonymous": false,
      "inputs": [
        {
          "indexed": true,
          "internalType": "address",
          "name": "previousOwner",
          "type": "address"
        },
        {
          "indexed": true,
          "internalType": "address",
          "name": "newOwner",
          "type": "address"
        }
      ],
      "name": "OwnershipTransferred",
      "type": "event"
    },
    {
      "anonymous": false,
      "inputs": [
        {
          "indexed": true,
          "internalType": "address",
          "name": "from",
          "type": "address"
        },
        {
          "indexed": true,
          "internalType": "address",
          "name": "to",
          "type": "address"
        },
        {
          "indexed": false,
          "internalType": "uint256",
          "name": "value",
          "type": "uint256"
        }
      ],
      "name": "Transfer",
      "type": "event"
    },
    {
      "inputs": [
        {
          "internalType": "address",
          "name": "owner",
          "type": "address"
        },
        {
          "internalType": "address",
          "name": "spender",
          "type": "address"
        }
      ],
      "name": "allowance",
      "outputs": [
        {
          "internalType": "uint256",
          "name": "",
          "type": "uint256"
        }
      ],
      "stateMutability": "view",
      "type": "function"
    },
    {
      "inputs": [
        {
          "internalType": "address",
          "name": "spender",
          "type": "address"
        },
        {
          "internalType": "uint256",
          "name": "amount",
          "type": "uint256"
        }
      ],
      "name": "approve",
      "outputs": [
        {
          "internalType": "bool",
          "name": "",
          "type": "bool"
        }
      ],
      "stateMutability": "nonpayable",
      "type": "function"
    },
    {
      "inputs": [
        {
          "internalType": "address",
          "name": "account",
          "type": "address"
        }
      ],
      "name": "balanceOf",
      "outputs": [
        {
          "internalType": "uint256",
          "name": "",
          "type": "uint256"
        }
      ],
      "stateMutability": "view",
      "type": "function"
    },
    {
      "inputs": [
        {
          "internalType": "address",
          "name": "newChef",
          "type": "address"
        }
      ],
      "name": "changeMasterchef",
      "outputs": [],
      "stateMutability": "nonpayable",
      "type": "function"
    },
    {
      "inputs": [],
      "name": "decimals",
      "outputs": [
        {
          "internalType": "uint8",
          "name": "",
          "type": "uint8"
        }
      ],
      "stateMutability": "view",
      "type": "function"
    },
    {
      "inputs": [
        {
          "internalType": "address",
          "name": "spender",
          "type": "address"
        },
        {
          "internalType": "uint256",
          "name": "subtractedValue",
          "type": "uint256"
        }
      ],
      "name": "decreaseAllowance",
      "outputs": [
        {
          "internalType": "bool",
          "name": "",
          "type": "bool"
        }
      ],
      "stateMutability": "nonpayable",
      "type": "function"
    },
    {
      "inputs": [
        {
          "internalType": "address",
          "name": "_to",
          "type": "address"
        },
        {
          "internalType": "uint256",
          "name": "_amount",
          "type": "uint256"
        }
      ],
      "name": "emissionMint",
      "outputs": [
        {
          "internalType": "uint256",
          "name": "amount",
          "type": "uint256"
        }
      ],
      "stateMutability": "nonpayable",
      "type": "function"
    },
    {
      "inputs": [
        {
          "internalType": "address",
          "name": "spender",
          "type": "address"
        },
        {
          "internalType": "uint256",
          "name": "addedValue",
          "type": "uint256"
        }
      ],
      "name": "increaseAllowance",
      "outputs": [
        {
          "internalType": "bool",
          "name": "",
          "type": "bool"
        }
      ],
      "stateMutability": "nonpayable",
      "type": "function"
    },
    {
      "inputs": [],
      "name": "masterChef",
      "outputs": [
        {
          "internalType": "address",
          "name": "",
          "type": "address"
        }
      ],
      "stateMutability": "view",
      "type": "function"
    },
    {
      "inputs": [],
      "name": "name",
      "outputs": [
        {
          "internalType": "string",
          "name": "",
          "type": "string"
        }
      ],
      "stateMutability": "view",
      "type": "function"
    },
    {
      "inputs": [],
      "name": "owner",
      "outputs": [
        {
          "internalType": "address",
          "name": "",
          "type": "address"
        }
      ],
      "stateMutability": "view",
      "type": "function"
    },
    {
      "inputs": [],
      "name": "renounceOwnership",
      "outputs": [],
      "stateMutability": "nonpayable",
      "type": "function"
    },
    {
      "inputs": [],
      "name": "startDate",
      "outputs": [
        {
          "internalType": "uint256",
          "name": "",
          "type": "uint256"
        }
      ],
      "stateMutability": "view",
      "type": "function"
    },
    {
      "inputs": [],
      "name": "symbol",
      "outputs": [
        {
          "internalType": "string",
          "name": "",
          "type": "string"
        }
      ],
      "stateMutability": "view",
      "type": "function"
    },
    {
      "inputs": [],
      "name": "totalSupply",
      "outputs": [
        {
          "internalType": "uint256",
          "name": "",
          "type": "uint256"
        }
      ],
      "stateMutability": "view",
      "type": "function"
    },
    {
      "inputs": [
        {
          "internalType": "address",
          "name": "recipient",
          "type": "address"
        },
        {
          "internalType": "uint256",
          "name": "amount",
          "type": "uint256"
        }
      ],
      "name": "transfer",
      "outputs": [
        {
          "internalType": "bool",
          "name": "",
          "type": "bool"
        }
      ],
      "stateMutability": "nonpayable",
      "type": "function"
    },
    {
      "inputs": [
        {
          "internalType": "address",
          "name": "sender",
          "type": "address"
        },
        {
          "internalType": "address",
          "name": "recipient",
          "type": "address"
        },
        {
          "internalType": "uint256",
          "name": "amount",
          "type": "uint256"
        }
      ],
      "name": "transferFrom",
      "outputs": [
        {
          "internalType": "bool",
          "name": "",
          "type": "bool"
        }
      ],
      "stateMutability": "nonpayable",
      "type": "function"
    },
    {
      "inputs": [
        {
          "internalType": "address",
          "name": "newOwner",
          "type": "address"
        }
      ],
      "name": "transferOwnership",
      "outputs": [],
      "stateMutability": "nonpayable",
      "type": "function"
    }
  ],
  "bytecode": "0x60806040523480156200001157600080fd5b506040518060400160405280600e81526020016d5a6f6469616b2046696e616e636560901b815250604051806040016040528060038152602001625a444b60e81b81525081600390805190602001906200006d929190620002cd565b50805162000083906004906020840190620002cd565b505050620000a06200009a6200012060201b60201c565b62000124565b620000db6040518060400160405280600d81526020016c36b4b73a103a37903a32b132b960991b8152506200017660201b620007181760201c565b62000104731fc444e3e4c60e864bfbaa25953b42fa73695cf868056bc75e2d63100000620001c4565b600680546001600160a01b03191633179055426007556200042b565b3390565b600580546001600160a01b038381166001600160a01b0319831681179093556040519116919082907f8be0079c531659141344cd1fd0a4f28419497f9722a3daafe3b4186f6b6457e090600090a35050565b620001c1816040516024016200018d919062000373565b60408051601f198184030181529190526020810180516001600160e01b0390811663104c13eb60e21b17909152620002ac16565b50565b6001600160a01b0382166200021f5760405162461bcd60e51b815260206004820152601f60248201527f45524332303a206d696e7420746f20746865207a65726f206164647265737300604482015260640160405180910390fd5b8060026000828254620002339190620003c9565b90915550506001600160a01b0382166000908152602081905260408120805483929062000262908490620003c9565b90915550506040518181526001600160a01b038316906000907fddf252ad1be2c89b69c2b068fc378daa952ba7f163c4a11628f55a4df523b3ef9060200160405180910390a35050565b80516a636f6e736f6c652e6c6f67602083016000808483855afa5050505050565b828054620002db90620003ee565b90600052602060002090601f016020900481019282620002ff57600085556200034a565b82601f106200031a57805160ff19168380011785556200034a565b828001600101855582156200034a579182015b828111156200034a5782518255916020019190600101906200032d565b50620003589291506200035c565b5090565b5b808211156200035857600081556001016200035d565b6000602080835283518082850152825b81811015620003a15785810183015185820160400152820162000383565b81811115620003b35783604083870101525b50601f01601f1916929092016040019392505050565b60008219821115620003e957634e487b7160e01b81526011600452602481fd5b500190565b600181811c908216806200040357607f821691505b602082108114156200042557634e487b7160e01b600052602260045260246000fd5b50919050565b610ebc806200043b6000396000f3fe608060405234801561001057600080fd5b50600436106101165760003560e01c806370a08231116100a2578063a457c2d711610071578063a457c2d71461023a578063a9059cbb1461024d578063b6a92f9c14610260578063dd62ed3e14610273578063f2fde38b146102ac57600080fd5b806370a08231146101f0578063715018a6146102195780638da5cb5b1461022157806395d89b411461023257600080fd5b806318160ddd116100e957806318160ddd1461018857806323b872dd14610190578063313ce567146101a357806339509351146101b2578063575a86b2146101c557600080fd5b806306fdde031461011b578063095ea7b3146101395780630b97bc861461015c578063168f804914610173575b600080fd5b6101236102bf565b6040516101309190610c73565b60405180910390f35b61014c610147366004610c4a565b610351565b6040519015158152602001610130565b61016560075481565b604051908152602001610130565b610186610181366004610bbc565b610368565b005b600254610165565b61014c61019e366004610c0f565b6103e4565b60405160128152602001610130565b61014c6101c0366004610c4a565b61048e565b6006546101d8906001600160a01b031681565b6040516001600160a01b039091168152602001610130565b6101656101fe366004610bbc565b6001600160a01b031660009081526020819052604090205490565b6101866104ca565b6005546001600160a01b03166101d8565b610123610500565b61014c610248366004610c4a565b61050f565b61014c61025b366004610c4a565b6105a8565b61016561026e366004610c4a565b6105b5565b610165610281366004610bdd565b6001600160a01b03918216600090815260016020908152604080832093909416825291909152205490565b6101866102ba366004610bbc565b610680565b6060600380546102ce90610e35565b80601f01602080910402602001604051908101604052809291908181526020018280546102fa90610e35565b80156103475780601f1061031c57610100808354040283529160200191610347565b820191906000526020600020905b81548152906001019060200180831161032a57829003601f168201915b5050505050905090565b600061035e33848461075b565b5060015b92915050565b6006546001600160a01b031633146103bd5760405162461bcd60e51b8152602060048201526013602482015272554e415554484f52495a45445f4348414e474560681b60448201526064015b60405180910390fd5b600680546001600160a01b0319166001600160a01b0383161790556103e181610680565b50565b60006103f184848461087f565b6001600160a01b0384166000908152600160209081526040808320338452909152902054828110156104765760405162461bcd60e51b815260206004820152602860248201527f45524332303a207472616e7366657220616d6f756e74206578636565647320616044820152676c6c6f77616e636560c01b60648201526084016103b4565b610483853385840361075b565b506001949350505050565b3360008181526001602090815260408083206001600160a01b0387168452909152812054909161035e9185906104c5908690610cfb565b61075b565b6005546001600160a01b031633146104f45760405162461bcd60e51b81526004016103b490610cc6565b6104fe6000610a4e565b565b6060600480546102ce90610e35565b3360009081526001602090815260408083206001600160a01b0386168452909152812054828110156105915760405162461bcd60e51b815260206004820152602560248201527f45524332303a2064656372656173656420616c6c6f77616e63652062656c6f77604482015264207a65726f60d81b60648201526084016103b4565b61059e338585840361075b565b5060019392505050565b600061035e33848461087f565b6005546000906001600160a01b031633146105e25760405162461bcd60e51b81526004016103b490610cc6565b60075442116106285760405162461bcd60e51b815260206004820152601260248201527143414e4e4f545f5245564552545f54494d4560701b60448201526064016103b4565b600061016d620151806007544261063f9190610e1e565b6106499190610d13565b6106539190610d13565b90506000610662826002610d76565b61066c9085610d13565b90506106788582610aa0565b949350505050565b6005546001600160a01b031633146106aa5760405162461bcd60e51b81526004016103b490610cc6565b6001600160a01b03811661070f5760405162461bcd60e51b815260206004820152602660248201527f4f776e61626c653a206e6577206f776e657220697320746865207a65726f206160448201526564647265737360d01b60648201526084016103b4565b6103e181610a4e565b6103e18160405160240161072c9190610c73565b60408051601f198184030181529190526020810180516001600160e01b031663104c13eb60e21b179052610b7f565b6001600160a01b0383166107bd5760405162461bcd60e51b8152602060048201526024808201527f45524332303a20617070726f76652066726f6d20746865207a65726f206164646044820152637265737360e01b60648201526084016103b4565b6001600160a01b03821661081e5760405162461bcd60e51b815260206004820152602260248201527f45524332303a20617070726f766520746f20746865207a65726f206164647265604482015261737360f01b60648201526084016103b4565b6001600160a01b0383811660008181526001602090815260408083209487168084529482529182902085905590518481527f8c5be1e5ebec7d5bd14f71427d1e84f3dd0314c0f7b2291e5b200ac8c7c3b925910160405180910390a3505050565b6001600160a01b0383166108e35760405162461bcd60e51b815260206004820152602560248201527f45524332303a207472616e736665722066726f6d20746865207a65726f206164604482015264647265737360d81b60648201526084016103b4565b6001600160a01b0382166109455760405162461bcd60e51b815260206004820152602360248201527f45524332303a207472616e7366657220746f20746865207a65726f206164647260448201526265737360e81b60648201526084016103b4565b6001600160a01b038316600090815260208190526040902054818110156109bd5760405162461bcd60e51b815260206004820152602660248201527f45524332303a207472616e7366657220616d6f756e7420657863656564732062604482015265616c616e636560d01b60648201526084016103b4565b6001600160a01b038085166000908152602081905260408082208585039055918516815290812080548492906109f4908490610cfb565b92505081905550826001600160a01b0316846001600160a01b03167fddf252ad1be2c89b69c2b068fc378daa952ba7f163c4a11628f55a4df523b3ef84604051610a4091815260200190565b60405180910390a350505050565b600580546001600160a01b038381166001600160a01b0319831681179093556040519116919082907f8be0079c531659141344cd1fd0a4f28419497f9722a3daafe3b4186f6b6457e090600090a35050565b6001600160a01b038216610af65760405162461bcd60e51b815260206004820152601f60248201527f45524332303a206d696e7420746f20746865207a65726f20616464726573730060448201526064016103b4565b8060026000828254610b089190610cfb565b90915550506001600160a01b03821660009081526020819052604081208054839290610b35908490610cfb565b90915550506040518181526001600160a01b038316906000907fddf252ad1be2c89b69c2b068fc378daa952ba7f163c4a11628f55a4df523b3ef9060200160405180910390a35050565b80516a636f6e736f6c652e6c6f67602083016000808483855afa5050505050565b80356001600160a01b0381168114610bb757600080fd5b919050565b600060208284031215610bcd578081fd5b610bd682610ba0565b9392505050565b60008060408385031215610bef578081fd5b610bf883610ba0565b9150610c0660208401610ba0565b90509250929050565b600080600060608486031215610c23578081fd5b610c2c84610ba0565b9250610c3a60208501610ba0565b9150604084013590509250925092565b60008060408385031215610c5c578182fd5b610c6583610ba0565b946020939093013593505050565b6000602080835283518082850152825b81811015610c9f57858101830151858201604001528201610c83565b81811115610cb05783604083870101525b50601f01601f1916929092016040019392505050565b6020808252818101527f4f776e61626c653a2063616c6c6572206973206e6f7420746865206f776e6572604082015260600190565b60008219821115610d0e57610d0e610e70565b500190565b600082610d2e57634e487b7160e01b81526012600452602481fd5b500490565b600181815b80851115610d6e578160001904821115610d5457610d54610e70565b80851615610d6157918102915b93841c9390800290610d38565b509250929050565b6000610bd68383600082610d8c57506001610362565b81610d9957506000610362565b8160018114610daf5760028114610db957610dd5565b6001915050610362565b60ff841115610dca57610dca610e70565b50506001821b610362565b5060208310610133831016604e8410600b8410161715610df8575081810a610362565b610e028383610d33565b8060001904821115610e1657610e16610e70565b029392505050565b600082821015610e3057610e30610e70565b500390565b600181811c90821680610e4957607f821691505b60208210811415610e6a57634e487b7160e01b600052602260045260246000fd5b50919050565b634e487b7160e01b600052601160045260246000fdfea264697066735822122081a3601fee02efa55e1cae5e66d4c1b5628cf385d3a11772864a406e0d500a2664736f6c63430008040033",
  "linkReferences": {},
  "deployedLinkReferences": {}
}