{
  "_format": "hh-sol-artifact-1",
  "contractName": "VMMRouter",
  "sourceName": "contracts/VMMRouter.sol",
  "abi": [
    {
      "anonymous": false,
      "inputs": [
        {
          "indexed": true,
          "internalType": "address",
          "name": "previousOwner",
          "type": "address"
        },
        {
          "indexed": true,
          "internalType": "address",
          "name": "newOwner",
          "type": "address"
        }
      ],
      "name": "OwnershipTransferred",
      "type": "event"
    },
    {
      "inputs": [
        {
          "internalType": "address",
          "name": "swapPair",
          "type": "address"
        },
        {
          "internalType": "address",
          "name": "swapRouter",
          "type": "address"
        },
        {
          "internalType": "string",
          "name": "amm",
          "type": "string"
        }
      ],
      "name": "createPool",
      "outputs": [
        {
          "internalType": "address",
          "name": "poolAddress",
          "type": "address"
        }
      ],
      "stateMutability": "nonpayable",
      "type": "function"
    },
    {
      "inputs": [],
      "name": "factoryAddress",
      "outputs": [
        {
          "internalType": "address",
          "name": "",
          "type": "address"
        }
      ],
      "stateMutability": "view",
      "type": "function"
    },
    {
      "inputs": [],
      "name": "getPoolCount",
      "outputs": [
        {
          "internalType": "uint256",
          "name": "poolCount",
          "type": "uint256"
        }
      ],
      "stateMutability": "view",
      "type": "function"
    },
    {
      "inputs": [],
      "name": "owner",
      "outputs": [
        {
          "internalType": "address",
          "name": "",
          "type": "address"
        }
      ],
      "stateMutability": "view",
      "type": "function"
    },
    {
      "inputs": [
        {
          "internalType": "address",
          "name": "",
          "type": "address"
        }
      ],
      "name": "pairToPool",
      "outputs": [
        {
          "internalType": "address",
          "name": "",
          "type": "address"
        }
      ],
      "stateMutability": "view",
      "type": "function"
    },
    {
      "inputs": [],
      "name": "poolVersion",
      "outputs": [
        {
          "internalType": "uint8",
          "name": "",
          "type": "uint8"
        }
      ],
      "stateMutability": "view",
      "type": "function"
    },
    {
      "inputs": [],
      "name": "renounceOwnership",
      "outputs": [],
      "stateMutability": "nonpayable",
      "type": "function"
    },
    {
      "inputs": [
        {
          "internalType": "address",
          "name": "newOwner",
          "type": "address"
        }
      ],
      "name": "transferOwnership",
      "outputs": [],
      "stateMutability": "nonpayable",
      "type": "function"
    },
    {
      "inputs": [
        {
          "internalType": "address",
          "name": "newFactoryAddress",
          "type": "address"
        }
      ],
      "name": "updateFactory",
      "outputs": [],
      "stateMutability": "nonpayable",
      "type": "function"
    },
    {
      "inputs": [
        {
          "internalType": "address",
          "name": "swapPair",
          "type": "address"
        },
        {
          "internalType": "address",
          "name": "swapRouter",
          "type": "address"
        },
        {
          "internalType": "string",
          "name": "amm",
          "type": "string"
        }
      ],
      "name": "updatePool",
      "outputs": [
        {
          "internalType": "address",
          "name": "poolAddress",
          "type": "address"
        }
      ],
      "stateMutability": "nonpayable",
      "type": "function"
    },
    {
      "inputs": [
        {
          "internalType": "uint256",
          "name": "",
          "type": "uint256"
        }
      ],
      "name": "vmmPoolList",
      "outputs": [
        {
          "internalType": "address",
          "name": "",
          "type": "address"
        }
      ],
      "stateMutability": "view",
      "type": "function"
    }
  ],
  "bytecode": "0x60806040526001805460ff60a01b1916600160a01b17905534801561002357600080fd5b5061002d33610032565b610082565b600080546001600160a01b038381166001600160a01b0319831681178455604051919092169283917f8be0079c531659141344cd1fd0a4f28419497f9722a3daafe3b4186f6b6457e09190a35050565b6107cf806100916000396000f3fe608060405234801561001057600080fd5b50600436106100a95760003560e01c80638eec5d70116100715780638eec5d7014610135578063966dae0e14610146578063d9f165dc14610159578063da8157311461016c578063f1935fac14610192578063f2fde38b146101a557600080fd5b806323194168146100ae5780633206dcd1146100de5780634b21a7c114610107578063715018a61461011a5780638da5cb5b14610124575b600080fd5b6100c16100bc36600461059a565b6101b8565b6040516001600160a01b0390911681526020015b60405180910390f35b6100c16100ec36600461055b565b6003602052600090815260409020546001600160a01b031681565b6100c161011536600461066b565b6102e2565b61012261030c565b005b6000546001600160a01b03166100c1565b6002546040519081526020016100d5565b6001546100c1906001600160a01b031681565b61012261016736600461055b565b610342565b60015461018090600160a01b900460ff1681565b60405160ff90911681526020016100d5565b6100c16101a036600461059a565b6103af565b6101226101b336600461055b565b610411565b600080546001600160a01b031633146101ec5760405162461bcd60e51b81526004016101e390610716565b60405180910390fd5b600154604051633c64d7eb60e21b81526000916001600160a01b03169063f1935fac90610221908890889088906004016106ce565b602060405180830381600087803b15801561023b57600080fd5b505af115801561024f573d6000803e3d6000fd5b505050506040513d601f19601f82011682018060405250810190610273919061057e565b60028054600181019091557f405787fa12a823e0f2b7631cc41b3ba8828b3321ca811111fa75cd3aa3bb5ace0180546001600160a01b038084166001600160a01b0319928316811790935588166000908152600360205260409020805490911690911790559150509392505050565b600281815481106102f257600080fd5b6000918252602090912001546001600160a01b0316905081565b6000546001600160a01b031633146103365760405162461bcd60e51b81526004016101e390610716565b61034060006104ac565b565b6000546001600160a01b0316331461036c5760405162461bcd60e51b81526004016101e390610716565b61038d604051806060016040528060238152602001610777602391396104fc565b600180546001600160a01b0319166001600160a01b0392909216919091179055565b6001600160a01b03838116600090815260036020526040812054909116156101ec5760405162461bcd60e51b81526020600482015260156024820152744d41524b45545f414c52454144595f45584953545360581b60448201526064016101e3565b6000546001600160a01b0316331461043b5760405162461bcd60e51b81526004016101e390610716565b6001600160a01b0381166104a05760405162461bcd60e51b815260206004820152602660248201527f4f776e61626c653a206e6577206f776e657220697320746865207a65726f206160448201526564647265737360d01b60648201526084016101e3565b6104a9816104ac565b50565b600080546001600160a01b038381166001600160a01b0319831681178455604051919092169283917f8be0079c531659141344cd1fd0a4f28419497f9722a3daafe3b4186f6b6457e09190a35050565b6104a9816040516024016105109190610703565b60408051601f198184030181529190526020810180516001600160e01b031663104c13eb60e21b17905280516a636f6e736f6c652e6c6f67602083016000808483855afa5050505050565b60006020828403121561056c578081fd5b813561057781610761565b9392505050565b60006020828403121561058f578081fd5b815161057781610761565b6000806000606084860312156105ae578182fd5b83356105b981610761565b925060208401356105c981610761565b9150604084013567ffffffffffffffff808211156105e5578283fd5b818601915086601f8301126105f8578283fd5b81358181111561060a5761060a61074b565b604051601f8201601f19908116603f011681019083821181831017156106325761063261074b565b8160405282815289602084870101111561064a578586fd5b82602086016020830137856020848301015280955050505050509250925092565b60006020828403121561067c578081fd5b5035919050565b60008151808452815b818110156106a85760208185018101518683018201520161068c565b818111156106b95782602083870101525b50601f01601f19169290920160200192915050565b6001600160a01b038481168252831660208201526060604082018190526000906106fa90830184610683565b95945050505050565b6020815260006105776020830184610683565b6020808252818101527f4f776e61626c653a2063616c6c6572206973206e6f7420746865206f776e6572604082015260600190565b634e487b7160e01b600052604160045260246000fd5b6001600160a01b03811681146104a957600080fdfe666163746f727941646472657373203d206e6577466163746f72793541646472657373a264697066735822122021730c6f6ef25be80ddd4c8857442af2c5cdadcaa6ad465da2f90c3a8ee2ff3d64736f6c63430008040033",
  "linkReferences": {},
  "deployedLinkReferences": {}
}