{
  "_format": "hh-sol-artifact-1",
  "contractName": "MasterDiver",
  "sourceName": "contracts/MasterDiver.sol",
  "abi": [
    {
      "inputs": [
        {
          "internalType": "contract Erc20Scuba",
          "name": "_scuba",
          "type": "address"
        },
        {
          "internalType": "address",
          "name": "_founderAddress",
          "type": "address"
        },
        {
          "internalType": "address",
          "name": "_treasuryAddress",
          "type": "address"
        },
        {
          "internalType": "address",
          "name": "_stakingAddress",
          "type": "address"
        }
      ],
      "stateMutability": "nonpayable",
      "type": "constructor"
    },
    {
      "anonymous": false,
      "inputs": [
        {
          "indexed": true,
          "internalType": "address",
          "name": "user",
          "type": "address"
        },
        {
          "indexed": true,
          "internalType": "uint256",
          "name": "pid",
          "type": "uint256"
        },
        {
          "indexed": false,
          "internalType": "uint256",
          "name": "amount",
          "type": "uint256"
        }
      ],
      "name": "Deposit",
      "type": "event"
    },
    {
      "anonymous": false,
      "inputs": [
        {
          "indexed": true,
          "internalType": "address",
          "name": "user",
          "type": "address"
        },
        {
          "indexed": true,
          "internalType": "uint256",
          "name": "pid",
          "type": "uint256"
        },
        {
          "indexed": false,
          "internalType": "uint256",
          "name": "amount",
          "type": "uint256"
        }
      ],
      "name": "EmergencyWithdraw",
      "type": "event"
    },
    {
      "anonymous": false,
      "inputs": [
        {
          "indexed": true,
          "internalType": "address",
          "name": "previousOwner",
          "type": "address"
        },
        {
          "indexed": true,
          "internalType": "address",
          "name": "newOwner",
          "type": "address"
        }
      ],
      "name": "OwnershipTransferred",
      "type": "event"
    },
    {
      "anonymous": false,
      "inputs": [
        {
          "indexed": true,
          "internalType": "address",
          "name": "user",
          "type": "address"
        },
        {
          "indexed": true,
          "internalType": "address",
          "name": "newAddress",
          "type": "address"
        }
      ],
      "name": "SetTreasuryAddress",
      "type": "event"
    },
    {
      "anonymous": false,
      "inputs": [
        {
          "indexed": true,
          "internalType": "address",
          "name": "user",
          "type": "address"
        },
        {
          "indexed": true,
          "internalType": "uint256",
          "name": "pid",
          "type": "uint256"
        },
        {
          "indexed": false,
          "internalType": "uint256",
          "name": "amount",
          "type": "uint256"
        }
      ],
      "name": "Withdraw",
      "type": "event"
    },
    {
      "inputs": [],
      "name": "Scuba",
      "outputs": [
        {
          "internalType": "contract Erc20Scuba",
          "name": "",
          "type": "address"
        }
      ],
      "stateMutability": "view",
      "type": "function"
    },
    {
      "inputs": [
        {
          "internalType": "uint256",
          "name": "_allocPoint",
          "type": "uint256"
        },
        {
          "internalType": "contract ERC20",
          "name": "_lpToken",
          "type": "address"
        },
        {
          "internalType": "bool",
          "name": "_withUpdate",
          "type": "bool"
        }
      ],
      "name": "add",
      "outputs": [],
      "stateMutability": "nonpayable",
      "type": "function"
    },
    {
      "inputs": [
        {
          "internalType": "uint256",
          "name": "_pid",
          "type": "uint256"
        },
        {
          "internalType": "uint256",
          "name": "_amount",
          "type": "uint256"
        }
      ],
      "name": "deposit",
      "outputs": [],
      "stateMutability": "nonpayable",
      "type": "function"
    },
    {
      "inputs": [
        {
          "internalType": "address",
          "name": "_founderAddress",
          "type": "address"
        }
      ],
      "name": "dev",
      "outputs": [],
      "stateMutability": "nonpayable",
      "type": "function"
    },
    {
      "inputs": [],
      "name": "devaddr",
      "outputs": [
        {
          "internalType": "address",
          "name": "",
          "type": "address"
        }
      ],
      "stateMutability": "view",
      "type": "function"
    },
    {
      "inputs": [
        {
          "internalType": "uint256",
          "name": "_pid",
          "type": "uint256"
        }
      ],
      "name": "emergencyWithdraw",
      "outputs": [],
      "stateMutability": "nonpayable",
      "type": "function"
    },
    {
      "inputs": [],
      "name": "founderAddress",
      "outputs": [
        {
          "internalType": "address",
          "name": "",
          "type": "address"
        }
      ],
      "stateMutability": "view",
      "type": "function"
    },
    {
      "inputs": [],
      "name": "massUpdatePools",
      "outputs": [],
      "stateMutability": "nonpayable",
      "type": "function"
    },
    {
      "inputs": [],
      "name": "owner",
      "outputs": [
        {
          "internalType": "address",
          "name": "",
          "type": "address"
        }
      ],
      "stateMutability": "view",
      "type": "function"
    },
    {
      "inputs": [
        {
          "internalType": "uint256",
          "name": "_pid",
          "type": "uint256"
        },
        {
          "internalType": "address",
          "name": "_user",
          "type": "address"
        }
      ],
      "name": "pendingScuba",
      "outputs": [
        {
          "internalType": "uint256",
          "name": "",
          "type": "uint256"
        }
      ],
      "stateMutability": "view",
      "type": "function"
    },
    {
      "inputs": [
        {
          "internalType": "contract ERC20",
          "name": "",
          "type": "address"
        }
      ],
      "name": "poolExistence",
      "outputs": [
        {
          "internalType": "bool",
          "name": "",
          "type": "bool"
        }
      ],
      "stateMutability": "view",
      "type": "function"
    },
    {
      "inputs": [
        {
          "internalType": "contract ERC20",
          "name": "",
          "type": "address"
        }
      ],
      "name": "poolId",
      "outputs": [
        {
          "internalType": "uint256",
          "name": "",
          "type": "uint256"
        }
      ],
      "stateMutability": "view",
      "type": "function"
    },
    {
      "inputs": [
        {
          "internalType": "uint256",
          "name": "",
          "type": "uint256"
        }
      ],
      "name": "poolInfo",
      "outputs": [
        {
          "internalType": "contract ERC20",
          "name": "lpToken",
          "type": "address"
        },
        {
          "internalType": "uint256",
          "name": "allocPoint",
          "type": "uint256"
        },
        {
          "internalType": "uint256",
          "name": "lastRewardDate",
          "type": "uint256"
        },
        {
          "internalType": "uint256",
          "name": "accScubaPerShare",
          "type": "uint256"
        }
      ],
      "stateMutability": "view",
      "type": "function"
    },
    {
      "inputs": [],
      "name": "poolLength",
      "outputs": [
        {
          "internalType": "uint256",
          "name": "",
          "type": "uint256"
        }
      ],
      "stateMutability": "view",
      "type": "function"
    },
    {
      "inputs": [],
      "name": "renounceOwnership",
      "outputs": [],
      "stateMutability": "nonpayable",
      "type": "function"
    },
    {
      "inputs": [],
      "name": "scubaPerSecond",
      "outputs": [
        {
          "internalType": "uint256",
          "name": "",
          "type": "uint256"
        }
      ],
      "stateMutability": "view",
      "type": "function"
    },
    {
      "inputs": [
        {
          "internalType": "uint256",
          "name": "_pid",
          "type": "uint256"
        },
        {
          "internalType": "uint256",
          "name": "_allocPoint",
          "type": "uint256"
        },
        {
          "internalType": "bool",
          "name": "_withUpdate",
          "type": "bool"
        }
      ],
      "name": "set",
      "outputs": [],
      "stateMutability": "nonpayable",
      "type": "function"
    },
    {
      "inputs": [
        {
          "internalType": "uint256",
          "name": "_startDate",
          "type": "uint256"
        }
      ],
      "name": "setStartDate",
      "outputs": [],
      "stateMutability": "nonpayable",
      "type": "function"
    },
    {
      "inputs": [
        {
          "internalType": "address",
          "name": "_treasuryAddress",
          "type": "address"
        }
      ],
      "name": "setTreasuryAddress",
      "outputs": [],
      "stateMutability": "nonpayable",
      "type": "function"
    },
    {
      "inputs": [],
      "name": "stakingAddress",
      "outputs": [
        {
          "internalType": "address",
          "name": "",
          "type": "address"
        }
      ],
      "stateMutability": "view",
      "type": "function"
    },
    {
      "inputs": [],
      "name": "startDate",
      "outputs": [
        {
          "internalType": "uint256",
          "name": "",
          "type": "uint256"
        }
      ],
      "stateMutability": "view",
      "type": "function"
    },
    {
      "inputs": [],
      "name": "totalAllocPoint",
      "outputs": [
        {
          "internalType": "uint256",
          "name": "",
          "type": "uint256"
        }
      ],
      "stateMutability": "view",
      "type": "function"
    },
    {
      "inputs": [
        {
          "internalType": "address",
          "name": "newOwner",
          "type": "address"
        }
      ],
      "name": "transferOwnership",
      "outputs": [],
      "stateMutability": "nonpayable",
      "type": "function"
    },
    {
      "inputs": [],
      "name": "treasuryAddress",
      "outputs": [
        {
          "internalType": "address",
          "name": "",
          "type": "address"
        }
      ],
      "stateMutability": "view",
      "type": "function"
    },
    {
      "inputs": [
        {
          "internalType": "uint256",
          "name": "_pid",
          "type": "uint256"
        }
      ],
      "name": "updatePool",
      "outputs": [],
      "stateMutability": "nonpayable",
      "type": "function"
    },
    {
      "inputs": [
        {
          "internalType": "uint256",
          "name": "",
          "type": "uint256"
        },
        {
          "internalType": "address",
          "name": "",
          "type": "address"
        }
      ],
      "name": "userInfo",
      "outputs": [
        {
          "internalType": "uint256",
          "name": "amount",
          "type": "uint256"
        },
        {
          "internalType": "uint256",
          "name": "rewardDebt",
          "type": "uint256"
        }
      ],
      "stateMutability": "view",
      "type": "function"
    },
    {
      "inputs": [
        {
          "internalType": "uint256",
          "name": "_pid",
          "type": "uint256"
        },
        {
          "internalType": "uint256",
          "name": "_amount",
          "type": "uint256"
        }
      ],
      "name": "withdraw",
      "outputs": [],
      "stateMutability": "nonpayable",
      "type": "function"
    }
  ],
  "bytecode": "0x608060405264e8d4a510006002556200005661016d620000426201518062000042670de0b6b3a76400006302faf0806200013260201b6200149d1790919060201c565b6200014760201b620014b01790919060201c565b6005556000600b553480156200006b57600080fd5b5060405162001da538038062001da58339810160408190526200008e9162000214565b620000993362000155565b60018081905550620000de6040518060400160405280601081526020016f645f666f756e6465724164647265737360801b815250620001a560201b620014bc1760201c565b600380546001600160a01b039586166001600160a01b031991821617909155600780549486169482169490941790935560068054928516928416929092179091556008805491909316911617905562000334565b6000620001408284620002f2565b9392505050565b6000620001408284620002d1565b600080546001600160a01b038381166001600160a01b0319831681178455604051919092169283917f8be0079c531659141344cd1fd0a4f28419497f9722a3daafe3b4186f6b6457e09190a35050565b620001f081604051602401620001bc91906200027b565b60408051601f198184030181529190526020810180516001600160e01b0390811663104c13eb60e21b17909152620001f316565b50565b80516a636f6e736f6c652e6c6f67602083016000808483855afa5050505050565b600080600080608085870312156200022a578384fd5b845162000237816200031e565b60208601519094506200024a816200031e565b60408601519093506200025d816200031e565b606086015190925062000270816200031e565b939692955090935050565b6000602080835283518082850152825b81811015620002a9578581018301518582016040015282016200028b565b81811115620002bb5783604083870101525b50601f01601f1916929092016040019392505050565b600082620002ed57634e487b7160e01b81526012600452602481fd5b500490565b60008160001904831182151516156200031957634e487b7160e01b81526011600452602481fd5b500290565b6001600160a01b0381168114620001f057600080fd5b611a6180620003446000396000f3fe608060405234801561001057600080fd5b50600436106101a95760003560e01c806369b732b8116100f9578063c5f956af11610097578063d7b4be2411610071578063d7b4be24146103c9578063e2bbb158146103dc578063f2fde38b146103ef578063ff51a2721461040257600080fd5b8063c5f956af14610370578063cbd258b514610383578063d49e77cd146103b657600080fd5b80638d88a90e116100d35780638d88a90e146102f25780638da5cb5b1461030557806393f1a40b14610316578063a613bd8c1461035d57600080fd5b806369b732b8146102ce578063715018a6146102d757806382d95df5146102df57600080fd5b806346bb28331161016657806362ba4d7b1161014057806362ba4d7b1461028d578063630b5ba1146102a057806364482f79146102a85780636605bfda146102bb57600080fd5b806346bb28331461023c57806351eb05a6146102675780635312ea8e1461027a57600080fd5b8063081e3eda146101ae5780630b97bc86146101c55780631526fe27146101ce57806317caf6f11461020b5780631eaaa04514610214578063441a3e7014610229575b600080fd5b6009545b6040519081526020015b60405180910390f35b6101b2600c5481565b6101e16101dc3660046117bc565b610422565b604080516001600160a01b03909516855260208501939093529183015260608201526080016101bc565b6101b2600b5481565b61022761022236600461181b565b610466565b005b61022761023736600461185c565b61066f565b60075461024f906001600160a01b031681565b6040516001600160a01b0390911681526020016101bc565b6102276102753660046117bc565b610876565b6102276102883660046117bc565b610c68565b6101b261029b3660046117ec565b610db5565b610227610f33565b6102276102b636600461187d565b610f5e565b6102276102c9366004611784565b611029565b6101b260055481565b6102276110cf565b6102276102ed3660046117bc565b611105565b610227610300366004611784565b6111e4565b6000546001600160a01b031661024f565b6103486103243660046117ec565b600a6020908152600092835260408084209091529082529020805460019091015482565b604080519283526020830191909152016101bc565b60035461024f906001600160a01b031681565b60065461024f906001600160a01b031681565b6103a6610391366004611784565b600e6020526000908152604090205460ff1681565b60405190151581526020016101bc565b60045461024f906001600160a01b031681565b60085461024f906001600160a01b031681565b6102276103ea36600461185c565b61124c565b6102276103fd366004611784565b611402565b6101b2610410366004611784565b600d6020526000908152604090205481565b6009818154811061043257600080fd5b600091825260209091206004909102018054600182015460028301546003909301546001600160a01b039092169350919084565b6000546001600160a01b031633146104995760405162461bcd60e51b8152600401610490906118fd565b60405180910390fd5b6001600160a01b0382166000908152600e6020526040902054829060ff16156105045760405162461bcd60e51b815260206004820152601a60248201527f6e6f6e4475706c6963617465643a206475706c6963617465642d0000000000006044820152606401610490565b811561051257610512610f33565b6000600c54421161052557600c54610527565b425b600b5490915061053790866114ff565b600b556001600160a01b038481166000818152600e602090815260408083208054600160ff19909116811790915581516080810183529485529184018a8152908401868152606085018481526009805480860182559581905295517f6e1540171b6c0c960b71a7020d9f60077f6af931a8bbf590da0223dacf75c7af600490960295860180546001600160a01b031916919098161790965590517f6e1540171b6c0c960b71a7020d9f60077f6af931a8bbf590da0223dacf75c7b0840155517f6e1540171b6c0c960b71a7020d9f60077f6af931a8bbf590da0223dacf75c7b183015592517f6e1540171b6c0c960b71a7020d9f60077f6af931a8bbf590da0223dacf75c7b2909101555461064c91906119c0565b6001600160a01b039094166000908152600d602052604090209390935550505050565b600260015414156106925760405162461bcd60e51b815260040161049090611932565b60026001819055506000600983815481106106bd57634e487b7160e01b600052603260045260246000fd5b60009182526020808320868452600a82526040808520338652909252922080546004909202909201925083111561072b5760405162461bcd60e51b81526020600482015260126024820152711dda5d1a191c985dce881b9bdd0819dbdbd960721b6044820152606401610490565b61073484610876565b600061076b826001015461076560025461075f8760030154876000015461149d90919063ffffffff16565b906114b0565b9061150b565b9050801561077d5761077d3382611517565b831561081657815461078f908561150b565b8255825460405163a9059cbb60e01b8152336004820152602481018690526001600160a01b039091169063a9059cbb90604401602060405180830381600087803b1580156107dc57600080fd5b505af11580156107f0573d6000803e3d6000fd5b505050506040513d601f19601f8201168201806040525081019061081491906117a0565b505b6002546003840154835461082f929161075f919061149d565b6001830155604051848152859033907ff279e6a1f5e320cca91135676d9cb6e44ca8a08c0b88342bcdb1144f6511b5689060200160405180910390a3505060018055505050565b60006009828154811061089957634e487b7160e01b600052603260045260246000fd5b90600052602060002090600402019050806002015442116108b8575050565b80546040516370a0823160e01b81523060048201526000916001600160a01b0316906370a082319060240160206040518083038186803b1580156108fb57600080fd5b505afa15801561090f573d6000803e3d6000fd5b505050506040513d601f19601f8201168201806040525081019061093391906117d4565b905080158061094457506001820154155b1561095457504260029091015550565b600061096d83600201544261150b90919063ffffffff16565b9050600061099a600b5461075f86600101546109946005548761149d90919063ffffffff16565b9061149d565b6003546006549192506001600160a01b039081169163b6a92f9c91166109c18460146114b0565b6040516001600160e01b031960e085901b1681526001600160a01b0390921660048301526024820152604401602060405180830381600087803b158015610a0757600080fd5b505af1158015610a1b573d6000803e3d6000fd5b505050506040513d601f19601f82011682018060405250810190610a3f91906117d4565b506003546007546001600160a01b039182169163b6a92f9c9116610a648460146114b0565b6040516001600160e01b031960e085901b1681526001600160a01b0390921660048301526024820152604401602060405180830381600087803b158015610aaa57600080fd5b505af1158015610abe573d6000803e3d6000fd5b505050506040513d601f19601f82011682018060405250810190610ae291906117d4565b506003546008546001600160a01b039182169163b6a92f9c9116610b0784600a6114b0565b6040516001600160e01b031960e085901b1681526001600160a01b0390921660048301526024820152604401602060405180830381600087803b158015610b4d57600080fd5b505af1158015610b61573d6000803e3d6000fd5b505050506040513d601f19601f82011682018060405250810190610b8591906117d4565b506003546000906001600160a01b031663b6a92f9c30610bab600a61075f87600861149d565b6040516001600160e01b031960e085901b1681526001600160a01b0390921660048301526024820152604401602060405180830381600087803b158015610bf157600080fd5b505af1158015610c05573d6000803e3d6000fd5b505050506040513d601f19601f82011682018060405250810190610c2991906117d4565b9050610c52610c478561075f6002548561149d90919063ffffffff16565b6003870154906114ff565b6003860155505042600290930192909255505050565b60026001541415610c8b5760405162461bcd60e51b815260040161049090611932565b6002600181905550600060098281548110610cb657634e487b7160e01b600052603260045260246000fd5b60009182526020808320858452600a825260408085203380875293528085208054868255600182019690965560049485029092018054915163a9059cbb60e01b8152948501939093526024840185905291945092916001600160a01b039091169063a9059cbb90604401602060405180830381600087803b158015610d3a57600080fd5b505af1158015610d4e573d6000803e3d6000fd5b505050506040513d601f19601f82011682018060405250810190610d7291906117a0565b50604051818152849033907fbb757047c2b5f3974fe26b7c10f732e7bce710b0952a71082702781e62ae0595906020015b60405180910390a35050600180555050565b60008060098481548110610dd957634e487b7160e01b600052603260045260246000fd5b60009182526020808320878452600a825260408085206001600160a01b038981168752935280852060049485029092016003810154815492516370a0823160e01b8152309681019690965290965091949193919216906370a082319060240160206040518083038186803b158015610e5057600080fd5b505afa158015610e64573d6000803e3d6000fd5b505050506040513d601f19601f82011682018060405250810190610e8891906117d4565b9050836002015442118015610e9c57508015155b15610f0b576000610eba85600201544261150b90919063ffffffff16565b90506000610ee1600b5461075f88600101546109946005548761149d90919063ffffffff16565b9050610f06610eff8461075f6002548561149d90919063ffffffff16565b85906114ff565b935050505b60018301546002548454610f2892916107659161075f908761149d565b979650505050505050565b60095460005b81811015610f5a57610f4a81610876565b610f53816119d7565b9050610f39565b5050565b6000546001600160a01b03163314610f885760405162461bcd60e51b8152600401610490906118fd565b8015610f9657610f96610f33565b610fe782610fe160098681548110610fbe57634e487b7160e01b600052603260045260246000fd5b906000526020600020906004020160010154600b5461150b90919063ffffffff16565b906114ff565b600b81905550816009848154811061100f57634e487b7160e01b600052603260045260246000fd5b906000526020600020906004020160010181905550505050565b6006546001600160a01b031633146110835760405162461bcd60e51b815260206004820152601d60248201527f7365745472656173757279416464726573733a20464f5242494444454e0000006044820152606401610490565b600680546001600160a01b0319166001600160a01b03831690811790915560405133907f61885cdba916be748ff3e3f6f15e4206153b8ea3b7acabade9d04b4063a8351090600090a350565b6000546001600160a01b031633146110f95760405162461bcd60e51b8152600401610490906118fd565b6111036000611713565b565b6000546001600160a01b0316331461112f5760405162461bcd60e51b8152600401610490906118fd565b600c54156111725760405162461bcd60e51b815260206004820152601060248201526f616c726561647920737461727465642160801b6044820152606401610490565b61117d4260c8611969565b81116111df5760405162461bcd60e51b815260206004820152602b60248201527f737461727420626c6f636b2068617320746f206265206675727468657220696e60448201526a207468652066757475726560a81b6064820152608401610490565b600c55565b6007546001600160a01b0316331461122a5760405162461bcd60e51b81526020600482015260096024820152686465763a207775743f60b81b6044820152606401610490565b600780546001600160a01b0319166001600160a01b0392909216919091179055565b6002600154141561126f5760405162461bcd60e51b815260040161049090611932565b600260018190555060006009838154811061129a57634e487b7160e01b600052603260045260246000fd5b60009182526020808320868452600a825260408085203386529092529220600490910290910191506112cb84610876565b8054156113115760006112fd826001015461076560025461075f8760030154876000015461149d90919063ffffffff16565b9050801561130f5761130f3382611517565b505b82156113b05781546040516323b872dd60e01b8152336004820152306024820152604481018590526001600160a01b03909116906323b872dd90606401602060405180830381600087803b15801561136857600080fd5b505af115801561137c573d6000803e3d6000fd5b505050506040513d601f19601f820116820180604052508101906113a091906117a0565b5080546113ad90846114ff565b81555b600254600383015482546113c9929161075f919061149d565b6001820155604051838152849033907f90890809c654f11d6e72a28fa60149770a0d11ec6c92319d6ceb2bb0a4ea1a1590602001610da3565b6000546001600160a01b0316331461142c5760405162461bcd60e51b8152600401610490906118fd565b6001600160a01b0381166114915760405162461bcd60e51b815260206004820152602660248201527f4f776e61626c653a206e6577206f776e657220697320746865207a65726f206160448201526564647265737360d01b6064820152608401610490565b61149a81611713565b50565b60006114a982846119a1565b9392505050565b60006114a98284611981565b61149a816040516024016114d091906118aa565b60408051601f198184030181529190526020810180516001600160e01b031663104c13eb60e21b179052611763565b60006114a98284611969565b60006114a982846119c0565b6003546040516370a0823160e01b81523060048201526000916001600160a01b0316906370a082319060240160206040518083038186803b15801561155b57600080fd5b505afa15801561156f573d6000803e3d6000fd5b505050506040513d601f19601f8201168201806040525081019061159391906117d4565b905060008183111561162c5760035460405163a9059cbb60e01b81526001600160a01b038681166004830152602482018590529091169063a9059cbb90604401602060405180830381600087803b1580156115ed57600080fd5b505af1158015611601573d6000803e3d6000fd5b505050506040513d601f19601f8201168201806040525081019061162591906117a0565b90506116b5565b60035460405163a9059cbb60e01b81526001600160a01b038681166004830152602482018690529091169063a9059cbb90604401602060405180830381600087803b15801561167a57600080fd5b505af115801561168e573d6000803e3d6000fd5b505050506040513d601f19601f820116820180604052508101906116b291906117a0565b90505b8061170d5760405162461bcd60e51b815260206004820152602260248201527f7361666553637562615472616e736665723a207472616e73666572206661696c604482015261195960f21b6064820152608401610490565b50505050565b600080546001600160a01b038381166001600160a01b0319831681178455604051919092169283917f8be0079c531659141344cd1fd0a4f28419497f9722a3daafe3b4186f6b6457e09190a35050565b80516a636f6e736f6c652e6c6f67602083016000808483855afa5050505050565b600060208284031215611795578081fd5b81356114a981611a08565b6000602082840312156117b1578081fd5b81516114a981611a1d565b6000602082840312156117cd578081fd5b5035919050565b6000602082840312156117e5578081fd5b5051919050565b600080604083850312156117fe578081fd5b82359150602083013561181081611a08565b809150509250929050565b60008060006060848603121561182f578081fd5b83359250602084013561184181611a08565b9150604084013561185181611a1d565b809150509250925092565b6000806040838503121561186e578182fd5b50508035926020909101359150565b600080600060608486031215611891578283fd5b8335925060208401359150604084013561185181611a1d565b6000602080835283518082850152825b818110156118d6578581018301518582016040015282016118ba565b818111156118e75783604083870101525b50601f01601f1916929092016040019392505050565b6020808252818101527f4f776e61626c653a2063616c6c6572206973206e6f7420746865206f776e6572604082015260600190565b6020808252601f908201527f5265656e7472616e637947756172643a207265656e7472616e742063616c6c00604082015260600190565b6000821982111561197c5761197c6119f2565b500190565b60008261199c57634e487b7160e01b81526012600452602481fd5b500490565b60008160001904831182151516156119bb576119bb6119f2565b500290565b6000828210156119d2576119d26119f2565b500390565b60006000198214156119eb576119eb6119f2565b5060010190565b634e487b7160e01b600052601160045260246000fd5b6001600160a01b038116811461149a57600080fd5b801515811461149a57600080fdfea26469706673582212206afca7e6fcc34919b6d59270f74558a597ef0abde58a8ea3873cf9a4ff382dfc64736f6c63430008040033",
  "linkReferences": {},
  "deployedLinkReferences": {}
}