{
  "_format": "hh-sol-artifact-1",
  "contractName": "VMMPool",
  "sourceName": "contracts/VMMPool.sol",
  "abi": [
    {
      "inputs": [
        {
          "internalType": "address",
          "name": "_swapPair",
          "type": "address"
        },
        {
          "internalType": "address",
          "name": "_swapRouter",
          "type": "address"
        },
        {
          "internalType": "string",
          "name": "poolName",
          "type": "string"
        },
        {
          "internalType": "string",
          "name": "_amm",
          "type": "string"
        },
        {
          "internalType": "string",
          "name": "_pairName",
          "type": "string"
        }
      ],
      "stateMutability": "nonpayable",
      "type": "constructor"
    },
    {
      "anonymous": false,
      "inputs": [
        {
          "indexed": true,
          "internalType": "address",
          "name": "owner",
          "type": "address"
        },
        {
          "indexed": true,
          "internalType": "address",
          "name": "spender",
          "type": "address"
        },
        {
          "indexed": false,
          "internalType": "uint256",
          "name": "value",
          "type": "uint256"
        }
      ],
      "name": "Approval",
      "type": "event"
    },
    {
      "anonymous": false,
      "inputs": [
        {
          "indexed": false,
          "internalType": "string",
          "name": "reason",
          "type": "string"
        },
        {
          "indexed": false,
          "internalType": "uint256",
          "name": "value",
          "type": "uint256"
        }
      ],
      "name": "Debug",
      "type": "event"
    },
    {
      "anonymous": false,
      "inputs": [
        {
          "indexed": false,
          "internalType": "address",
          "name": "poolAddress",
          "type": "address"
        },
        {
          "indexed": false,
          "internalType": "uint256",
          "name": "amount",
          "type": "uint256"
        },
        {
          "indexed": false,
          "internalType": "address",
          "name": "addressCollateral",
          "type": "address"
        }
      ],
      "name": "NewLoan",
      "type": "event"
    },
    {
      "anonymous": false,
      "inputs": [
        {
          "indexed": true,
          "internalType": "address",
          "name": "from",
          "type": "address"
        },
        {
          "indexed": true,
          "internalType": "address",
          "name": "to",
          "type": "address"
        },
        {
          "indexed": false,
          "internalType": "uint256",
          "name": "value",
          "type": "uint256"
        }
      ],
      "name": "Transfer",
      "type": "event"
    },
    {
      "inputs": [
        {
          "internalType": "uint256",
          "name": "amountLpTokens",
          "type": "uint256"
        }
      ],
      "name": "addLPLiquidity",
      "outputs": [
        {
          "internalType": "uint256",
          "name": "addedLiquidity",
          "type": "uint256"
        }
      ],
      "stateMutability": "nonpayable",
      "type": "function"
    },
    {
      "inputs": [
        {
          "internalType": "address",
          "name": "owner",
          "type": "address"
        },
        {
          "internalType": "address",
          "name": "spender",
          "type": "address"
        }
      ],
      "name": "allowance",
      "outputs": [
        {
          "internalType": "uint256",
          "name": "",
          "type": "uint256"
        }
      ],
      "stateMutability": "view",
      "type": "function"
    },
    {
      "inputs": [],
      "name": "amm",
      "outputs": [
        {
          "internalType": "string",
          "name": "",
          "type": "string"
        }
      ],
      "stateMutability": "view",
      "type": "function"
    },
    {
      "inputs": [
        {
          "internalType": "address",
          "name": "spender",
          "type": "address"
        },
        {
          "internalType": "uint256",
          "name": "amount",
          "type": "uint256"
        }
      ],
      "name": "approve",
      "outputs": [
        {
          "internalType": "bool",
          "name": "",
          "type": "bool"
        }
      ],
      "stateMutability": "nonpayable",
      "type": "function"
    },
    {
      "inputs": [],
      "name": "averageInterestRate",
      "outputs": [
        {
          "internalType": "uint256",
          "name": "",
          "type": "uint256"
        }
      ],
      "stateMutability": "view",
      "type": "function"
    },
    {
      "inputs": [
        {
          "internalType": "address",
          "name": "account",
          "type": "address"
        }
      ],
      "name": "balanceOf",
      "outputs": [
        {
          "internalType": "uint256",
          "name": "",
          "type": "uint256"
        }
      ],
      "stateMutability": "view",
      "type": "function"
    },
    {
      "inputs": [
        {
          "internalType": "uint256",
          "name": "loanId",
          "type": "uint256"
        },
        {
          "internalType": "uint256",
          "name": "amountLpBorrowed",
          "type": "uint256"
        },
        {
          "internalType": "address",
          "name": "addressCollateral",
          "type": "address"
        },
        {
          "internalType": "uint256",
          "name": "amountCollateral",
          "type": "uint256"
        }
      ],
      "name": "borrowLpTokens",
      "outputs": [
        {
          "internalType": "uint256",
          "name": "newLoanId",
          "type": "uint256"
        }
      ],
      "stateMutability": "nonpayable",
      "type": "function"
    },
    {
      "inputs": [
        {
          "internalType": "uint256",
          "name": "usageRatio",
          "type": "uint256"
        },
        {
          "internalType": "uint256",
          "name": "startLoanDate",
          "type": "uint256"
        },
        {
          "internalType": "uint256",
          "name": "startLoanRate",
          "type": "uint256"
        }
      ],
      "name": "calculateAverageInterestRate",
      "outputs": [
        {
          "internalType": "uint256",
          "name": "averageLoanRate",
          "type": "uint256"
        }
      ],
      "stateMutability": "view",
      "type": "function"
    },
    {
      "inputs": [
        {
          "internalType": "uint256",
          "name": "loanId",
          "type": "uint256"
        }
      ],
      "name": "calculateFeeInLp",
      "outputs": [
        {
          "internalType": "uint256",
          "name": "feeInLp",
          "type": "uint256"
        }
      ],
      "stateMutability": "view",
      "type": "function"
    },
    {
      "inputs": [
        {
          "internalType": "uint256",
          "name": "loanId",
          "type": "uint256"
        }
      ],
      "name": "calculateLoanRiskRatio",
      "outputs": [
        {
          "internalType": "uint256",
          "name": "riskInPercent",
          "type": "uint256"
        }
      ],
      "stateMutability": "view",
      "type": "function"
    },
    {
      "inputs": [
        {
          "internalType": "uint256",
          "name": "usageRatio",
          "type": "uint256"
        }
      ],
      "name": "calculateNewInterestRate",
      "outputs": [
        {
          "internalType": "uint256",
          "name": "newAverageRate",
          "type": "uint256"
        },
        {
          "internalType": "uint256",
          "name": "newInstantRate",
          "type": "uint256"
        }
      ],
      "stateMutability": "view",
      "type": "function"
    },
    {
      "inputs": [
        {
          "internalType": "uint256",
          "name": "amountLpBorrowed",
          "type": "uint256"
        },
        {
          "internalType": "address",
          "name": "addressToken",
          "type": "address"
        },
        {
          "internalType": "uint256",
          "name": "amountToken",
          "type": "uint256"
        }
      ],
      "name": "calculateRatio",
      "outputs": [
        {
          "internalType": "uint256",
          "name": "riskRatio",
          "type": "uint256"
        }
      ],
      "stateMutability": "view",
      "type": "function"
    },
    {
      "inputs": [
        {
          "internalType": "uint256",
          "name": "amountLpToken",
          "type": "uint256"
        },
        {
          "internalType": "address",
          "name": "targetToken",
          "type": "address"
        }
      ],
      "name": "calculateValueLpInToken",
      "outputs": [
        {
          "internalType": "uint256",
          "name": "valueLpTokens",
          "type": "uint256"
        }
      ],
      "stateMutability": "view",
      "type": "function"
    },
    {
      "inputs": [],
      "name": "decimals",
      "outputs": [
        {
          "internalType": "uint8",
          "name": "",
          "type": "uint8"
        }
      ],
      "stateMutability": "view",
      "type": "function"
    },
    {
      "inputs": [
        {
          "internalType": "address",
          "name": "spender",
          "type": "address"
        },
        {
          "internalType": "uint256",
          "name": "subtractedValue",
          "type": "uint256"
        }
      ],
      "name": "decreaseAllowance",
      "outputs": [
        {
          "internalType": "bool",
          "name": "",
          "type": "bool"
        }
      ],
      "stateMutability": "nonpayable",
      "type": "function"
    },
    {
      "inputs": [
        {
          "internalType": "uint256",
          "name": "usageRatio",
          "type": "uint256"
        }
      ],
      "name": "getInterestRates",
      "outputs": [
        {
          "internalType": "uint256",
          "name": "supplyInterestRate",
          "type": "uint256"
        },
        {
          "internalType": "uint256",
          "name": "borrowInterestRate",
          "type": "uint256"
        }
      ],
      "stateMutability": "view",
      "type": "function"
    },
    {
      "inputs": [],
      "name": "getLendingInterestRates",
      "outputs": [
        {
          "internalType": "uint256",
          "name": "supplyInterestRate",
          "type": "uint256"
        },
        {
          "internalType": "uint256",
          "name": "borrowInterestRate",
          "type": "uint256"
        }
      ],
      "stateMutability": "view",
      "type": "function"
    },
    {
      "inputs": [],
      "name": "getPoolInfo",
      "outputs": [
        {
          "internalType": "string",
          "name": "name",
          "type": "string"
        },
        {
          "internalType": "string",
          "name": "ammName",
          "type": "string"
        },
        {
          "internalType": "string",
          "name": "pair",
          "type": "string"
        },
        {
          "internalType": "uint256",
          "name": "poolValue",
          "type": "uint256"
        },
        {
          "internalType": "uint256",
          "name": "myPoolValue",
          "type": "uint256"
        },
        {
          "internalType": "uint256",
          "name": "usageRatio",
          "type": "uint256"
        }
      ],
      "stateMutability": "view",
      "type": "function"
    },
    {
      "inputs": [],
      "name": "getUsageRatio",
      "outputs": [
        {
          "internalType": "uint256",
          "name": "",
          "type": "uint256"
        }
      ],
      "stateMutability": "view",
      "type": "function"
    },
    {
      "inputs": [
        {
          "internalType": "address",
          "name": "spender",
          "type": "address"
        },
        {
          "internalType": "uint256",
          "name": "addedValue",
          "type": "uint256"
        }
      ],
      "name": "increaseAllowance",
      "outputs": [
        {
          "internalType": "bool",
          "name": "",
          "type": "bool"
        }
      ],
      "stateMutability": "nonpayable",
      "type": "function"
    },
    {
      "inputs": [],
      "name": "isPoolEnabled",
      "outputs": [
        {
          "internalType": "bool",
          "name": "",
          "type": "bool"
        }
      ],
      "stateMutability": "view",
      "type": "function"
    },
    {
      "inputs": [],
      "name": "lastInterestRate",
      "outputs": [
        {
          "internalType": "uint256",
          "name": "",
          "type": "uint256"
        }
      ],
      "stateMutability": "view",
      "type": "function"
    },
    {
      "inputs": [],
      "name": "lastUpdateDate",
      "outputs": [
        {
          "internalType": "uint256",
          "name": "",
          "type": "uint256"
        }
      ],
      "stateMutability": "view",
      "type": "function"
    },
    {
      "inputs": [
        {
          "internalType": "uint256",
          "name": "loanId",
          "type": "uint256"
        }
      ],
      "name": "liquidateLoan",
      "outputs": [
        {
          "internalType": "uint256",
          "name": "returnedToBorrower",
          "type": "uint256"
        }
      ],
      "stateMutability": "nonpayable",
      "type": "function"
    },
    {
      "inputs": [],
      "name": "liquidationFeeInPercent",
      "outputs": [
        {
          "internalType": "uint256",
          "name": "",
          "type": "uint256"
        }
      ],
      "stateMutability": "view",
      "type": "function"
    },
    {
      "inputs": [],
      "name": "liquidationThresholdInPercent",
      "outputs": [
        {
          "internalType": "uint256",
          "name": "",
          "type": "uint256"
        }
      ],
      "stateMutability": "view",
      "type": "function"
    },
    {
      "inputs": [
        {
          "internalType": "uint256",
          "name": "",
          "type": "uint256"
        }
      ],
      "name": "loans",
      "outputs": [
        {
          "internalType": "address",
          "name": "owner",
          "type": "address"
        },
        {
          "internalType": "uint256",
          "name": "amountLpBorrowed",
          "type": "uint256"
        },
        {
          "internalType": "address",
          "name": "addressCollateral",
          "type": "address"
        },
        {
          "internalType": "uint256",
          "name": "amountCollateral",
          "type": "uint256"
        },
        {
          "internalType": "uint256",
          "name": "amountReturned",
          "type": "uint256"
        },
        {
          "internalType": "uint256",
          "name": "totalLoanTokens",
          "type": "uint256"
        },
        {
          "internalType": "bool",
          "name": "isOpen",
          "type": "bool"
        },
        {
          "internalType": "uint256",
          "name": "startDate",
          "type": "uint256"
        },
        {
          "internalType": "uint256",
          "name": "startRate",
          "type": "uint256"
        }
      ],
      "stateMutability": "view",
      "type": "function"
    },
    {
      "inputs": [],
      "name": "loansCount",
      "outputs": [
        {
          "internalType": "uint256",
          "name": "",
          "type": "uint256"
        }
      ],
      "stateMutability": "view",
      "type": "function"
    },
    {
      "inputs": [],
      "name": "lpOutstanding",
      "outputs": [
        {
          "internalType": "uint256",
          "name": "",
          "type": "uint256"
        }
      ],
      "stateMutability": "view",
      "type": "function"
    },
    {
      "inputs": [],
      "name": "lpSupply",
      "outputs": [
        {
          "internalType": "uint256",
          "name": "",
          "type": "uint256"
        }
      ],
      "stateMutability": "view",
      "type": "function"
    },
    {
      "inputs": [],
      "name": "maxBorrowingInterestRate",
      "outputs": [
        {
          "internalType": "uint256",
          "name": "",
          "type": "uint256"
        }
      ],
      "stateMutability": "view",
      "type": "function"
    },
    {
      "inputs": [],
      "name": "minBorrowingInterestRate",
      "outputs": [
        {
          "internalType": "uint256",
          "name": "",
          "type": "uint256"
        }
      ],
      "stateMutability": "view",
      "type": "function"
    },
    {
      "inputs": [],
      "name": "name",
      "outputs": [
        {
          "internalType": "string",
          "name": "",
          "type": "string"
        }
      ],
      "stateMutability": "view",
      "type": "function"
    },
    {
      "inputs": [],
      "name": "pairName",
      "outputs": [
        {
          "internalType": "string",
          "name": "",
          "type": "string"
        }
      ],
      "stateMutability": "view",
      "type": "function"
    },
    {
      "inputs": [],
      "name": "poolLpBalance",
      "outputs": [
        {
          "internalType": "uint256",
          "name": "",
          "type": "uint256"
        }
      ],
      "stateMutability": "view",
      "type": "function"
    },
    {
      "inputs": [
        {
          "internalType": "uint256",
          "name": "usageRatio",
          "type": "uint256"
        }
      ],
      "name": "setInterestRates",
      "outputs": [],
      "stateMutability": "nonpayable",
      "type": "function"
    },
    {
      "inputs": [],
      "name": "startDate",
      "outputs": [
        {
          "internalType": "uint256",
          "name": "",
          "type": "uint256"
        }
      ],
      "stateMutability": "view",
      "type": "function"
    },
    {
      "inputs": [],
      "name": "swapPair",
      "outputs": [
        {
          "internalType": "address",
          "name": "",
          "type": "address"
        }
      ],
      "stateMutability": "view",
      "type": "function"
    },
    {
      "inputs": [],
      "name": "swapRouter",
      "outputs": [
        {
          "internalType": "address",
          "name": "",
          "type": "address"
        }
      ],
      "stateMutability": "view",
      "type": "function"
    },
    {
      "inputs": [],
      "name": "symbol",
      "outputs": [
        {
          "internalType": "string",
          "name": "",
          "type": "string"
        }
      ],
      "stateMutability": "view",
      "type": "function"
    },
    {
      "inputs": [],
      "name": "tokenA",
      "outputs": [
        {
          "internalType": "address",
          "name": "",
          "type": "address"
        }
      ],
      "stateMutability": "view",
      "type": "function"
    },
    {
      "inputs": [],
      "name": "tokenB",
      "outputs": [
        {
          "internalType": "address",
          "name": "",
          "type": "address"
        }
      ],
      "stateMutability": "view",
      "type": "function"
    },
    {
      "inputs": [],
      "name": "totalSupply",
      "outputs": [
        {
          "internalType": "uint256",
          "name": "",
          "type": "uint256"
        }
      ],
      "stateMutability": "view",
      "type": "function"
    },
    {
      "inputs": [
        {
          "internalType": "address",
          "name": "recipient",
          "type": "address"
        },
        {
          "internalType": "uint256",
          "name": "amount",
          "type": "uint256"
        }
      ],
      "name": "transfer",
      "outputs": [
        {
          "internalType": "bool",
          "name": "",
          "type": "bool"
        }
      ],
      "stateMutability": "nonpayable",
      "type": "function"
    },
    {
      "inputs": [
        {
          "internalType": "address",
          "name": "sender",
          "type": "address"
        },
        {
          "internalType": "address",
          "name": "recipient",
          "type": "address"
        },
        {
          "internalType": "uint256",
          "name": "amount",
          "type": "uint256"
        }
      ],
      "name": "transferFrom",
      "outputs": [
        {
          "internalType": "bool",
          "name": "",
          "type": "bool"
        }
      ],
      "stateMutability": "nonpayable",
      "type": "function"
    },
    {
      "inputs": [
        {
          "internalType": "uint256",
          "name": "amountVMTokens",
          "type": "uint256"
        }
      ],
      "name": "valueOfTokensInLp",
      "outputs": [
        {
          "internalType": "uint256",
          "name": "tokenValueInLp",
          "type": "uint256"
        }
      ],
      "stateMutability": "view",
      "type": "function"
    },
    {
      "inputs": [],
      "name": "withdrawExcessTokens",
      "outputs": [],
      "stateMutability": "nonpayable",
      "type": "function"
    },
    {
      "inputs": [
        {
          "internalType": "uint256",
          "name": "amountVMTokens",
          "type": "uint256"
        }
      ],
      "name": "withdrawLPLiquidity",
      "outputs": [
        {
          "internalType": "uint256",
          "name": "removedSupply",
          "type": "uint256"
        }
      ],
      "stateMutability": "nonpayable",
      "type": "function"
    }
  ],
  "bytecode": "0x608060405266470de4df820000600555670de0b6b3a7640000600655620000286001426200091e565b6007554260085566470de4df82000060095566470de4df820000600a556096601555600a6016553480156200005c57600080fd5b50604051620044a6380380620044a68339810160408190526200007f9162000813565b825183908190620000989060039060208401906200069d565b508051620000ae9060049060208401906200069d565b505050620000eb6040518060400160405280600c81526020016b189d5a5b19081d9c1b5bdbdb60a21b8152506200062e60201b62002d9a1760201c565b600c80546001600160a01b038088166001600160a01b03199283168117909355600b80549188169190921617905560408051630dfe168160e01b81529051630dfe168191600480820192602092909190829003018186803b1580156200015057600080fd5b505afa15801562000165573d6000803e3d6000fd5b505050506040513d601f19601f820116820180604052508101906200018b9190620007ef565b600d80546001600160a01b0319166001600160a01b03928316179055600c546040805163d21220a760e01b81529051919092169163d21220a7916004808301926020929190829003018186803b158015620001e557600080fd5b505afa158015620001fa573d6000803e3d6000fd5b505050506040513d601f19601f82011682018060405250810190620002209190620007ef565b600e80546001600160a01b0319166001600160a01b03929092169190911790556011805460ff191660011790558051620002629060109060208401906200069d565b5081516200027890600f9060208501906200069d565b506040805161012081018252308152600060208201818152600d546001600160a01b03908116848601908152606085018481526080860185815260a0870186815260c088018781524260e08a01908152600a546101008b01908152601480546001810182559a5299517fce6d7b5282bd9a3661ae061feed1dbda4e52ab073b1f9285be6e155d9c38d4ec6009909a02998a0180546001600160a01b0319908116928a1692909217905597517fce6d7b5282bd9a3661ae061feed1dbda4e52ab073b1f9285be6e155d9c38d4ed8a015594517fce6d7b5282bd9a3661ae061feed1dbda4e52ab073b1f9285be6e155d9c38d4ee890180549098169087161790965591517fce6d7b5282bd9a3661ae061feed1dbda4e52ab073b1f9285be6e155d9c38d4ef870155517fce6d7b5282bd9a3661ae061feed1dbda4e52ab073b1f9285be6e155d9c38d4f0860155517fce6d7b5282bd9a3661ae061feed1dbda4e52ab073b1f9285be6e155d9c38d4f185015591517fce6d7b5282bd9a3661ae061feed1dbda4e52ab073b1f9285be6e155d9c38d4f28401805460ff191691151591909117905590517fce6d7b5282bd9a3661ae061feed1dbda4e52ab073b1f9285be6e155d9c38d4f383015591517fce6d7b5282bd9a3661ae061feed1dbda4e52ab073b1f9285be6e155d9c38d4f490910155600c54600b54925163095ea7b360e01b81529282166004840152600160fa1b6024840152169063095ea7b390604401602060405180830381600087803b158015620004b357600080fd5b505af1158015620004c8573d6000803e3d6000fd5b505050506040513d601f19601f82011682018060405250810190620004ee9190620008c7565b50600d54600b5460405163095ea7b360e01b81526001600160a01b0391821660048201526d04ee2d6d415b85acef8100000000602482015291169063095ea7b390604401602060405180830381600087803b1580156200054d57600080fd5b505af115801562000562573d6000803e3d6000fd5b505050506040513d601f19601f82011682018060405250810190620005889190620008c7565b50600e54600b5460405163095ea7b360e01b81526001600160a01b0391821660048201526d04ee2d6d415b85acef8100000000602482015291169063095ea7b390604401602060405180830381600087803b158015620005e757600080fd5b505af1158015620005fc573d6000803e3d6000fd5b505050506040513d601f19601f82011682018060405250810190620006229190620008c7565b505050505050620009c8565b6200067981604051602401620006459190620008e9565b60408051601f198184030181529190526020810180516001600160e01b0390811663104c13eb60e21b179091526200067c16565b50565b80516a636f6e736f6c652e6c6f67602083016000808483855afa5050505050565b828054620006ab9062000975565b90600052602060002090601f016020900481019282620006cf57600085556200071a565b82601f10620006ea57805160ff19168380011785556200071a565b828001600101855582156200071a579182015b828111156200071a578251825591602001919060010190620006fd565b50620007289291506200072c565b5090565b5b808211156200072857600081556001016200072d565b80516001600160a01b03811681146200075b57600080fd5b919050565b600082601f83011262000771578081fd5b81516001600160401b03808211156200078e576200078e620009b2565b604051601f8301601f19908116603f01168101908282118183101715620007b957620007b9620009b2565b81604052838152866020858801011115620007d2578485fd5b620007e584602083016020890162000942565b9695505050505050565b60006020828403121562000801578081fd5b6200080c8262000743565b9392505050565b600080600080600060a086880312156200082b578081fd5b620008368662000743565b9450620008466020870162000743565b60408701519094506001600160401b038082111562000863578283fd5b6200087189838a0162000760565b9450606088015191508082111562000887578283fd5b6200089589838a0162000760565b93506080880151915080821115620008ab578283fd5b50620008ba8882890162000760565b9150509295509295909350565b600060208284031215620008d9578081fd5b815180151581146200080c578182fd5b60208152600082518060208401526200090a81604085016020870162000942565b601f01601f19169190910160400192915050565b6000828210156200093d57634e487b7160e01b81526011600452602481fd5b500390565b60005b838110156200095f57818101518382015260200162000945565b838111156200096f576000848401525b50505050565b600181811c908216806200098a57607f821691505b60208210811415620009ac57634e487b7160e01b600052602260045260246000fd5b50919050565b634e487b7160e01b600052604160045260246000fd5b613ace80620009d86000396000f3fe608060405234801561001057600080fd5b50600436106102a05760003560e01c80636839c85011610167578063a457c2d7116100ce578063db09a9a411610087578063db09a9a414610565578063dd62ed3e14610578578063e1ec3c68146105b1578063e7ba50af1461061b578063feec72b71461062e578063ff5ef4401461064157600080fd5b8063a457c2d7146104f3578063a9059cbb14610506578063c05dd5d514610519578063c31c9c071461052c578063ccdd9f5d1461053f578063d13b6be31461055257600080fd5b806395ad86e01161012057806395ad86e01461049757806395d89b41146104aa57806398323ac5146104b25780639a1b232a146104c55780639d11ed75146104d8578063a052c3c6146104e057600080fd5b80636839c8501461044257806370a082311461044b57806380b81e181461047457806383f7a9131461047c5780638b1d6b2a14610485578063918c2f611461048e57600080fd5b8063313ce5671161020b578063435dfc82116101c4578063435dfc82146102b857806344775506146103f75780634a97b6b7146103ff578063585f19431461040c5780635f64b55b1461041557806360246c881461042857600080fd5b8063313ce567146103a85780633473d1c0146103b757806339509351146103ca5780633b22fc03146103dd5780633f16406e146103e657806340794c3b146103ef57600080fd5b80630fc63d101161025d5780630fc63d101461033e57806318160ddd146103695780631e3cbb211461037157806323b872dd1461037a57806326991cc81461038d5780632a943945146103a057600080fd5b8063024f5d8a146102a557806302fe4d9a146102ba57806306fdde03146102e057806308451100146102f5578063095ea7b3146103125780630b97bc8614610335575b600080fd5b6102b86102b3366004613638565b61064a565b005b6102cd6102c8366004613668565b610683565b6040519081526020015b60405180910390f35b6102e8610808565b6040516102d791906137f3565b6102fd61089a565b604080519283526020830191909152016102d7565b6103256103203660046134e1565b6108b0565b60405190151581526020016102d7565b6102cd60075481565b600d54610351906001600160a01b031681565b6040516001600160a01b0390911681526020016102d7565b6002546102cd565b6102cd600a5481565b6103256103883660046134a6565b6108c6565b600c54610351906001600160a01b031681565b6102e8610977565b604051601281526020016102d7565b6102cd6103c5366004613638565b610a05565b6103256103d83660046134e1565b610ac4565b6102cd60125481565b6102cd60065481565b6102e8610b00565b6102cd610b0d565b6011546103259060ff1681565b6102cd60155481565b600e54610351906001600160a01b031681565b610430610b42565b6040516102d796959493929190613806565b6102cd60055481565b6102cd61045936600461345a565b6001600160a01b031660009081526020819052604090205490565b6102cd610cb5565b6102cd60165481565b6102cd60095481565b6102cd60135481565b6102fd6104a5366004613638565b610d31565b6102e8610d76565b6102cd6104c0366004613638565b610d85565b6102cd6104d336600461370d565b610dba565b6014546102cd565b6102cd6104ee366004613638565b610e44565b6103256105013660046134e1565b611074565b6103256105143660046134e1565b61110d565b6102fd610527366004613638565b61111a565b600b54610351906001600160a01b031681565b6102cd61054d366004613638565b6111ac565b6102cd610560366004613638565b611c67565b6102cd610573366004613638565b611dd3565b6102cd610586366004613474565b6001600160a01b03918216600090815260016020908152604080832093909416825291909152205490565b6105c46105bf366004613638565b611fb3565b604080516001600160a01b039a8b168152602081019990995296909816958701959095526060860193909352608085019190915260a0840152151560c083015260e0820152610100810191909152610120016102d7565b6102cd6106293660046136d1565b61201f565b6102cd61063c36600461368a565b612d1c565b6102cd60085481565b6000806106568361111a565b9150915060008211801561066a5750600081115b1561067e57600a8290554260085560098190555b505050565b6000806000600c60009054906101000a90046001600160a01b03166001600160a01b0316630902f1ac6040518163ffffffff1660e01b815260040160606040518083038186803b1580156106d657600080fd5b505afa1580156106ea573d6000803e3d6000fd5b505050506040513d601f19601f8201168201806040525081019061070e91906135ea565b506001600160701b031691506001600160701b031691506000600c60009054906101000a90046001600160a01b03166001600160a01b03166318160ddd6040518163ffffffff1660e01b815260040160206040518083038186803b15801561077557600080fd5b505afa158015610789573d6000803e3d6000fd5b505050506040513d601f19601f820116820180604052508101906107ad9190613650565b600d549091506001600160a01b03868116911614156107ef576107e5816107df886107d9876002612de0565b90612de0565b90612dec565b9350505050610802565b6107e5816107df886107d9866002612de0565b92915050565b6060600380546108179061397e565b80601f01602080910402602001604051908101604052809291908181526020018280546108439061397e565b80156108905780601f1061086557610100808354040283529160200191610890565b820191906000526020600020905b81548152906001019060200180831161087357829003601f168201915b5050505050905090565b6000806108a86104a5610b0d565b915091509091565b60006108bd338484612df8565b50600192915050565b60006108d3848484612f1c565b6001600160a01b03841660009081526001602090815260408083203384529091529020548281101561095d5760405162461bcd60e51b815260206004820152602860248201527f45524332303a207472616e7366657220616d6f756e74206578636565647320616044820152676c6c6f77616e636560c01b60648201526084015b60405180910390fd5b61096a8533858403612df8565b60019150505b9392505050565b600f80546109849061397e565b80601f01602080910402602001604051908101604052809291908181526020018280546109b09061397e565b80156109fd5780601f106109d2576101008083540402835291602001916109fd565b820191906000526020600020905b8154815290600101906020018083116109e057829003601f168201915b505050505081565b600080610a1183610d85565b9050610a1d33846130ec565b8060126000828254610a2f9190613967565b9091555050600c5460405163a9059cbb60e01b8152336004820152602481018390526001600160a01b039091169063a9059cbb90604401602060405180830381600087803b158015610a8057600080fd5b505af1158015610a94573d6000803e3d6000fd5b505050506040513d601f19601f82011682018060405250810190610ab891906135ca565b506108026102b3610b0d565b3360008181526001602090815260408083206001600160a01b038716845290915281205490916108bd918590610afb908690613910565b612df8565b601080546109849061397e565b600060125460001415610b205750600090565b610b3d6012546107df612710601354612de090919063ffffffff16565b905090565b6060806060600080600080610b596104c060025490565b3360009081526020819052604081205491925090610b7690610d85565b905087600f60108484610b87610b0d565b848054610b939061397e565b80601f0160208091040260200160405190810160405280929190818152602001828054610bbf9061397e565b8015610c0c5780601f10610be157610100808354040283529160200191610c0c565b820191906000526020600020905b815481529060010190602001808311610bef57829003601f168201915b50505050509450838054610c1f9061397e565b80601f0160208091040260200160405190810160405280929190818152602001828054610c4b9061397e565b8015610c985780601f10610c6d57610100808354040283529160200191610c98565b820191906000526020600020905b815481529060010190602001808311610c7b57829003601f168201915b505050505093509750975097509750975097505050909192939495565b600c546040516370a0823160e01b81523060048201526000916001600160a01b0316906370a082319060240160206040518083038186803b158015610cf957600080fd5b505afa158015610d0d573d6000803e3d6000fd5b505050506040513d601f19601f82011682018060405250810190610b3d9190613650565b6000806000610d5d600554610d576127106107df88600654612de090919063ffffffff16565b9061323a565b90506000610d6b8286612de0565b959194509092505050565b6060600480546108179061397e565b6000610d9060025490565b610d9c57506000919050565b610802610da860025490565b6107df610db3610cb5565b8590612de0565b60008242111580610dcd57506007548311155b15610dda57506000610970565b6000610de58561111a565b509050600060075442610df89190613967565b600754610e059087613967565b610e0f9086613948565b600754610e1c9042613967565b610e269085613948565b610e309190613967565b610e3a9190613928565b9695505050505050565b600080610ebd610e52610b0d565b60148581548110610e7357634e487b7160e01b600052603260045260246000fd5b90600052602060002090600902016007015460148681548110610ea657634e487b7160e01b600052603260045260246000fd5b906000526020600020906009020160080154610dba565b9050610f2e6040518060400160405280601081526020016f4c6f616e206475726174696f6e20257360801b81525060148581548110610f0c57634e487b7160e01b600052603260045260246000fd5b90600052602060002090600902016007015442610f299190613967565b613246565b610f5d6040518060400160405280600d81526020016c4c6f616e20666565207261746560981b81525082613246565b610ffb6040518060400160405280600e81526020016d4e756d646572617465757220257360901b815250610f2960148681548110610fab57634e487b7160e01b600052603260045260246000fd5b90600052602060002090600902016001015460148781548110610fde57634e487b7160e01b600052603260045260246000fd5b906000526020600020906009020160070154426107d99190613967565b600061106c6301e133806107df670de0b6b3a76400006107df866107d960148b8154811061103957634e487b7160e01b600052603260045260246000fd5b90600052602060002090600902016001015460148c81548110610fde57634e487b7160e01b600052603260045260246000fd5b949350505050565b3360009081526001602090815260408083206001600160a01b0386168452909152812054828110156110f65760405162461bcd60e51b815260206004820152602560248201527f45524332303a2064656372656173656420616c6c6f77616e63652062656c6f77604482015264207a65726f60d81b6064820152608401610954565b6111033385858403612df8565b5060019392505050565b60006108bd338484612f1c565b600080600061112884610d31565b91505060075460085411158061114057504260085410155b156111515750600093849350915050565b6000600754426111619190613967565b60085461116e9042613967565b60095461117b9190613948565b60075460085461118b9190613967565b600a546111989190613948565b6111a29190613910565b610d6b9190613928565b600080601483815481106111d057634e487b7160e01b600052603260045260246000fd5b60009182526020918290206040805161012081018252600990930290910180546001600160a01b03908116845260018083015495850195909552600282015416918301919091526003810154606083015260048101546080830152600581015460a0830152600681015460ff16151560c08301819052600782015460e0840152600890910154610100830152909250146112a25760405162461bcd60e51b81526020600482015260136024820152721313d05397d053149150511657d0d313d4d151606a1b6044820152606401610954565b60006112ad84611dd3565b82519091506001600160a01b03163314806112c9575060155481105b6113155760405162461bcd60e51b815260206004820181905260248201527f43414e4e4f545f4c49515549444154455f41424f56455f5448524553484f4c446044820152606401610954565b600061136461132386610e44565b6014878154811061134457634e487b7160e01b600052603260045260246000fd5b90600052602060002090600902016001015461323a90919063ffffffff16565b600d54909150600090611388906002906107df9085906001600160a01b0316610683565b600e549091506000906113ac906002906107df9086906001600160a01b0316610683565b6040805160028082526060808301845293945060009260208301908036833701905050600d5460408901519192506001600160a01b039182169116141561152257600d5481516001600160a01b0390911690829060009061141d57634e487b7160e01b600052603260045260246000fd5b6001600160a01b039283166020918202929092010152600e5482519116908290600190811061145c57634e487b7160e01b600052603260045260246000fd5b6001600160a01b039283166020918202929092010152600b5460a089015160608a01519190921691638803dbee918691611496919061323a565b84306114a542620186a0613910565b6040518663ffffffff1660e01b81526004016114c59594939291906138d4565b600060405180830381600087803b1580156114df57600080fd5b505af11580156114f3573d6000803e3d6000fd5b505050506040513d6000823e601f3d908101601f1916820160405261151b919081019061350a565b9150611653565b600e5481516001600160a01b0390911690829060009061155257634e487b7160e01b600052603260045260246000fd5b6001600160a01b039283166020918202929092010152600d5482519116908290600190811061159157634e487b7160e01b600052603260045260246000fd5b6001600160a01b039283166020918202929092010152600b5460a089015160608a01519190921691638803dbee9187916115cb919061323a565b84306115da42620186a0613910565b6040518663ffffffff1660e01b81526004016115fa9594939291906138d4565b600060405180830381600087803b15801561161457600080fd5b505af1158015611628573d6000803e3d6000fd5b505050506040513d6000823e601f3d908101601f19168201604052611650919081019061350a565b91505b6116c6604051806060016040528060318152602001613a68603191398360008151811061169057634e487b7160e01b600052603260045260246000fd5b6020026020010151846001815181106116b957634e487b7160e01b600052603260045260246000fd5b602002602001015161328f565b600b54600d54600e54600092839283926001600160a01b039283169263e8e3370092811691168a8a600180306116ff42620186a0613910565b60405160e08a901b6001600160e01b03191681526001600160a01b039889166004820152968816602488015260448701959095526064860193909352608485019190915260a484015290921660c482015260e481019190915261010401606060405180830381600087803b15801561177657600080fd5b505af115801561178a573d6000803e3d6000fd5b505050506040513d601f19601f820116820180604052508101906117ae9190613738565b92509250925080601360008282546117c69190613967565b909155506117d790506102b3610b0d565b60408051818152602b818301527f4c69717569646174653a2052657475726e696e67204c5020746f6b656e73207460608201526a37903a3432903837b7b61d60a91b6080820152602081018390529051600080516020613a0c8339815191529181900360a00190a1600061185c8b606001518c60a0015161323a90919063ffffffff16565b905061190c600d60009054906101000a90046001600160a01b03166001600160a01b031660148f815481106118a157634e487b7160e01b600052603260045260246000fd5b60009182526020909120600260099092020101546001600160a01b0316146118c957836118cb565b845b611906886000815181106118ef57634e487b7160e01b600052603260045260246000fd5b6020026020010151846132d690919063ffffffff16565b906132d6565b905060008190506119b16040518060600160405280602681526020016139e6602691396040808f015190516370a0823160e01b815230600482015284916001600160a01b0316906370a082319060240160206040518083038186803b15801561197457600080fd5b505afa158015611988573d6000803e3d6000fd5b505050506040513d601f19601f820116820180604052508101906119ac9190613650565b61328f565b8b516001600160a01b0316331415611a825760148e815481106119e457634e487b7160e01b600052603260045260246000fd5b60009182526020909120600990910201600201548c5160405163a9059cbb60e01b81526001600160a01b0391821660048201526024810184905291169063a9059cbb90604401602060405180830381600087803b158015611a4457600080fd5b505af1158015611a58573d6000803e3d6000fd5b505050506040513d601f19601f82011682018060405250810190611a7c91906135ca565b50611bd5565b6000611aa260646107df8f60a00151601654612de090919063ffffffff16565b905082811015611b4757611ab682826132d6565b60408e8101518f51915163a9059cbb60e01b81526001600160a01b03928316600482015260248101849052929450169063a9059cbb90604401602060405180830381600087803b158015611b0957600080fd5b505af1158015611b1d573d6000803e3d6000fd5b505050506040513d601f19601f82011682018060405250810190611b4191906135ca565b50611b4c565b600091505b6040808e0151905163a9059cbb60e01b8152336004820152602481018390526001600160a01b039091169063a9059cbb90604401602060405180830381600087803b158015611b9a57600080fd5b505af1158015611bae573d6000803e3d6000fd5b505050506040513d601f19601f82011682018060405250810190611bd291906135ca565b50505b600060148f81548110611bf857634e487b7160e01b600052603260045260246000fd5b906000526020600020906009020160060160006101000a81548160ff0219169083151502179055508060148f81548110611c4257634e487b7160e01b600052603260045260246000fd5b60009182526020909120600460099092020101559d9c50505050505050505050505050565b6000808290508260126000828254611c7f9190613910565b9091555050600c546040516370a0823160e01b81523060048201526000916001600160a01b0316906370a082319060240160206040518083038186803b158015611cc857600080fd5b505afa158015611cdc573d6000803e3d6000fd5b505050506040513d601f19601f82011682018060405250810190611d009190613650565b90506000611d0c610cb5565b1115611d2c57611d29816107df611d2260025490565b8790612de0565b91505b611d3633836132e2565b600c546040516323b872dd60e01b8152336004820152306024820152604481018690526001600160a01b03909116906323b872dd90606401602060405180830381600087803b158015611d8857600080fd5b505af1158015611d9c573d6000803e3d6000fd5b505050506040513d601f19601f82011682018060405250810190611dc091906135ca565b50611dcc6102b3610b0d565b5092915050565b6014546000908210611e165760405162461bcd60e51b815260206004820152600c60248201526b27379039bab1b4103637b0b760a11b6044820152606401610954565b600060148381548110611e3957634e487b7160e01b600052603260045260246000fd5b60009182526020918290206040805161012081018252600990930290910180546001600160a01b039081168452600182015484860152600282015416838301526003810154606084015260048101546080840152600581015460a0840152600681015460ff16151560c0840152600781015460e0840152600801546101008301528051808201909152601b81527f77696c6c2063616c63756c617465206c6f616e7269736b7261696f0000000000928101929092529150611ef990612d9a565b6000611f20611f0785610e44565b8360200151611f169190613910565b8360400151610683565b9050611f5960405180604001604052806015815260200174676f7420626f72726f7765642076616c756520257360581b81525082613246565b60008260a001519050611f8a6040518060600160405280603c8152602001613a2c603c9139828560600151856133c1565b611faa826107df60646107d987606001518661323a90919063ffffffff16565b95945050505050565b60148181548110611fc357600080fd5b60009182526020909120600990910201805460018201546002830154600384015460048501546005860154600687015460078801546008909801546001600160a01b0397881699509597949096169592949193909260ff169189565b6040516370a0823160e01b815233600482015260009082906001600160a01b038516906370a082319060240160206040518083038186803b15801561206357600080fd5b505afa158015612077573d6000803e3d6000fd5b505050506040513d601f19601f8201168201806040525081019061209b9190613650565b10156120f35760405162461bcd60e51b815260206004820152602160248201527f494e53554646494349454e545f434f4c4c41544552414c5f415641494c41424c6044820152604560f81b6064820152608401610954565b84156121505760405162461bcd60e51b815260206004820152602660248201527f426f72726f77206d6f72652066726f6d206c6f616e3a206e6f7420696d706c656044820152651b595b9d195960d21b6064820152608401610954565b60025484106121a15760405162461bcd60e51b815260206004820152601960248201527f494e53554646494349454e545f4c505f4c4951554944495459000000000000006044820152606401610954565b6015546121af858585612d1c565b10156121fd5760405162461bcd60e51b815260206004820152601860248201527f434f4c4c41544552414c5f524154494f5f544f4f5f4c4f5700000000000000006044820152606401610954565b600080516020613a0c833981519152612217858585612d1c565b60405161225e91906040808252601d908201527f426f72726f773a20636f6c6c61746572616c206f6b2c20726174696f3a0000006060820152602081019190915260800190565b60405180910390a1600b54600d54600e54604051635d5155ef60e11b81526001600160a01b03928316600482015290821660248201526044810187905260016064820181905260848201523060a48201526502670e15a5d060c48201526000928392169063baa2abde9060e4016040805180830381600087803b1580156122e457600080fd5b505af11580156122f8573d6000803e3d6000fd5b505050506040513d601f19601f8201168201806040525081019061231c91906136ae565b91509150600080516020613a0c83398151915282604051612393919060408082526033908201527f426f72726f773a2072656d6f766564206c69717569646974792c2072656365696060820152723b32b2103a37b5b2b710209030b6b7bab73a1d60691b6080820152602081019190915260a00190565b60405180910390a1604080518181526033818301527f426f72726f773a2072656d6f766564206c69717569646974792c2072656365696060820152723b32b2103a37b5b2b710211030b6b7bab73a1d60691b6080820152602081018390529051600080516020613a0c8339815191529181900360a00190a160408051818152601e818301527f416d6f756e7420412072656365697665642062792072656d6f76654c697100006060820152602081018490529051600080516020613a0c8339815191529181900360800190a1600d546040516370a0823160e01b8152306004820152600080516020613a0c833981519152916001600160a01b0316906370a082319060240160206040518083038186803b1580156124b057600080fd5b505afa1580156124c4573d6000803e3d6000fd5b505050506040513d601f19601f820116820180604052508101906124e89190613650565b60405161252191906040808252600f908201526e42616c616e636520746f6b656e204160881b6060820152602081019190915260800190565b60405180910390a160408051818152601e818301527f416d6f756e7420422072656365697665642062792072656d6f76654c697100006060820152602081018390529051600080516020613a0c8339815191529181900360800190a1600e546040516370a0823160e01b8152306004820152600080516020613a0c833981519152916001600160a01b0316906370a082319060240160206040518083038186803b1580156125ce57600080fd5b505afa1580156125e2573d6000803e3d6000fd5b505050506040513d601f19601f820116820180604052508101906126069190613650565b60405161263f91906040808252600f908201526e2130b630b731b2903a37b5b2b7102160891b6060820152602081019190915260800190565b60405180910390a16040805160028082526060808301845292600092919060208301908036833701905050600d549091506001600160a01b03888116911614156127a057600e5481516001600160a01b039091169082906000906126b357634e487b7160e01b600052603260045260246000fd5b6001600160a01b039283166020918202929092010152600d548251911690829060019081106126f257634e487b7160e01b600052603260045260246000fd5b6001600160a01b039283166020918202929092010152600b54166338ed1739846001843061272342620186a0613910565b6040518663ffffffff1660e01b81526004016127439594939291906138d4565b600060405180830381600087803b15801561275d57600080fd5b505af1158015612771573d6000803e3d6000fd5b505050506040513d6000823e601f3d908101601f19168201604052612799919081019061350a565b91506128b9565b600d5481516001600160a01b039091169082906000906127d057634e487b7160e01b600052603260045260246000fd5b6001600160a01b039283166020918202929092010152600e5482519116908290600190811061280f57634e487b7160e01b600052603260045260246000fd5b6001600160a01b039283166020918202929092010152600b54166338ed1739856001843061284042620186a0613910565b6040518663ffffffff1660e01b81526004016128609594939291906138d4565b600060405180830381600087803b15801561287a57600080fd5b505af115801561288e573d6000803e3d6000fd5b505050506040513d6000823e601f3d908101601f191682016040526128b6919081019061350a565b91505b600080516020613a0c833981519152826001815181106128e957634e487b7160e01b600052603260045260246000fd5b6020026020010151604051612954919060408082526033908201527f426f72726f773a205377617070656420616d6f756e74735b305d20616e64207260608201527232b1b2b4bb32b21030b6b7bab73a39ad98ae9d60691b6080820152602081019190915260a00190565b60405180910390a1838260008151811061297e57634e487b7160e01b600052603260045260246000fd5b602002602001015114806129b9575082826000815181106129af57634e487b7160e01b600052603260045260246000fd5b6020026020010151145b612a115760405162461bcd60e51b8152602060048201526024808201527f4572726f72207768696c65207377617070696e6720626f72726f77656420746f6044820152636b656e7360e01b6064820152608401610954565b600d546000906001600160a01b03898116911614612a2f5783612a31565b845b83600181518110612a5257634e487b7160e01b600052603260045260246000fd5b6020026020010151612a649190613910565b90508860136000828254612a789190613910565b90915550612a8990506102b3610b0d565b6040516323b872dd60e01b8152336004820152306024820152604481018890526001600160a01b038916906323b872dd90606401602060405180830381600087803b158015612ad757600080fd5b505af1158015612aeb573d6000803e3d6000fd5b505050506040513d601f19601f82011682018060405250810190612b0f91906135ca565b506040805161012081018252338152602081018b81526001600160a01b038b8116938301938452606083018b815260006080850181815260a08601888152600160c088018181524260e08a01908152600a546101008b01908152601480548086018255978190529a5160099097027fce6d7b5282bd9a3661ae061feed1dbda4e52ab073b1f9285be6e155d9c38d4ec81018054988b166001600160a01b0319998a1617905599517fce6d7b5282bd9a3661ae061feed1dbda4e52ab073b1f9285be6e155d9c38d4ed8b01559a517fce6d7b5282bd9a3661ae061feed1dbda4e52ab073b1f9285be6e155d9c38d4ee8a0180549190991696169590951790965593517fce6d7b5282bd9a3661ae061feed1dbda4e52ab073b1f9285be6e155d9c38d4ef87015590517fce6d7b5282bd9a3661ae061feed1dbda4e52ab073b1f9285be6e155d9c38d4f0860155517fce6d7b5282bd9a3661ae061feed1dbda4e52ab073b1f9285be6e155d9c38d4f185015591517fce6d7b5282bd9a3661ae061feed1dbda4e52ab073b1f9285be6e155d9c38d4f28401805491151560ff199290921691909117905590517fce6d7b5282bd9a3661ae061feed1dbda4e52ab073b1f9285be6e155d9c38d4f383015592517fce6d7b5282bd9a3661ae061feed1dbda4e52ab073b1f9285be6e155d9c38d4f49091015554612d0e9190613967565b9a9950505050505050505050565b600080612d298585610683565b9050600085118015612d3b5750600081115b612d875760405162461bcd60e51b815260206004820152601960248201527f56504d4f4f4c5f424f52524f575f42454c4f575f4c494d4954000000000000006044820152606401610954565b611faa816107df60646107d98784613910565b612ddd81604051602401612dae91906137f3565b60408051601f198184030181529190526020810180516001600160e01b031663104c13eb60e21b179052613406565b50565b60006109708284613948565b60006109708284613928565b6001600160a01b038316612e5a5760405162461bcd60e51b8152602060048201526024808201527f45524332303a20617070726f76652066726f6d20746865207a65726f206164646044820152637265737360e01b6064820152608401610954565b6001600160a01b038216612ebb5760405162461bcd60e51b815260206004820152602260248201527f45524332303a20617070726f766520746f20746865207a65726f206164647265604482015261737360f01b6064820152608401610954565b6001600160a01b0383811660008181526001602090815260408083209487168084529482529182902085905590518481527f8c5be1e5ebec7d5bd14f71427d1e84f3dd0314c0f7b2291e5b200ac8c7c3b925910160405180910390a3505050565b6001600160a01b038316612f805760405162461bcd60e51b815260206004820152602560248201527f45524332303a207472616e736665722066726f6d20746865207a65726f206164604482015264647265737360d81b6064820152608401610954565b6001600160a01b038216612fe25760405162461bcd60e51b815260206004820152602360248201527f45524332303a207472616e7366657220746f20746865207a65726f206164647260448201526265737360e81b6064820152608401610954565b6001600160a01b0383166000908152602081905260409020548181101561305a5760405162461bcd60e51b815260206004820152602660248201527f45524332303a207472616e7366657220616d6f756e7420657863656564732062604482015265616c616e636560d01b6064820152608401610954565b6001600160a01b03808516600090815260208190526040808220858503905591851681529081208054849290613091908490613910565b92505081905550826001600160a01b0316846001600160a01b03167fddf252ad1be2c89b69c2b068fc378daa952ba7f163c4a11628f55a4df523b3ef846040516130dd91815260200190565b60405180910390a35b50505050565b6001600160a01b03821661314c5760405162461bcd60e51b815260206004820152602160248201527f45524332303a206275726e2066726f6d20746865207a65726f206164647265736044820152607360f81b6064820152608401610954565b6001600160a01b038216600090815260208190526040902054818110156131c05760405162461bcd60e51b815260206004820152602260248201527f45524332303a206275726e20616d6f756e7420657863656564732062616c616e604482015261636560f01b6064820152608401610954565b6001600160a01b03831660009081526020819052604081208383039055600280548492906131ef908490613967565b90915550506040518281526000906001600160a01b038516907fddf252ad1be2c89b69c2b068fc378daa952ba7f163c4a11628f55a4df523b3ef9060200160405180910390a3505050565b60006109708284613910565b61328b828260405160240161325c92919061385e565b60408051601f198184030181529190526020810180516001600160e01b03166309710a9d60e41b179052613406565b5050565b61067e8383836040516024016132a793929190613880565b60408051601f198184030181529190526020810180516001600160e01b031663969cdd0360e01b179052613406565b60006109708284613967565b6001600160a01b0382166133385760405162461bcd60e51b815260206004820152601f60248201527f45524332303a206d696e7420746f20746865207a65726f2061646472657373006044820152606401610954565b806002600082825461334a9190613910565b90915550506001600160a01b03821660009081526020819052604081208054839290613377908490613910565b90915550506040518181526001600160a01b038316906000907fddf252ad1be2c89b69c2b068fc378daa952ba7f163c4a11628f55a4df523b3ef9060200160405180910390a35050565b6130e6848484846040516024016133db94939291906138a5565b60408051601f198184030181529190526020810180516001600160e01b03166304772b3360e11b1790525b80516a636f6e736f6c652e6c6f67602083016000808483855afa5050505050565b80356001600160a01b038116811461343e57600080fd5b919050565b80516001600160701b038116811461343e57600080fd5b60006020828403121561346b578081fd5b61097082613427565b60008060408385031215613486578081fd5b61348f83613427565b915061349d60208401613427565b90509250929050565b6000806000606084860312156134ba578081fd5b6134c384613427565b92506134d160208501613427565b9150604084013590509250925092565b600080604083850312156134f3578182fd5b6134fc83613427565b946020939093013593505050565b6000602080838503121561351c578182fd5b825167ffffffffffffffff80821115613533578384fd5b818501915085601f830112613546578384fd5b815181811115613558576135586139cf565b8060051b604051601f19603f8301168101818110858211171561357d5761357d6139cf565b604052828152858101935084860182860187018a101561359b578788fd5b8795505b838610156135bd57805185526001959095019493860193860161359f565b5098975050505050505050565b6000602082840312156135db578081fd5b81518015158114610970578182fd5b6000806000606084860312156135fe578283fd5b61360784613443565b925061361560208501613443565b9150604084015163ffffffff8116811461362d578182fd5b809150509250925092565b600060208284031215613649578081fd5b5035919050565b600060208284031215613661578081fd5b5051919050565b6000806040838503121561367a578182fd5b8235915061349d60208401613427565b60008060006060848603121561369e578283fd5b833592506134d160208501613427565b600080604083850312156136c0578182fd5b505080516020909101519092909150565b600080600080608085870312156136e6578081fd5b84359350602085013592506136fd60408601613427565b9396929550929360600135925050565b600080600060608486031215613721578283fd5b505081359360208301359350604090920135919050565b60008060006060848603121561374c578081fd5b8351925060208401519150604084015190509250925092565b6000815180845260208085019450808401835b8381101561379d5781516001600160a01b031687529582019590820190600101613778565b509495945050505050565b60008151808452815b818110156137cd576020818501810151868301820152016137b1565b818111156137de5782602083870101525b50601f01601f19169290920160200192915050565b60208152600061097060208301846137a8565b60c08152600061381960c08301896137a8565b828103602084015261382b81896137a8565b9050828103604084015261383f81886137a8565b60608401969096525050608081019290925260a0909101529392505050565b60408152600061387160408301856137a8565b90508260208301529392505050565b60608152600061389360608301866137a8565b60208301949094525060400152919050565b6080815260006138b860808301876137a8565b6020830195909552506040810192909252606090910152919050565b85815284602082015260a0604082015260006138f360a0830186613765565b6001600160a01b0394909416606083015250608001529392505050565b60008219821115613923576139236139b9565b500190565b60008261394357634e487b7160e01b81526012600452602481fd5b500490565b6000816000190483118215151615613962576139626139b9565b500290565b600082821015613979576139796139b9565b500390565b600181811c9082168061399257607f821691505b602082108114156139b357634e487b7160e01b600052602260045260246000fd5b50919050565b634e487b7160e01b600052601160045260246000fd5b634e487b7160e01b600052604160045260246000fdfe52657475726e20746f20626f72726f7765722025732c2062616c616e636520686572652025733c5ad147104e56be34a9176a6692f7df8d2f4b29a5af06bc6b98970d329d657777696c6c206d616b652063616c632074746f6b656e20257320616d6f756e744320256320626f72726f77656456616c7565496e43546f6b656e20257357652073686f756c64206861766520737761707065642c2077652061687665207377617070656420257320666f72202573a2646970667358221220782179ba7faf802b4ff8ed5de10e5e9285c024c942c5f0b80640d5e7da60744964736f6c63430008040033",
  "linkReferences": {},
  "deployedLinkReferences": {}
}