{
  "_format": "hh-sol-artifact-1",
  "contractName": "Staking",
  "sourceName": "contracts/Staking.sol",
  "abi": [
    {
      "inputs": [
        {
          "internalType": "contract ERC20",
          "name": "_tokenAddress",
          "type": "address"
        }
      ],
      "stateMutability": "nonpayable",
      "type": "constructor"
    },
    {
      "inputs": [],
      "name": "MAXIMUM_LOCKUP",
      "outputs": [
        {
          "internalType": "uint256",
          "name": "",
          "type": "uint256"
        }
      ],
      "stateMutability": "view",
      "type": "function"
    },
    {
      "inputs": [],
      "name": "MINIMUM_LOCKUP",
      "outputs": [
        {
          "internalType": "uint256",
          "name": "",
          "type": "uint256"
        }
      ],
      "stateMutability": "view",
      "type": "function"
    },
    {
      "inputs": [
        {
          "internalType": "address",
          "name": "account",
          "type": "address"
        }
      ],
      "name": "claimRewards",
      "outputs": [
        {
          "internalType": "uint256",
          "name": "",
          "type": "uint256"
        }
      ],
      "stateMutability": "nonpayable",
      "type": "function"
    },
    {
      "inputs": [
        {
          "internalType": "address",
          "name": "account",
          "type": "address"
        }
      ],
      "name": "pendingRewards",
      "outputs": [
        {
          "internalType": "uint256",
          "name": "",
          "type": "uint256"
        }
      ],
      "stateMutability": "view",
      "type": "function"
    },
    {
      "inputs": [
        {
          "internalType": "uint256",
          "name": "duration",
          "type": "uint256"
        }
      ],
      "name": "relock",
      "outputs": [],
      "stateMutability": "nonpayable",
      "type": "function"
    },
    {
      "inputs": [
        {
          "internalType": "uint256",
          "name": "amount",
          "type": "uint256"
        },
        {
          "internalType": "uint256",
          "name": "lockup",
          "type": "uint256"
        }
      ],
      "name": "stake",
      "outputs": [],
      "stateMutability": "nonpayable",
      "type": "function"
    },
    {
      "inputs": [
        {
          "internalType": "address",
          "name": "",
          "type": "address"
        }
      ],
      "name": "stakeBalance",
      "outputs": [
        {
          "internalType": "uint256",
          "name": "",
          "type": "uint256"
        }
      ],
      "stateMutability": "view",
      "type": "function"
    },
    {
      "inputs": [
        {
          "internalType": "address",
          "name": "",
          "type": "address"
        }
      ],
      "name": "stakeUnlockDate",
      "outputs": [
        {
          "internalType": "uint256",
          "name": "",
          "type": "uint256"
        }
      ],
      "stateMutability": "view",
      "type": "function"
    },
    {
      "inputs": [
        {
          "internalType": "address",
          "name": "",
          "type": "address"
        }
      ],
      "name": "stakeWeight",
      "outputs": [
        {
          "internalType": "uint256",
          "name": "",
          "type": "uint256"
        }
      ],
      "stateMutability": "view",
      "type": "function"
    },
    {
      "inputs": [],
      "name": "tokenAddress",
      "outputs": [
        {
          "internalType": "contract ERC20",
          "name": "",
          "type": "address"
        }
      ],
      "stateMutability": "view",
      "type": "function"
    },
    {
      "inputs": [],
      "name": "tokenSurplus",
      "outputs": [
        {
          "internalType": "uint256",
          "name": "",
          "type": "uint256"
        }
      ],
      "stateMutability": "view",
      "type": "function"
    },
    {
      "inputs": [],
      "name": "totalDeposits",
      "outputs": [
        {
          "internalType": "uint256",
          "name": "",
          "type": "uint256"
        }
      ],
      "stateMutability": "view",
      "type": "function"
    },
    {
      "inputs": [],
      "name": "totalWeight",
      "outputs": [
        {
          "internalType": "uint256",
          "name": "",
          "type": "uint256"
        }
      ],
      "stateMutability": "view",
      "type": "function"
    },
    {
      "inputs": [
        {
          "internalType": "uint256",
          "name": "amount",
          "type": "uint256"
        }
      ],
      "name": "withdraw",
      "outputs": [],
      "stateMutability": "nonpayable",
      "type": "function"
    }
  ],
  "bytecode": "0x608060405262093a80600855630784ce0060095534801561001f57600080fd5b50604051610e87380380610e8783398101604081905261003e91610068565b6001600081905580546001600160a01b0319166001600160a01b0392909216919091179055610096565b600060208284031215610079578081fd5b81516001600160a01b038116811461008f578182fd5b9392505050565b610de2806100a56000396000f3fe608060405234801561001057600080fd5b50600436106100ea5760003560e01c80637d8820971161008c578063a6aa042e11610066578063a6aa042e146101e3578063a98d38f0146101ec578063cfffb6f8146101ff578063ef5cfb8c1461020757600080fd5b80637d882097146101a657806396c82e57146101af5780639d76ea58146101b857600080fd5b80632e1a7d4d116100c85780632e1a7d4d1461014b57806331d7a262146101605780634e7c57a6146101735780637b0472f01461019357600080fd5b806308c13d78146100ef5780630ca18f0614610122578063168ebba314610142575b600080fd5b61010f6100fd366004610bfe565b60046020526000908152604090205481565b6040519081526020015b60405180910390f35b61010f610130366004610bfe565b60036020526000908152604090205481565b61010f60095481565b61015e610159366004610c45565b61021a565b005b61010f61016e366004610bfe565b610426565b61010f610181366004610bfe565b60026020526000908152604090205481565b61015e6101a1366004610c75565b610474565b61010f60075481565b61010f60065481565b6001546101cb906001600160a01b031681565b6040516001600160a01b039091168152602001610119565b61010f60085481565b61015e6101fa366004610c45565b610770565b61010f6108af565b61010f610215366004610bfe565b61093b565b600260005414156102465760405162461bcd60e51b815260040161023d90610cf1565b60405180910390fd5b60026000818155338152602091909152604090205481111561029f5760405162461bcd60e51b8152602060048201526012602482015271494e53554646494349454e545f46554e445360701b604482015260640161023d565b336000908152600460205260409020544210156102ed5760405162461bcd60e51b815260206004820152600c60248201526b1195539114d7d313d0d2d15160a21b604482015260640161023d565b6102f63361093b565b50801561041e57336000908152600260205260408120546103239061031c908490610d7f565b6000610aff565b3360009081526003602052604090205460065491925061034d916103479084610b5d565b90610b70565b60065533600090815260036020908152604080832084905560029091528120805484929061037c908490610d7f565b909155505060015460405163a9059cbb60e01b8152336004820152602481018490526001600160a01b039091169063a9059cbb90604401602060405180830381600087803b1580156103cd57600080fd5b505af11580156103e1573d6000803e3d6000fd5b505050506040513d601f19601f820116820180604052508101906104059190610c25565b50600780549060006104178380610d7f565b9091555050505b506001600055565b6001600160a01b03811660009081526005602090815260408083205460065460039093529083205461046e9261034791610468906104626108af565b90610b7c565b90610b88565b92915050565b600260005414156104975760405162461bcd60e51b815260040161023d90610cf1565b600260005560095481106104ed5760405162461bcd60e51b815260206004820152601d60248201527f4c4f434b55505f43414e4e4f545f4558434545445f345f59454152535f000000604482015260640161023d565b6104f63361093b565b50336000908152600260205260409020548290829015610619576105746040518060400160405280601981526020017f416c726561647920736f6d652062616c6173616e63652025730000000000000081525060026000336001600160a01b03166001600160a01b0316815260200190815260200160002054610b94565b3360009081526002602052604090205461058e9085610d28565b33600090815260046020526040812054919350904210156105c757336000908152600460205260409020546105c4904290610d7f565b90505b33600090815260026020526040902054610615906105e6908790610b5d565b6105f08787610b7c565b3360009081526002602052604090205461060b908590610b7c565b6104689190610d28565b9150505b60085481101561062857506008545b60006106348383610aff565b336000908152600360205260409020546006549192509061065b9082906103479085610b5d565b600655336000908152600360209081526040808320859055600290915290208490556106878342610d28565b336000818152600460208190526040918290209390935560015490516323b872dd60e01b815292830191909152306024830152604482018890526001600160a01b0316906323b872dd90606401602060405180830381600087803b1580156106ee57600080fd5b505af1158015610702573d6000803e3d6000fd5b505050506040513d601f19601f820116820180604052508101906107269190610c25565b5085600760008282546107399190610d28565b909155505060065461075190610468846104626108af565b3360009081526005602052604081209190915560019055505050505050565b600260005414156107935760405162461bcd60e51b815260040161023d90610cf1565b60026000556107a13361093b565b50336000908152600460205260408120544210156107d657336000908152600460205260409020546107d39042610b70565b90505b60006107e28383610d28565b905060095481106108355760405162461bcd60e51b815260206004820152601c60248201527f4c4f434b55505f43414e4e4f545f4558434545445f345f594541525300000000604482015260640161023d565b3360009081526002602052604081205461084f9083610aff565b33600090815260036020526040902054600654919250610873916103479084610b5d565b6006553360009081526003602052604090208190556108928242610d28565b336000908152600460205260408120919091556001905550505050565b6007546001546040516370a0823160e01b81523060048201526000926109369290916001600160a01b03909116906370a082319060240160206040518083038186803b1580156108fe57600080fd5b505afa158015610912573d6000803e3d6000fd5b505050506040513d601f19601f820116820180604052508101906103479190610c5d565b905090565b6001600160a01b03811660009081526002602052604081205415610af7576001600160a01b0382166000908152600360209081526040808320546005909252822054600654919291610998919061034790610468866104626108af565b6001600160a01b038516600090815260046020526040812054919250904210156109e2576001600160a01b0385166000908152600460205260409020546109df9042610b70565b90505b6001600160a01b038516600090815260026020526040812054610a059083610aff565b6001600160a01b0387166000908152600360205260409020819055600654909150610a369085906103479084610b5d565b60065560015460405163a9059cbb60e01b81526001600160a01b038881166004830152602482018690529091169063a9059cbb90604401602060405180830381600087803b158015610a8757600080fd5b505af1158015610a9b573d6000803e3d6000fd5b505050506040513d601f19601f82011682018060405250810190610abf9190610c25565b50610ad2600654610468866104626108af565b6001600160a01b03909616600090815260056020526040902095909555509392505050565b506000919050565b600080610b1b61016d610468620151808187633b9aca00610b7c565b90506000610b396001610b33600a6104688680610b7c565b90610b5d565b90506000610b53670de0b6b3a76400006104688885610b7c565b9695505050505050565b6000610b698284610d28565b9392505050565b6000610b698284610d7f565b6000610b698284610d60565b6000610b698284610d40565b610bd98282604051602401610baa929190610c96565b60408051601f198184030181529190526020810180516001600160e01b03166309710a9d60e41b179052610bdd565b5050565b80516a636f6e736f6c652e6c6f67602083016000808483855afa5050505050565b600060208284031215610c0f578081fd5b81356001600160a01b0381168114610b69578182fd5b600060208284031215610c36578081fd5b81518015158114610b69578182fd5b600060208284031215610c56578081fd5b5035919050565b600060208284031215610c6e578081fd5b5051919050565b60008060408385031215610c87578081fd5b50508035926020909101359150565b6040815260008351806040840152815b81811015610cc35760208187018101516060868401015201610ca6565b81811115610cd45782606083860101525b50602083019390935250601f91909101601f191601606001919050565b6020808252601f908201527f5265656e7472616e637947756172643a207265656e7472616e742063616c6c00604082015260600190565b60008219821115610d3b57610d3b610d96565b500190565b600082610d5b57634e487b7160e01b81526012600452602481fd5b500490565b6000816000190483118215151615610d7a57610d7a610d96565b500290565b600082821015610d9157610d91610d96565b500390565b634e487b7160e01b600052601160045260246000fdfea26469706673582212209fbda0292d73f0f6128115d0a9f510d0a841b5ffd583d48792a10c9acd26bda464736f6c63430008040033",
  "linkReferences": {},
  "deployedLinkReferences": {}
}