{
  "_format": "hh-sol-artifact-1",
  "contractName": "Staking",
  "sourceName": "contracts/Staking.sol",
  "abi": [
    {
      "inputs": [
        {
          "internalType": "contract ERC20",
          "name": "_tokenAddress",
          "type": "address"
        }
      ],
      "stateMutability": "nonpayable",
      "type": "constructor"
    },
    {
      "inputs": [],
      "name": "MAXIMUM_LOCKUP",
      "outputs": [
        {
          "internalType": "uint256",
          "name": "",
          "type": "uint256"
        }
      ],
      "stateMutability": "view",
      "type": "function"
    },
    {
      "inputs": [],
      "name": "MINIMUM_LOCKUP",
      "outputs": [
        {
          "internalType": "uint256",
          "name": "",
          "type": "uint256"
        }
      ],
      "stateMutability": "view",
      "type": "function"
    },
    {
      "inputs": [
        {
          "internalType": "address",
          "name": "account",
          "type": "address"
        }
      ],
      "name": "claimRewards",
      "outputs": [
        {
          "internalType": "uint256",
          "name": "",
          "type": "uint256"
        }
      ],
      "stateMutability": "nonpayable",
      "type": "function"
    },
    {
      "inputs": [
        {
          "internalType": "address",
          "name": "account",
          "type": "address"
        }
      ],
      "name": "pendingRewards",
      "outputs": [
        {
          "internalType": "uint256",
          "name": "",
          "type": "uint256"
        }
      ],
      "stateMutability": "view",
      "type": "function"
    },
    {
      "inputs": [
        {
          "internalType": "uint256",
          "name": "duration",
          "type": "uint256"
        }
      ],
      "name": "relock",
      "outputs": [],
      "stateMutability": "nonpayable",
      "type": "function"
    },
    {
      "inputs": [
        {
          "internalType": "uint256",
          "name": "amount",
          "type": "uint256"
        },
        {
          "internalType": "uint256",
          "name": "lockup",
          "type": "uint256"
        }
      ],
      "name": "stake",
      "outputs": [],
      "stateMutability": "nonpayable",
      "type": "function"
    },
    {
      "inputs": [
        {
          "internalType": "address",
          "name": "",
          "type": "address"
        }
      ],
      "name": "stakeBalance",
      "outputs": [
        {
          "internalType": "uint256",
          "name": "",
          "type": "uint256"
        }
      ],
      "stateMutability": "view",
      "type": "function"
    },
    {
      "inputs": [
        {
          "internalType": "address",
          "name": "",
          "type": "address"
        }
      ],
      "name": "stakeUnlockDate",
      "outputs": [
        {
          "internalType": "uint256",
          "name": "",
          "type": "uint256"
        }
      ],
      "stateMutability": "view",
      "type": "function"
    },
    {
      "inputs": [
        {
          "internalType": "address",
          "name": "",
          "type": "address"
        }
      ],
      "name": "stakeWeight",
      "outputs": [
        {
          "internalType": "uint256",
          "name": "",
          "type": "uint256"
        }
      ],
      "stateMutability": "view",
      "type": "function"
    },
    {
      "inputs": [],
      "name": "tokenAddress",
      "outputs": [
        {
          "internalType": "contract ERC20",
          "name": "",
          "type": "address"
        }
      ],
      "stateMutability": "view",
      "type": "function"
    },
    {
      "inputs": [],
      "name": "tokenSurplus",
      "outputs": [
        {
          "internalType": "uint256",
          "name": "",
          "type": "uint256"
        }
      ],
      "stateMutability": "view",
      "type": "function"
    },
    {
      "inputs": [],
      "name": "totalDeposits",
      "outputs": [
        {
          "internalType": "uint256",
          "name": "",
          "type": "uint256"
        }
      ],
      "stateMutability": "view",
      "type": "function"
    },
    {
      "inputs": [],
      "name": "totalWeight",
      "outputs": [
        {
          "internalType": "uint256",
          "name": "",
          "type": "uint256"
        }
      ],
      "stateMutability": "view",
      "type": "function"
    },
    {
      "inputs": [
        {
          "internalType": "uint256",
          "name": "amount",
          "type": "uint256"
        }
      ],
      "name": "withdraw",
      "outputs": [],
      "stateMutability": "nonpayable",
      "type": "function"
    }
  ],
  "bytecode": "0x608060405262093a80600855630784ce0060095534801561001f57600080fd5b50604051610edd380380610edd83398101604081905261003e91610068565b6001600081905580546001600160a01b0319166001600160a01b0392909216919091179055610096565b600060208284031215610079578081fd5b81516001600160a01b038116811461008f578182fd5b9392505050565b610e38806100a56000396000f3fe608060405234801561001057600080fd5b50600436106100ea5760003560e01c80637d8820971161008c578063a6aa042e11610066578063a6aa042e146101e3578063a98d38f0146101ec578063cfffb6f8146101ff578063ef5cfb8c1461020757600080fd5b80637d882097146101a657806396c82e57146101af5780639d76ea58146101b857600080fd5b80632e1a7d4d116100c85780632e1a7d4d1461014b57806331d7a262146101605780634e7c57a6146101735780637b0472f01461019357600080fd5b806308c13d78146100ef5780630ca18f0614610122578063168ebba314610142575b600080fd5b61010f6100fd366004610c4d565b60046020526000908152604090205481565b6040519081526020015b60405180910390f35b61010f610130366004610c4d565b60036020526000908152604090205481565b61010f60095481565b61015e610159366004610c9b565b61021a565b005b61010f61016e366004610c4d565b610428565b61010f610181366004610c4d565b60026020526000908152604090205481565b61015e6101a1366004610ccb565b610490565b61010f60075481565b61010f60065481565b6001546101cb906001600160a01b031681565b6040516001600160a01b039091168152602001610119565b61010f60085481565b61015e6101fa366004610c9b565b6107a4565b61010f6108ec565b61010f610215366004610c4d565b61097b565b600260005414156102465760405162461bcd60e51b815260040161023d90610d47565b60405180910390fd5b60026000818155338152602091909152604090205481111561029f5760405162461bcd60e51b8152602060048201526012602482015271494e53554646494349454e545f46554e445360701b604482015260640161023d565b336000908152600460205260409020544210156102ed5760405162461bcd60e51b815260206004820152600c60248201526b1195539114d7d313d0d2d15160a21b604482015260640161023d565b6102f63361097b565b50801561042057336000908152600260205260408120546103239061031c908490610dd5565b6000610b67565b3360009081526003602052604090205460065491925090610345908390610d7e565b61034f9190610dd5565b60065533600090815260036020908152604080832084905560029091528120805484929061037e908490610dd5565b909155505060015460405163a9059cbb60e01b8152336004820152602481018490526001600160a01b039091169063a9059cbb90604401602060405180830381600087803b1580156103cf57600080fd5b505af11580156103e3573d6000803e3d6000fd5b505050506040513d601f19601f820116820180604052508101906104079190610c7b565b50600780549060006104198380610dd5565b9091555050505b506001600055565b60006006546000141561043d57506000919050565b6001600160a01b038216600090815260056020908152604080832054600654600390935292205461046c6108ec565b6104769190610db6565b6104809190610d96565b61048a9190610dd5565b92915050565b600260005414156104b35760405162461bcd60e51b815260040161023d90610d47565b600260005560095481106105095760405162461bcd60e51b815260206004820152601d60248201527f4c4f434b55505f43414e4e4f545f4558434545445f345f59454152535f000000604482015260640161023d565b6105123361097b565b50336000908152600260205260409020548290829015610639576105906040518060400160405280601781526020017f416c726561647920736f6d652062616c616e636520257300000000000000000081525060026000336001600160a01b03166001600160a01b0316815260200190815260200160002054610be3565b336000908152600260205260409020546105aa9085610d7e565b33600090815260046020526040812054919350904210156105e357336000908152600460205260409020546105e0904290610dd5565b90505b336000908152600260205260409020546105fd9086610d7e565b6106078587610db6565b336000908152600260205260409020546106219084610db6565b61062b9190610d7e565b6106359190610d96565b9150505b60085481101561064857506008545b60006106548383610b67565b33600090815260036020526040902054600654919250908190610678908490610d7e565b6106829190610dd5565b600655336000908152600360209081526040808320859055600290915290208490556106ae8342610d7e565b336000818152600460208190526040918290209390935560015490516323b872dd60e01b815292830191909152306024830152604482018890526001600160a01b0316906323b872dd90606401602060405180830381600087803b15801561071557600080fd5b505af1158015610729573d6000803e3d6000fd5b505050506040513d601f19601f8201168201806040525081019061074d9190610c7b565b5085600760008282546107609190610d7e565b9091555050600654826107716108ec565b61077b9190610db6565b6107859190610d96565b3360009081526005602052604081209190915560019055505050505050565b600260005414156107c75760405162461bcd60e51b815260040161023d90610d47565b60026000556107d53361097b565b503360009081526004602052604081205442101561080b5733600090815260046020526040902054610808904290610dd5565b90505b60006108178383610d7e565b9050600954811061086a5760405162461bcd60e51b815260206004820152601c60248201527f4c4f434b55505f43414e4e4f545f4558434545445f345f594541525300000000604482015260640161023d565b336000908152600260205260408120546108849083610b67565b33600090815260036020526040902054600654919250906108a6908390610d7e565b6108b09190610dd5565b6006553360009081526003602052604090208190556108cf8242610d7e565b336000908152600460205260408120919091556001905550505050565b6007546001546040516370a0823160e01b8152306004820152600092916001600160a01b0316906370a082319060240160206040518083038186803b15801561093457600080fd5b505afa158015610948573d6000803e3d6000fd5b505050506040513d601f19601f8201168201806040525081019061096c9190610cb3565b6109769190610dd5565b905090565b6001600160a01b03811660009081526002602052604081205415610b5f576001600160a01b0382166000908152600360209081526040808320546005909252822054600654919291836109cc6108ec565b6109d69190610db6565b6109e09190610d96565b6109ea9190610dd5565b6001600160a01b03851660009081526004602052604081205491925090421015610a35576001600160a01b038516600090815260046020526040902054610a32904290610dd5565b90505b6001600160a01b038516600090815260026020526040812054610a589083610b67565b6001600160a01b03871660009081526003602052604090208190556006549091508490610a86908390610d7e565b610a909190610dd5565b60065560015460405163a9059cbb60e01b81526001600160a01b038881166004830152602482018690529091169063a9059cbb90604401602060405180830381600087803b158015610ae157600080fd5b505af1158015610af5573d6000803e3d6000fd5b505050506040513d601f19601f82011682018060405250810190610b199190610c7b565b5060065484610b266108ec565b610b309190610db6565b610b3a9190610d96565b6001600160a01b03909616600090815260056020526040902095909555509392505050565b506000919050565b60008061016d62015180610b7f85633b9aca00610db6565b610b899190610d96565b610b939190610d96565b90506000600a610ba38380610db6565b610bad9190610d96565b610bb8906001610d7e565b90506000670de0b6b3a7640000610bcf8388610db6565b610bd99190610d96565b9695505050505050565b610c288282604051602401610bf9929190610cec565b60408051601f198184030181529190526020810180516001600160e01b03166309710a9d60e41b179052610c2c565b5050565b80516a636f6e736f6c652e6c6f67602083016000808483855afa5050505050565b600060208284031215610c5e578081fd5b81356001600160a01b0381168114610c74578182fd5b9392505050565b600060208284031215610c8c578081fd5b81518015158114610c74578182fd5b600060208284031215610cac578081fd5b5035919050565b600060208284031215610cc4578081fd5b5051919050565b60008060408385031215610cdd578081fd5b50508035926020909101359150565b6040815260008351806040840152815b81811015610d195760208187018101516060868401015201610cfc565b81811115610d2a5782606083860101525b50602083019390935250601f91909101601f191601606001919050565b6020808252601f908201527f5265656e7472616e637947756172643a207265656e7472616e742063616c6c00604082015260600190565b60008219821115610d9157610d91610dec565b500190565b600082610db157634e487b7160e01b81526012600452602481fd5b500490565b6000816000190483118215151615610dd057610dd0610dec565b500290565b600082821015610de757610de7610dec565b500390565b634e487b7160e01b600052601160045260246000fdfea264697066735822122026ba87f0ab2fb8af760b7c3e95d8ab728bc4fc653bfc5b63665c01fdbb20ea2464736f6c63430008040033",
  "linkReferences": {},
  "deployedLinkReferences": {}
}