{
  "_format": "hh-sol-artifact-1",
  "contractName": "PoolFactory",
  "sourceName": "contracts/PoolFactory.sol",
  "abi": [
    {
      "inputs": [
        {
          "internalType": "address",
          "name": "swapPair",
          "type": "address"
        },
        {
          "internalType": "address",
          "name": "swapRouter",
          "type": "address"
        },
        {
          "internalType": "string",
          "name": "amm",
          "type": "string"
        }
      ],
      "name": "createPool",
      "outputs": [
        {
          "internalType": "address",
          "name": "poolAddress",
          "type": "address"
        }
      ],
      "stateMutability": "nonpayable",
      "type": "function"
    }
  ],
  "bytecode": "0x608060405234801561001057600080fd5b50614fcd806100206000396000f3fe60806040523480156200001157600080fd5b50600436106200002e5760003560e01c8063f1935fac1462000033575b600080fd5b6200004a6200004436600462000338565b62000066565b6040516001600160a01b03909116815260200160405180910390f35b600080846001600160a01b0316630dfe16816040518163ffffffff1660e01b815260040160206040518083038186803b158015620000a357600080fd5b505afa158015620000b8573d6000803e3d6000fd5b505050506040513d601f19601f82011682018060405250810190620000de919062000312565b90506000856001600160a01b031663d21220a76040518163ffffffff1660e01b815260040160206040518083038186803b1580156200011c57600080fd5b505afa15801562000131573d6000803e3d6000fd5b505050506040513d601f19601f8201168201806040525081019062000157919062000312565b90506000826001600160a01b03166395d89b416040518163ffffffff1660e01b815260040160006040518083038186803b1580156200019557600080fd5b505afa158015620001aa573d6000803e3d6000fd5b505050506040513d6000823e601f3d908101601f19168201604052620001d49190810190620003e4565b604051806040016040528060018152602001602d60f81b815250836001600160a01b03166395d89b416040518163ffffffff1660e01b815260040160006040518083038186803b1580156200022857600080fd5b505afa1580156200023d573d6000803e3d6000fd5b505050506040513d6000823e601f3d908101601f19168201604052620002679190810190620003e4565b6040516020016200027b939291906200048e565b604051602081830303815290604052905060008582604051602001620002a3929190620004d7565b604051602081830303815290604052905060008888838986604051620002c99062000304565b620002d99594939291906200051d565b604051809103906000f080158015620002f6573d6000803e3d6000fd5b509998505050505050505050565b614955806200064383390190565b60006020828403121562000324578081fd5b8151620003318162000629565b9392505050565b6000806000606084860312156200034d578182fd5b83356200035a8162000629565b925060208401356200036c8162000629565b9150604084013567ffffffffffffffff81111562000388578182fd5b8401601f8101861362000399578182fd5b8035620003b0620003aa82620005b5565b62000581565b818152876020838501011115620003c5578384fd5b8160208401602083013783602083830101528093505050509250925092565b600060208284031215620003f6578081fd5b815167ffffffffffffffff8111156200040d578182fd5b8201601f810184136200041e578182fd5b80516200042f620003aa82620005b5565b81815285602083850101111562000444578384fd5b62000457826020830160208601620005e0565b95945050505050565b600081518084526200047a816020860160208601620005e0565b601f01601f19169290920160200192915050565b60008451620004a2818460208901620005e0565b845190830190620004b8818360208901620005e0565b8451910190620004cd818360208801620005e0565b0195945050505050565b635a444b5f60e01b815260008351620004f8816004850160208801620005e0565b83519083019062000511816004840160208801620005e0565b01600401949350505050565b6001600160a01b0386811682528516602082015260a0604082018190526000906200054b9083018662000460565b82810360608401526200055f818662000460565b9050828103608084015262000575818562000460565b98975050505050505050565b604051601f8201601f1916810167ffffffffffffffff81118282101715620005ad57620005ad62000613565b604052919050565b600067ffffffffffffffff821115620005d257620005d262000613565b50601f01601f191660200190565b60005b83811015620005fd578181015183820152602001620005e3565b838111156200060d576000848401525b50505050565b634e487b7160e01b600052604160045260246000fd5b6001600160a01b03811681146200063f57600080fd5b5056fe608060405266470de4df820000600555670de0b6b3a76400006006556200002860014262000c4a565b6007554260085566470de4df82000060095566470de4df820000600a556096601655600a6017553480156200005c57600080fd5b5060405162004955380380620049558339810160408190526200007f9162000b3f565b82518390819062000098906003906020840190620009c9565b508051620000ae906004906020840190620009c9565b505050620000cb620000c56200090460201b60201c565b62000908565b620001066040518060400160405280600d81526020016c06275696c642076706d6f6f6c3609c1b8152506200095a60201b62002d921760201c565b600d80546001600160a01b038088166001600160a01b03199283168117909355600c80549188169190921617905560408051630dfe168160e01b81529051630dfe168191600480820192602092909190829003018186803b1580156200016b57600080fd5b505afa15801562000180573d6000803e3d6000fd5b505050506040513d601f19601f82011682018060405250810190620001a6919062000b1b565b600e80546001600160a01b0319166001600160a01b03928316179055600d546040805163d21220a760e01b81529051919092169163d21220a7916004808301926020929190829003018186803b1580156200020057600080fd5b505afa15801562000215573d6000803e3d6000fd5b505050506040513d601f19601f820116820180604052508101906200023b919062000b1b565b600f80546001600160a01b0319166001600160a01b03929092169190911790556012805460ff1916600117905580516200027d906011906020840190620009c9565b50815162000293906010906020850190620009c9565b50620002cc6040518060400160405280600a815260200169223ab6b6bc903637b0b760b11b8152506200095a60201b62002d921760201c565b604080516101208101825230815260006020808301828152600e546001600160a01b0390811685870190815260608087018681526080880187815260a0890188815260c08a018981524260e08c01908152600a546101008d01908152601580546001810182559c529b517f55f448fdea98c4d29eb340757ef0a66cd03dbb9538908a6a81d96026b71ec4756009909c029b8c0180546001600160a01b0319908116928b1692909217905598517f55f448fdea98c4d29eb340757ef0a66cd03dbb9538908a6a81d96026b71ec4768c015595517f55f448fdea98c4d29eb340757ef0a66cd03dbb9538908a6a81d96026b71ec4778b01805490991697169690961790965590517f55f448fdea98c4d29eb340757ef0a66cd03dbb9538908a6a81d96026b71ec478880155517f55f448fdea98c4d29eb340757ef0a66cd03dbb9538908a6a81d96026b71ec47987015592517f55f448fdea98c4d29eb340757ef0a66cd03dbb9538908a6a81d96026b71ec47a86015590517f55f448fdea98c4d29eb340757ef0a66cd03dbb9538908a6a81d96026b71ec47b8501805460ff1916911515919091179055517f55f448fdea98c4d29eb340757ef0a66cd03dbb9538908a6a81d96026b71ec47c84015592517f55f448fdea98c4d29eb340757ef0a66cd03dbb9538908a6a81d96026b71ec47d9092019190915582519182019092526030808252620004ee9262004925908301396200095a60201b62002d921760201c565b600d54600c5460405163095ea7b360e01b81526001600160a01b039182166004820152600160fa1b602482015291169063095ea7b390604401602060405180830381600087803b1580156200054257600080fd5b505af115801562000557573d6000803e3d6000fd5b505050506040513d601f19601f820116820180604052508101906200057d919062000bf3565b50600e54600c5460405163095ea7b360e01b81526001600160a01b0391821660048201526d04ee2d6d415b85acef8100000000602482015291169063095ea7b390604401602060405180830381600087803b158015620005dc57600080fd5b505af1158015620005f1573d6000803e3d6000fd5b505050506040513d601f19601f8201168201806040525081019062000617919062000bf3565b50600f54600c5460405163095ea7b360e01b81526001600160a01b0391821660048201526d04ee2d6d415b85acef8100000000602482015291169063095ea7b390604401602060405180830381600087803b1580156200067657600080fd5b505af11580156200068b573d6000803e3d6000fd5b505050506040513d601f19601f82011682018060405250810190620006b1919062000bf3565b50620006e1604051806060016040528060408152602001620048e5604091396200095a60201b62002d921760201c565b600e546001600160a01b031663095ea7b362000705600b546001600160a01b031690565b6040516001600160e01b031960e084901b1681526001600160a01b0390911660048201526d04ee2d6d415b85acef81000000006024820152604401602060405180830381600087803b1580156200075b57600080fd5b505af115801562000770573d6000803e3d6000fd5b505050506040513d601f19601f8201168201806040525081019062000796919062000bf3565b50600f546001600160a01b031663095ea7b3620007bb600b546001600160a01b031690565b6040516001600160e01b031960e084901b1681526001600160a01b0390911660048201526d04ee2d6d415b85acef81000000006024820152604401602060405180830381600087803b1580156200081157600080fd5b505af115801562000826573d6000803e3d6000fd5b505050506040513d601f19601f820116820180604052508101906200084c919062000bf3565b50600d546001600160a01b031663095ea7b362000871600b546001600160a01b031690565b6040516001600160e01b031960e084901b1681526001600160a01b039091166004820152600160fa1b6024820152604401602060405180830381600087803b158015620008bd57600080fd5b505af1158015620008d2573d6000803e3d6000fd5b505050506040513d601f19601f82011682018060405250810190620008f8919062000bf3565b50505050505062000cf4565b3390565b600b80546001600160a01b038381166001600160a01b0319831681179093556040519116919082907f8be0079c531659141344cd1fd0a4f28419497f9722a3daafe3b4186f6b6457e090600090a35050565b620009a58160405160240162000971919062000c15565b60408051601f198184030181529190526020810180516001600160e01b0390811663104c13eb60e21b17909152620009a816565b50565b80516a636f6e736f6c652e6c6f67602083016000808483855afa5050505050565b828054620009d79062000ca1565b90600052602060002090601f016020900481019282620009fb576000855562000a46565b82601f1062000a1657805160ff191683800117855562000a46565b8280016001018555821562000a46579182015b8281111562000a4657825182559160200191906001019062000a29565b5062000a5492915062000a58565b5090565b5b8082111562000a54576000815560010162000a59565b80516001600160a01b038116811462000a8757600080fd5b919050565b600082601f83011262000a9d578081fd5b81516001600160401b038082111562000aba5762000aba62000cde565b604051601f8301601f19908116603f0116810190828211818310171562000ae55762000ae562000cde565b8160405283815286602085880101111562000afe578485fd5b62000b1184602083016020890162000c6e565b9695505050505050565b60006020828403121562000b2d578081fd5b62000b388262000a6f565b9392505050565b600080600080600060a0868803121562000b57578081fd5b62000b628662000a6f565b945062000b726020870162000a6f565b60408701519094506001600160401b038082111562000b8f578283fd5b62000b9d89838a0162000a8c565b9450606088015191508082111562000bb3578283fd5b62000bc189838a0162000a8c565b9350608088015191508082111562000bd7578283fd5b5062000be68882890162000a8c565b9150509295509295909350565b60006020828403121562000c05578081fd5b8151801515811462000b38578182fd5b602081526000825180602084015262000c3681604085016020870162000c6e565b601f01601f19169190910160400192915050565b60008282101562000c6957634e487b7160e01b81526011600452602481fd5b500390565b60005b8381101562000c8b57818101518382015260200162000c71565b8381111562000c9b576000848401525b50505050565b600181811c9082168062000cb657607f821691505b6020821081141562000cd857634e487b7160e01b600052602260045260246000fd5b50919050565b634e487b7160e01b600052604160045260246000fd5b613be18062000d046000396000f3fe608060405234801561001057600080fd5b50600436106102d65760003560e01c8063715018a611610182578063a457c2d7116100e9578063db09a9a4116100a2578063e7ba50af1161007c578063e7ba50af1461066b578063f2fde38b1461067e578063feec72b714610691578063ff5ef440146106a457600080fd5b8063db09a9a4146105b5578063dd62ed3e146105c8578063e1ec3c681461060157600080fd5b8063a457c2d714610543578063a9059cbb14610556578063c05dd5d514610569578063c31c9c071461057c578063ccdd9f5d1461058f578063d13b6be3146105a257600080fd5b806395ad86e01161013b57806395ad86e0146104e757806395d89b41146104fa57806398323ac5146105025780639a1b232a146105155780639d11ed7514610528578063a052c3c61461053057600080fd5b8063715018a6146104ab57806380b81e18146104b357806383f7a913146104bb5780638b1d6b2a146104c45780638da5cb5b146104cd578063918c2f61146104de57600080fd5b8063313ce5671161024157806344775506116101fa5780635f64b55b116101d45780635f64b55b1461044b57806360246c881461045e5780636839c8501461047957806370a082311461048257600080fd5b8063447755061461042d5780634a97b6b714610435578063585f19431461044257600080fd5b8063313ce567146103de5780633473d1c0146103ed57806339509351146104005780633b22fc03146104135780633f16406e1461041c57806340794c3b1461042557600080fd5b80630fc63d10116102935780630fc63d101461037457806318160ddd1461039f5780631e3cbb21146103a757806323b872dd146103b057806326991cc8146103c35780632a943945146103d657600080fd5b8063024f5d8a146102db57806302fe4d9a146102f057806306fdde0314610316578063084511001461032b578063095ea7b3146103485780630b97bc861461036b575b600080fd5b6102ee6102e936600461364f565b6106ad565b005b6103036102fe36600461367f565b6106e6565b6040519081526020015b60405180910390f35b61031e610867565b60405161030d919061380a565b6103336108f9565b6040805192835260208301919091520161030d565b61035b6103563660046134f8565b61090f565b604051901515815260200161030d565b61030360075481565b600e54610387906001600160a01b031681565b6040516001600160a01b03909116815260200161030d565b600254610303565b610303600a5481565b61035b6103be3660046134bd565b610925565b600d54610387906001600160a01b031681565b61031e6109d6565b6040516012815260200161030d565b6103036103fb36600461364f565b610a64565b61035b61040e3660046134f8565b610b23565b61030360135481565b61030360065481565b61031e610b5f565b610303610b6c565b60125461035b9060ff1681565b61030360165481565b600f54610387906001600160a01b031681565b610466610ba0565b60405161030d979695949392919061381d565b61030360055481565b610303610490366004613471565b6001600160a01b031660009081526020819052604090205490565b6102ee610d22565b610303610d88565b61030360175481565b61030360095481565b600b546001600160a01b0316610387565b61030360145481565b6103336104f536600461364f565b610e04565b61031e610e4a565b61030361051036600461364f565b610e59565b610303610523366004613724565b610e8f565b601554610303565b61030361053e36600461364f565b610f19565b61035b6105513660046134f8565b611189565b61035b6105643660046134f8565b611222565b61033361057736600461364f565b61122f565b600c54610387906001600160a01b031681565b61030361059d36600461364f565b6112c1565b6103036105b036600461364f565b611d1e565b6103036105c336600461364f565b611eda565b6103036105d636600461348b565b6001600160a01b03918216600090815260016020908152604080832093909416825291909152205490565b61061461060f36600461364f565b6120c0565b604080516001600160a01b039a8b168152602081019990995296909816958701959095526060860193909352608085019190915260a0840152151560c083015260e08201526101008101919091526101200161030d565b6103036106793660046136e8565b61212c565b6102ee61068c366004613471565b612c51565b61030361069f3660046136a1565b612d1c565b61030360085481565b6000806106b98361122f565b915091506000821180156106cd5750600081115b156106e157600a8290554260085560098190555b505050565b6000806000600d60009054906101000a90046001600160a01b03166001600160a01b0316630902f1ac6040518163ffffffff1660e01b815260040160606040518083038186803b15801561073957600080fd5b505afa15801561074d573d6000803e3d6000fd5b505050506040513d601f19601f820116820180604052508101906107719190613601565b506001600160701b031691506001600160701b031691506000600d60009054906101000a90046001600160a01b03166001600160a01b03166318160ddd6040518163ffffffff1660e01b815260040160206040518083038186803b1580156107d857600080fd5b505afa1580156107ec573d6000803e3d6000fd5b505050506040513d601f19601f820116820180604052508101906108109190613667565b600e549091506001600160a01b0386811691161415610854578086610836856002613969565b6108409190613969565b61084a9190613949565b9350505050610861565b8086610836846002613969565b92915050565b6060600380546108769061399f565b80601f01602080910402602001604051908101604052809291908181526020018280546108a29061399f565b80156108ef5780601f106108c4576101008083540402835291602001916108ef565b820191906000526020600020905b8154815290600101906020018083116108d257829003601f168201915b5050505050905090565b6000806109076104f5610b6c565b915091509091565b600061091c338484612dd5565b50600192915050565b6000610932848484612ef9565b6001600160a01b0384166000908152600160209081526040808320338452909152902054828110156109bc5760405162461bcd60e51b815260206004820152602860248201527f45524332303a207472616e7366657220616d6f756e74206578636565647320616044820152676c6c6f77616e636560c01b60648201526084015b60405180910390fd5b6109c98533858403612dd5565b60019150505b9392505050565b601080546109e39061399f565b80601f0160208091040260200160405190810160405280929190818152602001828054610a0f9061399f565b8015610a5c5780601f10610a3157610100808354040283529160200191610a5c565b820191906000526020600020905b815481529060010190602001808311610a3f57829003601f168201915b505050505081565b600080610a7083610e59565b9050610a7c33846130c9565b8060136000828254610a8e9190613988565b9091555050600d5460405163a9059cbb60e01b8152336004820152602481018390526001600160a01b039091169063a9059cbb90604401602060405180830381600087803b158015610adf57600080fd5b505af1158015610af3573d6000803e3d6000fd5b505050506040513d601f19601f82011682018060405250810190610b1791906135e1565b506108616102e9610b6c565b3360008181526001602090815260408083206001600160a01b0387168452909152812054909161091c918590610b5a908690613931565b612dd5565b601180546109e39061399f565b600060135460001415610b7f5750600090565b601354601454610b9190612710613969565b610b9b9190613949565b905090565b60608060606000806000806000610bb961051060025490565b3360009081526020819052604081205491925090610bd690610e59565b905088601060118484610be7610b6c565b601254855460ff909116908690610bfd9061399f565b80601f0160208091040260200160405190810160405280929190818152602001828054610c299061399f565b8015610c765780601f10610c4b57610100808354040283529160200191610c76565b820191906000526020600020905b815481529060010190602001808311610c5957829003601f168201915b50505050509550848054610c899061399f565b80601f0160208091040260200160405190810160405280929190818152602001828054610cb59061399f565b8015610d025780601f10610cd757610100808354040283529160200191610d02565b820191906000526020600020905b815481529060010190602001808311610ce557829003601f168201915b505050505094509850985098509850985098509850505090919293949596565b600b546001600160a01b03163314610d7c5760405162461bcd60e51b815260206004820181905260248201527f4f776e61626c653a2063616c6c6572206973206e6f7420746865206f776e657260448201526064016109b3565b610d866000613217565b565b600d546040516370a0823160e01b81523060048201526000916001600160a01b0316906370a082319060240160206040518083038186803b158015610dcc57600080fd5b505afa158015610de0573d6000803e3d6000fd5b505050506040513d601f19601f82011682018060405250810190610b9b9190613667565b600080600060055461271085600654610e1d9190613969565b610e279190613949565b610e319190613931565b90506000610e3f8583613969565b959194509092505050565b6060600480546108769061399f565b6000610e6460025490565b610e7057506000919050565b600254610e7b610d88565b610e859084613969565b6108619190613949565b60008242111580610ea257506007548311155b15610eaf575060006109cf565b6000610eba8561122f565b509050600060075442610ecd9190613988565b600754610eda9087613988565b610ee49086613969565b600754610ef19042613988565b610efb9085613969565b610f059190613988565b610f0f9190613949565b9695505050505050565b600080610f92610f27610b6c565b60158581548110610f4857634e487b7160e01b600052603260045260246000fd5b90600052602060002090600902016007015460158681548110610f7b57634e487b7160e01b600052603260045260246000fd5b906000526020600020906009020160080154610e8f565b90506110036040518060400160405280601081526020016f4c6f616e206475726174696f6e20257360801b81525060158581548110610fe157634e487b7160e01b600052603260045260246000fd5b90600052602060002090600902016007015442610ffe9190613988565b613269565b6110326040518060400160405280600d81526020016c4c6f616e20666565207261746560981b81525082613269565b6110d76040518060400160405280600e81526020016d4e756d646572617465757220257360901b8152506015858154811061107d57634e487b7160e01b600052603260045260246000fd5b906000526020600020906009020160010154601586815481106110b057634e487b7160e01b600052603260045260246000fd5b906000526020600020906009020160070154426110cd9190613988565b610ffe9190613969565b60006301e13380670de0b6b3a7640000836015878154811061110957634e487b7160e01b600052603260045260246000fd5b9060005260206000209060090201600101546015888154811061113c57634e487b7160e01b600052603260045260246000fd5b906000526020600020906009020160070154426111599190613988565b6111639190613969565b61116d9190613969565b6111779190613949565b6111819190613949565b949350505050565b3360009081526001602090815260408083206001600160a01b03861684529091528120548281101561120b5760405162461bcd60e51b815260206004820152602560248201527f45524332303a2064656372656173656420616c6c6f77616e63652062656c6f77604482015264207a65726f60d81b60648201526084016109b3565b6112183385858403612dd5565b5060019392505050565b600061091c338484612ef9565b600080600061123d84610e04565b91505060075460085411158061125557504260085410155b156112665750600093849350915050565b6000600754426112769190613988565b6008546112839042613988565b6009546112909190613969565b6007546008546112a09190613988565b600a546112ad9190613969565b6112b79190613931565b610e3f9190613949565b600080601583815481106112e557634e487b7160e01b600052603260045260246000fd5b60009182526020918290206040805161012081018252600990930290910180546001600160a01b03908116845260018083015495850195909552600282015416918301919091526003810154606083015260048101546080830152600581015460a0830152600681015460ff16151560c08301819052600782015460e0840152600890910154610100830152909250146113b75760405162461bcd60e51b81526020600482015260136024820152721313d05397d053149150511657d0d313d4d151606a1b60448201526064016109b3565b60006113c284611eda565b82519091506001600160a01b03163314806113de575060165481105b61142a5760405162461bcd60e51b815260206004820181905260248201527f43414e4e4f545f4c49515549444154455f41424f56455f5448524553484f4c4460448201526064016109b3565b600061143585610f19565b6015868154811061145657634e487b7160e01b600052603260045260246000fd5b9060005260206000209060090201600101546114729190613931565b600e549091506000906002906114929084906001600160a01b03166106e6565b61149c9190613949565b600f549091506000906002906114bc9085906001600160a01b03166106e6565b6114c69190613949565b6040805160028082526060808301845293945060009260208301908036833701905050600e5460408901519192506001600160a01b039182169116141561163b57600e5481516001600160a01b0390911690829060009061153757634e487b7160e01b600052603260045260246000fd5b6001600160a01b039283166020918202929092010152600f5482519116908290600190811061157657634e487b7160e01b600052603260045260246000fd5b6001600160a01b039283166020918202929092010152600c5460a089015160608a01519190921691638803dbee9186916115af91613931565b84306115be42620186a0613931565b6040518663ffffffff1660e01b81526004016115de9594939291906138f5565b600060405180830381600087803b1580156115f857600080fd5b505af115801561160c573d6000803e3d6000fd5b505050506040513d6000823e601f3d908101601f191682016040526116349190810190613521565b915061176b565b600f5481516001600160a01b0390911690829060009061166b57634e487b7160e01b600052603260045260246000fd5b6001600160a01b039283166020918202929092010152600e548251911690829060019081106116aa57634e487b7160e01b600052603260045260246000fd5b6001600160a01b039283166020918202929092010152600c5460a089015160608a01519190921691638803dbee9187916116e391613931565b84306116f242620186a0613931565b6040518663ffffffff1660e01b81526004016117129594939291906138f5565b600060405180830381600087803b15801561172c57600080fd5b505af1158015611740573d6000803e3d6000fd5b505050506040513d6000823e601f3d908101601f191682016040526117689190810190613521565b91505b6117de604051806060016040528060318152602001613b7b60319139836000815181106117a857634e487b7160e01b600052603260045260246000fd5b6020026020010151846001815181106117d157634e487b7160e01b600052603260045260246000fd5b60200260200101516132b2565b600c54600e54600f54600092839283926001600160a01b039283169263e8e3370092811691168a8a6001803061181742620186a0613931565b60405160e08a901b6001600160e01b03191681526001600160a01b039889166004820152968816602488015260448701959095526064860193909352608485019190915260a484015290921660c482015260e481019190915261010401606060405180830381600087803b15801561188e57600080fd5b505af11580156118a2573d6000803e3d6000fd5b505050506040513d601f19601f820116820180604052508101906118c6919061374f565b92509250925080601460008282546118de9190613988565b909155506118ef90506102e9610b6c565b6119116040518060600160405280602e8152602001613adb602e913982613269565b60008a606001518b60a001516119279190613931565b600e54601580549293506001600160a01b03909116918f90811061195b57634e487b7160e01b600052603260045260246000fd5b60009182526020909120600260099092020101546001600160a01b0316146119835782611985565b835b866000815181106119a657634e487b7160e01b600052603260045260246000fd5b6020026020010151826119b99190613988565b6119c39190613988565b90506000819050611a68604051806060016040528060268152602001613a07602691396040808f015190516370a0823160e01b815230600482015284916001600160a01b0316906370a082319060240160206040518083038186803b158015611a2b57600080fd5b505afa158015611a3f573d6000803e3d6000fd5b505050506040513d601f19601f82011682018060405250810190611a639190613667565b6132b2565b8b516001600160a01b0316331415611b395760158e81548110611a9b57634e487b7160e01b600052603260045260246000fd5b60009182526020909120600990910201600201548c5160405163a9059cbb60e01b81526001600160a01b0391821660048201526024810184905291169063a9059cbb90604401602060405180830381600087803b158015611afb57600080fd5b505af1158015611b0f573d6000803e3d6000fd5b505050506040513d601f19601f82011682018060405250810190611b3391906135e1565b50611c8c565b600060648d60a00151601754611b4f9190613969565b611b599190613949565b905082811015611bfe57611b6d8183613988565b60408e8101518f51915163a9059cbb60e01b81526001600160a01b03928316600482015260248101849052929450169063a9059cbb90604401602060405180830381600087803b158015611bc057600080fd5b505af1158015611bd4573d6000803e3d6000fd5b505050506040513d601f19601f82011682018060405250810190611bf891906135e1565b50611c03565b600091505b6040808e0151905163a9059cbb60e01b8152336004820152602481018390526001600160a01b039091169063a9059cbb90604401602060405180830381600087803b158015611c5157600080fd5b505af1158015611c65573d6000803e3d6000fd5b505050506040513d601f19601f82011682018060405250810190611c8991906135e1565b50505b600060158f81548110611caf57634e487b7160e01b600052603260045260246000fd5b906000526020600020906009020160060160006101000a81548160ff0219169083151502179055508060158f81548110611cf957634e487b7160e01b600052603260045260246000fd5b60009182526020909120600460099092020101559d9c50505050505050505050505050565b60125460009060ff161515600114611d685760405162461bcd60e51b815260206004820152600d60248201526c1413d3d317d11254d050931151609a1b60448201526064016109b3565b60008290508260136000828254611d7f9190613931565b9091555050600d546040516370a0823160e01b81523060048201526000916001600160a01b0316906370a082319060240160206040518083038186803b158015611dc857600080fd5b505afa158015611ddc573d6000803e3d6000fd5b505050506040513d601f19601f82011682018060405250810190611e009190613667565b90506000611e0c610d88565b1115611e335780611e1c60025490565b611e269086613969565b611e309190613949565b91505b611e3d33836132f9565b600d546040516323b872dd60e01b8152336004820152306024820152604481018690526001600160a01b03909116906323b872dd90606401602060405180830381600087803b158015611e8f57600080fd5b505af1158015611ea3573d6000803e3d6000fd5b505050506040513d601f19601f82011682018060405250810190611ec791906135e1565b50611ed36102e9610b6c565b5092915050565b6015546000908210611f1d5760405162461bcd60e51b815260206004820152600c60248201526b27379039bab1b4103637b0b760a11b60448201526064016109b3565b600060158381548110611f4057634e487b7160e01b600052603260045260246000fd5b60009182526020918290206040805161012081018252600990930290910180546001600160a01b039081168452600182015484860152600282015416838301526003810154606084015260048101546080840152600581015460a0840152600681015460ff16151560c0840152600781015460e0840152600801546101008301528051808201909152601b81527f77696c6c2063616c63756c617465206c6f616e7269736b7261696f000000000092810192909252915061200090612d92565b600061202761200e85610f19565b836020015161201d9190613931565b83604001516106e6565b905061206060405180604001604052806015815260200174676f7420626f72726f7765642076616c756520257360581b81525082613269565b60008260a0015190506120916040518060600160405280603c8152602001613b09603c9139828560600151856133d8565b818360600151826120a29190613931565b6120ad906064613969565b6120b79190613949565b95945050505050565b601581815481106120d057600080fd5b60009182526020909120600990910201805460018201546002830154600384015460048501546005860154600687015460078801546008909801546001600160a01b0397881699509597949096169592949193909260ff169189565b60125460009060ff1615156001146121765760405162461bcd60e51b815260206004820152600d60248201526c1413d3d317d11254d050931151609a1b60448201526064016109b3565b6040516370a0823160e01b815233600482015282906001600160a01b038516906370a082319060240160206040518083038186803b1580156121b757600080fd5b505afa1580156121cb573d6000803e3d6000fd5b505050506040513d601f19601f820116820180604052508101906121ef9190613667565b10156122475760405162461bcd60e51b815260206004820152602160248201527f494e53554646494349454e545f434f4c4c41544552414c5f415641494c41424c6044820152604560f81b60648201526084016109b3565b84156122a45760405162461bcd60e51b815260206004820152602660248201527f426f72726f77206d6f72652066726f6d206c6f616e3a206e6f7420696d706c656044820152651b595b9d195960d21b60648201526084016109b3565b60025484106122f55760405162461bcd60e51b815260206004820152601960248201527f494e53554646494349454e545f4c505f4c49515549444954590000000000000060448201526064016109b3565b601654612303858585612d1c565b10156123515760405162461bcd60e51b815260206004820152601860248201527f434f4c4c41544552414c5f524154494f5f544f4f5f4c4f57000000000000000060448201526064016109b3565b6123956040518060400160405280602081526020017f426f72726f773a20636f6c6c61746572616c206f6b2c20726174696f3a202573815250610ffe868686612d1c565b600c54600e54600f54604051635d5155ef60e11b81526001600160a01b03928316600482015290821660248201526044810187905260016064820181905260848201523060a48201526502670e15a5d060c48201526000928392169063baa2abde9060e4016040805180830381600087803b15801561241357600080fd5b505af1158015612427573d6000803e3d6000fd5b505050506040513d601f19601f8201168201806040525081019061244b91906136c5565b91509150612471604051806060016040528060368152602001613aa56036913983613269565b612493604051806060016040528060368152602001613b456036913982613269565b6124b5604051806060016040528060218152602001613a846021913983613269565b604080518082018252601281527142616c616e636520746f6b656e204120257360701b6020820152600e5491516370a0823160e01b815230600482015261255a926001600160a01b0316906370a08231906024015b60206040518083038186803b15801561252257600080fd5b505afa158015612536573d6000803e3d6000fd5b505050506040513d601f19601f82011682018060405250810190610ffe9190613667565b61257c604051806060016040528060218152602001613a636021913982613269565b604080518082018252601281527142616c616e636520746f6b656e204220257360701b6020820152600f5491516370a0823160e01b81523060048201526125d5926001600160a01b0316906370a082319060240161250a565b6040805160028082526060808301845292600092919060208301908036833701905050600e549091506001600160a01b038881169116141561272e57600f5481516001600160a01b0390911690829060009061264157634e487b7160e01b600052603260045260246000fd5b6001600160a01b039283166020918202929092010152600e5482519116908290600190811061268057634e487b7160e01b600052603260045260246000fd5b6001600160a01b039283166020918202929092010152600c54166338ed173984600184306126b142620186a0613931565b6040518663ffffffff1660e01b81526004016126d19594939291906138f5565b600060405180830381600087803b1580156126eb57600080fd5b505af11580156126ff573d6000803e3d6000fd5b505050506040513d6000823e601f3d908101601f191682016040526127279190810190613521565b9150612847565b600e5481516001600160a01b0390911690829060009061275e57634e487b7160e01b600052603260045260246000fd5b6001600160a01b039283166020918202929092010152600f5482519116908290600190811061279d57634e487b7160e01b600052603260045260246000fd5b6001600160a01b039283166020918202929092010152600c54166338ed173985600184306127ce42620186a0613931565b6040518663ffffffff1660e01b81526004016127ee9594939291906138f5565b600060405180830381600087803b15801561280857600080fd5b505af115801561281c573d6000803e3d6000fd5b505050506040513d6000823e601f3d908101601f191682016040526128449190810190613521565b91505b612891604051806060016040528060368152602001613a2d603691398360018151811061288457634e487b7160e01b600052603260045260246000fd5b6020026020010151613269565b83826000815181106128b357634e487b7160e01b600052603260045260246000fd5b602002602001015114806128ee575082826000815181106128e457634e487b7160e01b600052603260045260246000fd5b6020026020010151145b6129465760405162461bcd60e51b8152602060048201526024808201527f4572726f72207768696c65207377617070696e6720626f72726f77656420746f6044820152636b656e7360e01b60648201526084016109b3565b600e546000906001600160a01b038981169116146129645783612966565b845b8360018151811061298757634e487b7160e01b600052603260045260246000fd5b60200260200101516129999190613931565b905088601460008282546129ad9190613931565b909155506129be90506102e9610b6c565b6040516323b872dd60e01b8152336004820152306024820152604481018890526001600160a01b038916906323b872dd90606401602060405180830381600087803b158015612a0c57600080fd5b505af1158015612a20573d6000803e3d6000fd5b505050506040513d601f19601f82011682018060405250810190612a4491906135e1565b506040805161012081018252338152602081018b81526001600160a01b038b8116938301938452606083018b815260006080850181815260a08601888152600160c088018181524260e08a01908152600a546101008b01908152601580548086018255978190529a5160099097027f55f448fdea98c4d29eb340757ef0a66cd03dbb9538908a6a81d96026b71ec47581018054988b166001600160a01b0319998a1617905599517f55f448fdea98c4d29eb340757ef0a66cd03dbb9538908a6a81d96026b71ec4768b01559a517f55f448fdea98c4d29eb340757ef0a66cd03dbb9538908a6a81d96026b71ec4778a0180549190991696169590951790965593517f55f448fdea98c4d29eb340757ef0a66cd03dbb9538908a6a81d96026b71ec47887015590517f55f448fdea98c4d29eb340757ef0a66cd03dbb9538908a6a81d96026b71ec479860155517f55f448fdea98c4d29eb340757ef0a66cd03dbb9538908a6a81d96026b71ec47a85015591517f55f448fdea98c4d29eb340757ef0a66cd03dbb9538908a6a81d96026b71ec47b8401805491151560ff199290921691909117905590517f55f448fdea98c4d29eb340757ef0a66cd03dbb9538908a6a81d96026b71ec47c83015592517f55f448fdea98c4d29eb340757ef0a66cd03dbb9538908a6a81d96026b71ec47d9091015554612c439190613988565b9a9950505050505050505050565b600b546001600160a01b03163314612cab5760405162461bcd60e51b815260206004820181905260248201527f4f776e61626c653a2063616c6c6572206973206e6f7420746865206f776e657260448201526064016109b3565b6001600160a01b038116612d105760405162461bcd60e51b815260206004820152602660248201527f4f776e61626c653a206e6577206f776e657220697320746865207a65726f206160448201526564647265737360d01b60648201526084016109b3565b612d1981613217565b50565b600080612d2985856106e6565b9050600085118015612d3b5750600081115b612d875760405162461bcd60e51b815260206004820152601960248201527f56504d4f4f4c5f424f52524f575f42454c4f575f4c494d49540000000000000060448201526064016109b3565b806120a28482613931565b612d1981604051602401612da6919061380a565b60408051601f198184030181529190526020810180516001600160e01b031663104c13eb60e21b17905261341d565b6001600160a01b038316612e375760405162461bcd60e51b8152602060048201526024808201527f45524332303a20617070726f76652066726f6d20746865207a65726f206164646044820152637265737360e01b60648201526084016109b3565b6001600160a01b038216612e985760405162461bcd60e51b815260206004820152602260248201527f45524332303a20617070726f766520746f20746865207a65726f206164647265604482015261737360f01b60648201526084016109b3565b6001600160a01b0383811660008181526001602090815260408083209487168084529482529182902085905590518481527f8c5be1e5ebec7d5bd14f71427d1e84f3dd0314c0f7b2291e5b200ac8c7c3b925910160405180910390a3505050565b6001600160a01b038316612f5d5760405162461bcd60e51b815260206004820152602560248201527f45524332303a207472616e736665722066726f6d20746865207a65726f206164604482015264647265737360d81b60648201526084016109b3565b6001600160a01b038216612fbf5760405162461bcd60e51b815260206004820152602360248201527f45524332303a207472616e7366657220746f20746865207a65726f206164647260448201526265737360e81b60648201526084016109b3565b6001600160a01b038316600090815260208190526040902054818110156130375760405162461bcd60e51b815260206004820152602660248201527f45524332303a207472616e7366657220616d6f756e7420657863656564732062604482015265616c616e636560d01b60648201526084016109b3565b6001600160a01b0380851660009081526020819052604080822085850390559185168152908120805484929061306e908490613931565b92505081905550826001600160a01b0316846001600160a01b03167fddf252ad1be2c89b69c2b068fc378daa952ba7f163c4a11628f55a4df523b3ef846040516130ba91815260200190565b60405180910390a35b50505050565b6001600160a01b0382166131295760405162461bcd60e51b815260206004820152602160248201527f45524332303a206275726e2066726f6d20746865207a65726f206164647265736044820152607360f81b60648201526084016109b3565b6001600160a01b0382166000908152602081905260409020548181101561319d5760405162461bcd60e51b815260206004820152602260248201527f45524332303a206275726e20616d6f756e7420657863656564732062616c616e604482015261636560f01b60648201526084016109b3565b6001600160a01b03831660009081526020819052604081208383039055600280548492906131cc908490613988565b90915550506040518281526000906001600160a01b038516907fddf252ad1be2c89b69c2b068fc378daa952ba7f163c4a11628f55a4df523b3ef9060200160405180910390a3505050565b600b80546001600160a01b038381166001600160a01b0319831681179093556040519116919082907f8be0079c531659141344cd1fd0a4f28419497f9722a3daafe3b4186f6b6457e090600090a35050565b6132ae828260405160240161327f92919061387f565b60408051601f198184030181529190526020810180516001600160e01b03166309710a9d60e41b17905261341d565b5050565b6106e18383836040516024016132ca939291906138a1565b60408051601f198184030181529190526020810180516001600160e01b031663969cdd0360e01b17905261341d565b6001600160a01b03821661334f5760405162461bcd60e51b815260206004820152601f60248201527f45524332303a206d696e7420746f20746865207a65726f20616464726573730060448201526064016109b3565b80600260008282546133619190613931565b90915550506001600160a01b0382166000908152602081905260408120805483929061338e908490613931565b90915550506040518181526001600160a01b038316906000907fddf252ad1be2c89b69c2b068fc378daa952ba7f163c4a11628f55a4df523b3ef9060200160405180910390a35050565b6130c3848484846040516024016133f294939291906138c6565b60408051601f198184030181529190526020810180516001600160e01b03166304772b3360e11b1790525b80516a636f6e736f6c652e6c6f67602083016000808483855afa5050505050565b80356001600160a01b038116811461345557600080fd5b919050565b80516001600160701b038116811461345557600080fd5b600060208284031215613482578081fd5b6109cf8261343e565b6000806040838503121561349d578081fd5b6134a68361343e565b91506134b46020840161343e565b90509250929050565b6000806000606084860312156134d1578081fd5b6134da8461343e565b92506134e86020850161343e565b9150604084013590509250925092565b6000806040838503121561350a578182fd5b6135138361343e565b946020939093013593505050565b60006020808385031215613533578182fd5b825167ffffffffffffffff8082111561354a578384fd5b818501915085601f83011261355d578384fd5b81518181111561356f5761356f6139f0565b8060051b604051601f19603f83011681018181108582111715613594576135946139f0565b604052828152858101935084860182860187018a10156135b2578788fd5b8795505b838610156135d45780518552600195909501949386019386016135b6565b5098975050505050505050565b6000602082840312156135f2578081fd5b815180151581146109cf578182fd5b600080600060608486031215613615578283fd5b61361e8461345a565b925061362c6020850161345a565b9150604084015163ffffffff81168114613644578182fd5b809150509250925092565b600060208284031215613660578081fd5b5035919050565b600060208284031215613678578081fd5b5051919050565b60008060408385031215613691578182fd5b823591506134b46020840161343e565b6000806000606084860312156136b5578283fd5b833592506134e86020850161343e565b600080604083850312156136d7578182fd5b505080516020909101519092909150565b600080600080608085870312156136fd578081fd5b84359350602085013592506137146040860161343e565b9396929550929360600135925050565b600080600060608486031215613738578283fd5b505081359360208301359350604090920135919050565b600080600060608486031215613763578081fd5b8351925060208401519150604084015190509250925092565b6000815180845260208085019450808401835b838110156137b45781516001600160a01b03168752958201959082019060010161378f565b509495945050505050565b60008151808452815b818110156137e4576020818501810151868301820152016137c8565b818111156137f55782602083870101525b50601f01601f19169290920160200192915050565b6020815260006109cf60208301846137bf565b60e08152600061383060e083018a6137bf565b8281036020840152613842818a6137bf565b9050828103604084015261385681896137bf565b9150508560608301528460808301528360a083015282151560c083015298975050505050505050565b60408152600061389260408301856137bf565b90508260208301529392505050565b6060815260006138b460608301866137bf565b60208301949094525060400152919050565b6080815260006138d960808301876137bf565b6020830195909552506040810192909252606090910152919050565b85815284602082015260a06040820152600061391460a083018661377c565b6001600160a01b0394909416606083015250608001529392505050565b60008219821115613944576139446139da565b500190565b60008261396457634e487b7160e01b81526012600452602481fd5b500490565b6000816000190483118215151615613983576139836139da565b500290565b60008282101561399a5761399a6139da565b500390565b600181811c908216806139b357607f821691505b602082108114156139d457634e487b7160e01b600052602260045260246000fd5b50919050565b634e487b7160e01b600052601160045260246000fd5b634e487b7160e01b600052604160045260246000fdfe52657475726e20746f20626f72726f7765722025732c2062616c616e63652068657265202573426f72726f773a205377617070656420616d6f756e74735b305d20616e6420726563656976656420616d6f756e74735b315d3a202573416d6f756e7420422072656365697665642062792072656d6f76654c6971202573416d6f756e7420412072656365697665642062792072656d6f76654c6971632573426f72726f773a2072656d6f766564206c69717569646974792c20726563656976656420746f6b656e204120616d6f756e743a2025734c69717569646174653a2052657475726e696e67204c5020746f6b656e7320746f2074686520706f6f6c3a20257377696c6c206d616b652063616c632074746f6b656e20257320616d6f756e744320256320626f72726f77656456616c7565496e43546f6b656e202573426f72726f773a2072656d6f766564206c69717569646974792c20726563656976656420746f6b656e204220616d6f756e743a20257357652073686f756c64206861766520737761707065642c2077652061687665207377617070656420257320666f72202573a2646970667358221220b88ff22f9d67b0e0bd45f0bdfa9b29923a961f0e2227c7a30e96edfb1e5cd9d664736f6c63430008040033417070726f766520746f6b656e733a20616c6c6f77206f776e657220746f20647261696e207468697320636f6e747261637420746f6b656e7320616e64204c50417070726f766520756e69737761703a2073776170526f75746572207370656e6473204c5020616e6420746f6b656e73a2646970667358221220096d5e574a8a4705274141dadc9b0c522cd6bf093b66a77bf1a89ad51f69fe6764736f6c63430008040033",
  "linkReferences": {},
  "deployedLinkReferences": {}
}